:100000000C9435000C945D000C945D000C945D0024
:100010000C945D000C945D000C945D000C945D00EC
:100020000C945D000C945D000C945D000C945D00DC
:100030000C945D000C945D000C945D000C945D00CC
:100040000C940F030C945D000C94DD020C94B70229
:100050000C945D000C945D000C945D000C945D00AC
:100060000C9459030C945D00870411241FBECFEF3C
:10007000D4E0DEBFCDBF11E0A0E0B1E0E6E4FCE0FB
:1000800002C005900D92A439B107D9F722E0A4E986
:10009000B1E001C01D92A93DB207E1F710E0C5E350
:1000A000D0E004C02197FE010E941606C433D10798
:1000B000C9F70E94C0040C9421060C940000CF9252
:1000C000DF92EF92FF920F931F93CF93DF936C0118
:1000D0007A018B01C0E0D0E0CE15DF0589F0D801B0
:1000E0006D918D01D601ED91FC910190F081E02D93
:1000F000C6010995892B11F47E0102C02196ECCF2F
:10010000C701DF91CF911F910F91FF90EF90DF908A
:10011000CF900895FC01918D828D981761F0828DAA
:10012000DF01A80FB11D5D968C91928D9F5F9F732B
:10013000928F90E008958FEF9FEF0895FC01918DCD
:10014000828D981731F0828DE80FF11D858D90E03A
:1001500008958FEF9FEF0895FC01918D228D892FD7
:1001600090E0805C9F4F821B91098F7399270895BF
:1001700080E392E00E94AC0021E0892B09F420E0AA
:10018000822F0895FC01848DDF01A80FB11DA35AB1
:10019000BF4F2C91848D90E001968F739927848FA7
:1001A000A689B7892C93A089B1898C9180648C939E
:1001B000938D848D981306C00288F389E02D808189
:1001C0008F7D80830895EF92FF920F931F93CF93BB
:1001D000DF93EC0181E0888F9B8D8C8D981305C097
:1001E000E889F989808185FD24C0F62E0B8D10E009
:1001F0000F5F1F4F0F731127E02E8C8DE8120CC07C
:100200000FB607FCFACFE889F989808185FFF5CF21
:10021000CE010E94C200F1CF8B8DFE01E80FF11DCF
:10022000E35AFF4FF0820B8FEA89FB89808180625D
:1002300007C0EE89FF896083E889F989808180643D
:10024000808381E090E0DF91CF911F910F91FF902B
:10025000EF900895CF93DF93EC01888D8823C9F048
:10026000EA89FB89808185FD05C0A889B9898C91BF
:1002700086FD0FC00FB607FCF5CF808185FFF2CF5A
:10028000A889B9898C9185FFEDCFCE010E94C2006B
:10029000E7CFDF91CF91089580E090E0892B29F09E
:1002A0000E94B80081110C94000008953FB7F894A3
:1002B0008091E1019091E201A091E301B091E4010C
:1002C00026B5A89B05C02F3F19F00196A11DB11DB1
:1002D0003FBFBA2FA92F982F8827820F911DA11DEC
:1002E000B11DBC01CD0143E0660F771F881F991F28
:1002F0004A95D1F708958F929F92AF92BF92CF9275
:10030000DF92EF92FF926B017C010E9456014B013C
:100310005C01C114D104E104F104F1F00E94560122
:10032000DC01CB0188199909AA09BB09883E9340D1
:10033000A105B10570F321E0C21AD108E108F10866
:1003400088EE880E83E0981EA11CB11CC114D10454
:10035000E104F10419F7DDCFFF90EF90DF90CF902B
:10036000BF90AF909F908F90089585ED8093BC00D3
:100370008091BC0084FDFCCF10920B020895409147
:10038000B701262F30E0240F311D21323105DCF476
:1003900020910B022430C9F4FC0180E090E0861724
:1003A00058F43091B7012191DC01AB56BE4FA30F39
:1003B000B11D2C930196F3CF8091B701680F609324
:1003C000B70180E0089581E0089582E008950895DE
:1003D0008FEF9FEF08958FEF9FEF08958091940125
:1003E00090E09195819591090895CF92DF92EF92D7
:1003F000FF920F931F93CF93DF937C01262F972FAC
:100400008A0180910C02882391F0C62FD72F6E01AC
:10041000C40ED51ECC15DD0571F06991D701ED91A3
:10042000FC910190F081E02DC7010995F3CF642F75
:10043000822F0E94BF01C801DF91CF911F910F91C0
:10044000FF90EF90DF90CF900895CF93DF931F92AE
:10045000CDB7DEB7698320910C022223D1F0209121
:100460002F02203240F021E030E0FC013383228370
:1004700080E090E015C080910D02E82FF0E0E25F8F
:10048000FD4F998190838F5F80930D0280932F029F
:1004900005C061E0CE0101960E94BF0181E090E0BD
:1004A0000F90DF91CF910895009769F0FC010190C2
:1004B0000020E9F73197AF01481B590BBC0180E3DD
:1004C00092E00C945F0080E090E00895CF93DF937A
:1004D0000E945402EC0180E291E00E9454028C0FD1
:1004E0009D1FDF91CF9108958F929F92AF92BF92FF
:1004F0000F931F93CF93DF93CDB7DEB7A1970FB6BE
:10050000F894DEBF0FBECDBF19A2423008F44AE016
:100510008E010F5D1F4F842E912CA12CB12CA501B3
:1005200094010E94F405E62FB901CA010150110996
:10053000EA3014F4E05D01C0E95CD801EC93232BB0
:10054000242B252B61F7C8010E945402A1960FB6F7
:10055000F894DEBF0FBECDBFDF91CF911F910F91F9
:10056000BF90AF909F908F9008950E941C061F929D
:100570000F920FB60F9211242F933F934F935F93D7
:100580006F937F938F939F93AF93BF93EF93FF935B
:1005900080E392E00E94C200FF91EF91BF91AF9182
:1005A0009F918F917F916F915F914F913F912F918B
:1005B0000F900FBE0F901F9018951F920F920FB6BD
:1005C0000F9211242F938F939F93EF93FF93E091BA
:1005D0004002F09141028081E0914602F091470291
:1005E00082FD12C09081809149028F5F8F732091AC
:1005F0004A02821751F0E0914902F0E0E05DFD4FC0
:10060000958F8093490201C08081FF91EF919F9166
:100610008F912F910F900FBE0F901F9018951F92E2
:100620000F920FB60F9211242F933F938F939F93A6
:10063000AF93BF938091DD019091DE01A091DF0126
:10064000B091E0013091DC0126E0230F2D3720F43A
:100650000296A11DB11D05C029E8230F0396A11D17
:10066000B11D2093DC018093DD019093DE01A09306
:10067000DF01B093E0018091E1019091E201A0914E
:10068000E301B091E4010196A11DB11D8093E10148
:100690009093E201A093E301B093E401BF91AF9185
:1006A0009F918F913F912F910F900FBE0F901F90B0
:1006B00018951F920F920FB60F9211242F933F930C
:1006C0004F935F936F937F938F939F93AF93BF935A
:1006D000EF93FF938091B900887F803609F49CC026
:1006E00068F5883209F45BC090F4803109F454C095
:1006F00038F4882309F4F6C0883009F44DC0F6C0F8
:10070000883109F44CC0803209F45DC0EFC08034F8
:1007100009F468C048F4803309F455C0883309F0FF
:10072000E5C080930902D8C0803509F44FC08835F0
:1007300009F45DC0883409F0D9C0D6C0883909F4FD
:10074000C7C0A8F4883709F467C038F4883609F4BC
:1007500063C0803709F460C0C9C0883809F4B8C0E4
:10076000803909F45FC0803809F0C0C05BC0803BAD
:1007700009F486C038F4803A09F466C0883A09F46E
:100780007FC0B4C0803C09F4A7C0883C09F4A4C071
:10079000883B09F48AC0AAC08091E60110C09091FC
:1007A000080280910702981770F5E091080281E035
:1007B0008E0F80930802F0E0E951FE4F8081809314
:1007C000BB0085EC86C0809309028EC0E0910802D0
:1007D00081E08E0F809308028091BB00F0E0E95128
:1007E000FE4F808390910802809107026EC0E091D5
:1007F000080281E08E0F809308028091BB00F0E038
:10080000E951FE4F808380910A0281116DC081E021
:100810008093E50184EA61C083E080930B0210922B
:10082000DB01CFCF8091DB01803208F051C0E09135
:10083000DB0181E08E0F8093DB018091BB00F0E053
:10084000E554FE4F8083BDCF85EC8093BC001092B1
:100850000B028091DB01803230F4E091DB01F0E0AB
:10086000E554FE4F10826091DB0170E0E091B90128
:10087000F091BA018BEB91E009951092DB0136C043
:1008800084E080930B021092B8011092B701E091BE
:10089000B501F091B60109958091B701811105C0AC
:1008A00081E08093B70110929501E091B80181E059
:1008B0008E0F8093B801F0E0EB56FE4F808180935D
:1008C000BB009091B8018091B701981708F479CFD7
:1008D00085E88093BC000AC085EC8093BC00109230
:1008E0000B0204C0109209020E94B501FF91EF9122
:1008F000BF91AF919F918F917F916F915F914F9138
:100900003F912F910F900FBE0F901F901895E0E32D
:10091000F2E01382128288EE93E0A0E0B0E08483DC
:100920009583A683B78324E031E03183208325ECCF
:1009300030E03587248724EC30E03787268720ECA9
:1009400030E0318B208B21EC30E0338B228B22EC9A
:1009500030E0358B248B26EC30E0378B268B118EE4
:10096000128E138E148EEDECF2E0138212828483C9
:100970009583A683B78384E191E091838083089572
:10098000789484B5826084BD84B5816084BD85B56A
:10099000826085BD85B5816085BD80916E00816076
:1009A00080936E001092810080918100826080931C
:1009B000810080918100816080938100809180001E
:1009C0008160809380008091B10084608093B10049
:1009D0008091B00081608093B00080917A00846043
:1009E00080937A0080917A00826080937A0080916F
:1009F0007A008E7F80937A0080917A00806880935D
:100A00007A001092C100E0914002F091410282E030
:100A10008083E0913C02F0913D021082E0913E0221
:100A2000F0913F0289E1808310924802E0914402F4
:100A3000F091450286E08083E0914202F09143020A
:100A4000808180618083E0914202F0914302808145
:100A500088608083E0914202F09143028081806847
:100A60008083E0914202F091430280818F7D8083F8
:100A700060ED77E080E090E00E947B0183E291E00E
:100A80000E946602C12CD12C7601C394C0E0D0E054
:100A900011E002E0BB24BA9465EEA62E75EC972E09
:100AA00010930C02C0922E0210920D0210922F028F
:100AB00080910B028111FCCF00930B0210930A026C
:100AC000B092090210920802109207021092E601F9
:100AD0009091E6019601220F331F292B2093E60106
:100AE0009091E501913069F41092E5019091E60151
:100AF0009093BB009091BC0093FDF8CF9092BC0006
:100B000002C0A092BC0090910B029230E1F3909150
:100B100009029F3F69F080910902803231F0809193
:100B20000902803321F084E003C082E001C083E049
:100B300010920D0210922F0210920C02811119C016
:100B40008FE291E00E94540280E1C816D104E104D2
:100B5000F10420F48EE491E00E94540240E1C701C8
:100B6000B6010E94740280E591E00E94660221961F
:100B700019C08430B9F484E591E00E94540280E108
:100B8000C816D104E104F10420F48EE491E00E943F
:100B9000540240E1C701B6010E94740280E291E074
:100BA0000E9454028FEFC81AD80AE80AF80A8FE7A1
:100BB000C816D104E104F10409F072CFCD2B19F469
:100BC0008FE691E002C085E891E00E94660264EC45
:100BD00079E080E090E00E947B018BE891E00E9448
:100BE00066020E944C01FDCFA1E21A2EAA1BBB1B7C
:100BF000FD010DC0AA1FBB1FEE1FFF1FA217B307E9
:100C0000E407F50720F0A21BB30BE40BF50B661FFE
:100C1000771F881F991F1A9469F7609570958095C2
:100C200090959B01AC01BD01CF010895EE0FFF1F10
:100C30000590F491E02D099481E090E0F8940C94F3
:060C40002106F894FFCF2D
:100C460000000000E3005F00AC008A009E002A015D
:100C5600000000002502F501EE01EB01E801E701C5
:100C66000D0A005363616E6E696E672E2E2E004963
:100C760032432064657669636520666F756E64200D
:100C8600617420616464726573732030780030008B
:100C960020202100556E6B6E6F77206572726F7221
:100CA6002061742061646472657373203078004E2D
:100CB6006F20493243206465766963657320666FE9
:100CC600756E640A00646F6E650A0046696E697324
:040CD6006821000091
:103800000C94341C0C944F1C0C944F1C0C944F1CA7
:103810000C944F1C0C944F1C0C944F1C0C944F1C7C
:103820000C944F1C0C944F1C0C944F1C0C944F1C6C
:103830000C944F1C0C944F1C0C944F1C0C944F1C5C
:103840000C944F1C0C944F1C0C944F1C0C944F1C4C
:103850000C944F1C0C944F1C0C944F1C0C944F1C3C
:103860000C944F1C0C944F1C11241FBECFEFD4E0BE
:10387000DEBFCDBF11E0A0E0B1E0E8E1FFE302C0B0
:1038800005900D92A230B107D9F712E0A2E0B1E0A5
:1038900001C01D92AD30B107E1F70C94311D0C94BD
:1038A000001CCF93DF93CDB7DEB724970FB6F89403
:1038B000DEBF0FBECDBF382F882309F433E010924E
:1038C0000A02332309F44BC020E02D9A19821A8290
:1038D0001B821C8289819A81AB81BC8180549F416B
:1038E000A040B040A0F489819A81AB81BC8101964F
:1038F000A11DB11D89839A83AB83BC8389819A8181
:10390000AB81BC8180549F41A040B04060F32D98B2
:1039100019821A821B821C8289819A81AB81BC81A7
:1039200080549F41A040B040A0F489819A81AB812E
:10393000BC810196A11DB11D89839A83AB83BC8391
:1039400089819A81AB81BC8180549F41A040B04065
:1039500060F32F5F231708F4B8CF20930A02249650
:103960000FB6F894DEBF0FBECDBFDF91CF910895A3
:10397000EF92FF920F931F93EE24FF248701809113
:10398000C00087FD17C00894E11CF11C011D111D2A
:1039900081E0E81689E0F8068DE3080780E0180763
:1039A00070F3E0910201F091030109958091C0004C
:1039B00087FFE9CF8091C600992787FD90951F91D9
:1039C0000F91FF90EF900895982F8091C00085FF90
:1039D000FCCF9093C60008950E94B81C803271F00D
:1039E000809104018F5F80930401853009F0089570
:1039F000E0910201F09103010995089584E10E948C
:103A0000E41C80E10E94E41C08951F93182F0E947B
:103A1000B81C803269F0809104018F5F80930401AB
:103A2000853079F4E0910201F0910301099509C014
:103A300084E10E94E41C812F0E94E41C80E10E942A
:103A4000E41C1F910895282F882351F090E0809165
:103A5000C00087FFFCCF8091C6009F5F2917B9F790
:103A60000895CFEFD4E0DEBFCDBF000089E18093A1
:103A7000C4001092C50088E18093C10086E0809365
:103A8000C2005098589A259A83E00E94511C0E94C7
:103A9000B81C8033B1F18133B9F1803409F454C0DA
:103AA000813409F45AC0823409F469C0853409F4B8
:103AB0006CC0803531F1813521F1823511F18535C8
:103AC00009F4B2C0863509F4BAC0843609F463C07B
:103AD000843709F4BBC0853709F40EC1863709F471
:103AE0004AC0809104018F5F80930401853079F68C
:103AF000E0910201F091030109950E94B81C803306
:103B000051F60E94EC1CC3CF0E94B81C803249F7CA
:103B100084E10E94E41C81E40E94E41C86E50E948A
:103B2000E41C82E50E94E41C80E20E94E41C89E41B
:103B30000E94E41C83E50E94E41C80E50E94E41CD2
:103B400080E10E94E41CA3CF0E94B81C8638C8F212
:103B50000E94B81C0E94EC1C9ACF0E94B81C8038AE
:103B600009F4F7C0813809F4F8C0823809F4F9C0C3
:103B7000883909F4BDC080E00E94051D88CF84E12A
:103B80000E94231D0E94EC1C82CF85E00E94231D11
:103B90000E94EC1C7CCF0E94B81C809309020E94FA
:103BA000B81C8093080280910C028E7F80930C02D7
:103BB0000E94B81C853409F4C6C080910802909117
:103BC0000902892B09F0ADC00E94B81C803209F0AF
:103BD00088CF80910C0280FFC8C08091080290912C
:103BE00009020097D1F02091060130910701E8E029
:103BF000F1E0AC014E0F5F1FF999FECF32BD21BD40
:103C0000819180BDFA9AF99A2F5F3F4F4E175F0757
:103C100099F7309307012093060184E10E94E41C88
:103C200080E10E94E41C33CF0E94B81C80930601FF
:103C30000E94B81C809307010E94EC1C28CF84E0EE
:103C40000E94231D80E00E94051D21CF0E94B81C08
:103C5000809309020E94B81C809308020E94B81C3D
:103C6000853409F4F4C080910C028E7F80930C029D
:103C70008091060190910701880F991F9093070189
:103C8000809306010E94B81C803209F000CF84E1C5
:103C90000E94E41C2091080230910902211531058F
:103CA00019F1C0E0D0E0E0910601F09107018091A8
:103CB0000C0280FFC4C0F999FECFF2BDE1BDF89AB5
:103CC00080B50E94E41CE0910601F0910701319655
:103CD000F0930701E0930601209108023091090258
:103CE0002196C217D30718F380E10E94E41CCFCEBF
:103CF00083E00E94051DCBCE0E94B81C803209F0E3
:103D0000F0CE84E10E94E41C8EE10E94E41C84E970
:103D10000E94E41C86E00E94E41C80E10E94E41CF6
:103D2000B6CEC0E0D0E008E011E00E94B81CF80177
:103D300081938F0121968091080290910902C81702
:103D4000D90798F341CF80910C02816080930C02D7
:103D500034CF82E00E94051D9ACE81E00E94051DAD
:103D600096CE80E10E94051D92CE8091070187FDCD
:103D700080C010920B028091060190910701880F7C
:103D8000991F90930701809306018091080280FF9C
:103D900009C080910802909109020196909309024E
:103DA00080930802F894F999FECF1127E09106015B
:103DB000F0910701C8E0D1E08091080290910902DA
:103DC000103091F40091570001700130D9F303E0F5
:103DD00000935700E8950091570001700130D9F326
:103DE00001E100935700E895099019900091570060
:103DF00001700130D9F301E000935700E895139565
:103E0000103498F011270091570001700130D9F358
:103E100005E000935700E8950091570001700130CC
:103E2000D9F301E100935700E8953296029709F023
:103E3000C7CF103011F00296E5CF1124EECE81FFEE
:103E40000CC03196F0930701E093060149CF8091B1
:103E50000C02816080930C0215CF84910E94E41CB7
:103E60002091080230910902E0910601F0910701CA
:103E7000E8CF81E080930B027ECF0F931F930E94C7
:103E8000B81C182F0E94E41C0E94B81C082F0E9426
:103E9000E41C11362CF0175501363CF0075508C0CC
:103EA0001033D4F310530136CCF700330CF0005329
:103EB0001295107F100F812F992787FD90951F91E4
:103EC0000F9108951F93282F992787FD9095807F44
:103ED00090709595879595958795959587959595E6
:103EE00087958A304CF0982F995A822F8F708A309C
:103EF0004CF0182F195A08C0982F905D822F8F70A0
:103F00008A30BCF7182F105D892F0E94E41C812F86
:083F10000E94E41C1F910895BA
:023F1800800027
:0400000300003800C1
:00000001FF