:100000000C9434000C9451000C9451000C94510049
:100010000C9451000C9451000C9451000C9451001C
:100020000C9451000C9451000C9451000C9451000C
:100030000C9451000C9453000C9451000C945100FA
:100040000C9451000C9451000C9451000C945100EC
:100050000C9451000C9451000C9451000C945100DC
:100060000C9451000C94510011241FBECFEFD4E02A
:10007000DEBFCDBF21E0A4E0B1E001C01D92AC30F5
:10008000B207E1F711E0A0E0B1E0EEE7FEE002C068
:1000900005900D92A430B107D9F70E94C6010C94C7
:1000A0003D070C9400001F920F920FB60F9211247F
:1000B0002F933F934F935F936F937F938F939F9370
:1000C000AF93BF93EF93FF93F89488EC90E09093F5
:1000D00006018093050180910701882371F08091CA
:1000E0000B018F3F39F080910B0187BD8F5F8093AB
:1000F0000B0115C01092070112C080910B018823DB
:1001000039F080910B0187BD815080930B0107C0AE
:1001100081E0809307018091840080930B0180919E
:100120000401882371F080910A018F3F39F080919A
:100130000A0188BD8F5F80930A011AC010920401E2
:1001400017C080910A01882339F080910A0188BD87
:10015000815080930A010CC081E0809304010E94C9
:100160001A0791E08F3F08F490E0980F90930A01EE
:1001700080910801882379F0809109018F3F41F037
:10018000809109018093B4008F5F8093090116C0AC
:100190001092080113C080910901882341F08091D9
:1001A00009018093B40081508093090107C081E068
:1001B0008093080180918500809309017894FF91D4
:1001C000EF91BF91AF919F918F917F916F915F91CF
:1001D0004F913F912F910F900FBE0F901F90189548
:1001E0004F925F926F927F928F929F92AF92BF9247
:1001F000CF93DF935B0182959295907F9827807FC4
:1002000098279C0140E050E060E070E880E790E0D3
:100210000E947F06822F932F1092850010928400F7
:100220003093870020938600969587959093890058
:1002300080938800E1E8F0E0808182608083B501EE
:1002400080E090E00E9466052B013C0126E636E640
:1002500046EE54E40E94F405D62FC72F882E992E1F
:1002600020E030E040E85FE30E94360588234CF14F
:1002700020E03FEF4FE757E46D2F7C2F882D992D1D
:100280000E94F0051816B4F420E030E040E251E49A
:10029000C301B2010E94F4050E943A05611571057F
:1002A000A9F028EB30E0C9010197F1F7615071091D
:1002B000D1F70CC06D2F7C2F882D992D0E943A0507
:1002C00002C061E070E0CB010197F1F7E1E8F0E0F6
:1002D00080818D7F80839501ADECBCEC0E949B06F4
:1002E0009695879596958795BC0180E090E00E9451
:1002F00066054B015C0126E636E646EE54E40E94B4
:10030000F405462E572E682E792E20E030E040E886
:100310005FE30E94360588234CF120E03FEF4FE772
:1003200057E4642D752D862D972D0E94F005181623
:10033000B4F420E030E040E251E4C501B4010E9491
:10034000F4050E943A0561157105A9F028EB30E02B
:10035000C9010197F1F761507109D1F70CC0642D03
:10036000752D862D972D0E943A0502C061E070E040
:10037000CB010197F1F7DF91CF91BF90AF909F90A4
:100380008F907F906F905F904F9008958FEF8AB914
:100390001BB88EEF84B915B881E080937E0093EA94
:1003A00094BD93E095BD16BC17BC18BC20EC2093FF
:1003B000800020E12093810080936F0021E2209350
:1003C000B0009093B1001092B2001092B4008093EC
:1003D00007010E941A0791E08F3F08F490E0980F00
:1003E00090930A0181E0809304010E941A0791E032
:1003F0008F3F08F490E0980F9093090181E080937B
:10040000080178940F2EF3E0BF2EF02DCCEADDE04A
:1004100008EB10E0FF24F394CC2EDD2EE12CAB2C66
:100420006091050170910601645D7E4F88E891E05E
:100430000E94F00060910501709106016C597F4F98
:1004400088EB91E00E94F000609105017091060137
:100450006C507E4F8BE092E00E94F00060910501AD
:10046000709106016E537E4F8BE092E00E94F00087
:10047000609105017091060162587B4F8FE093E017
:100480000E94F0006091050170910601625A7E4F52
:1004900080E793E00E94F0006091050170910601F1
:1004A000625A7E4F80E793E00E94F0006091050160
:1004B000709106016A567F4F80E793E00E94F0003A
:1004C000609105017091060162587B4F8FE093E0C7
:1004D0000E94F00060910501709106016E537E4FFD
:1004E0008AEB92E00E94F000609105017091060194
:1004F000645D7E4F8AEB92E00E94F00060910501FE
:100500007091060166507F4F8AEB92E00E94F000E6
:10051000609105017091060162587B4F83E992E07A
:100520000E94F0006091050170910601685A7D4FAC
:100530008BE492E00E94F000609105017091060149
:1005400061557F4F83E992E00E94F00060910501C0
:10055000709106016C597F4F8BE492E00E94F0008D
:100560006091050170910601665E7B4F8BE092E021
:100570000E94F00060910501709106016A5D7D4F57
:100580008BE092E00E94F0006091050170910601FD
:1005900061557F4F8BE092E00E94F0006091050171
:1005A000709106016C597F4F8BE092E00E94F00041
:1005B00060910501709106016C597F4F8BE092E0CC
:1005C0000E94F00060910501709106016A567F4F0C
:1005D0008BE092E00E94F0006091050170910601AD
:1005E0006C5E7A4F8BE092E00E94F0006091050112
:1005F00070910601685A7D4F8BE092E00E94F000F6
:10060000609105017091060168537F4F8EEE91E075
:100610000E94F00068EC70E08BE092E00E94F00035
:10062000609105017091060168537F4F8BE492E061
:100630000E94F000AA2009F484C060910501709125
:100640000601605C794F8BE092E00E94F00083E04D
:10065000A81297C08C2D9D2DF8013197F1F70197C5
:10066000D9F760910501709106016A5D7D4F8BE0BD
:1006700092E00E94F00060910501709106016155C1
:100680007F4F8BE092E00E94F00060910501709135
:1006900006016C597F4F8BE092E00E94F000609160
:1006A0000501709106016C597F4F8BE092E00E942A
:1006B000F00060910501709106016A567F4F8BE052
:1006C00092E00E94F00060910501709106016C5E5D
:1006D0007A4F8BE092E00E94F000609105017091EA
:1006E0000601605E7C4F8BE092E00E94F00060911A
:1006F00005017091060160577E4F8EEE91E00E94D9
:10070000F0006091050170910601645D7E4F8BE001
:1007100092E00E94F0006091050170910601645D15
:100720007E4F8BE492E00E94F00060910501709191
:1007300006016450774F8BE092E00E94F000AE2CEF
:100740006FCE6091050170910601645B7B4F83E978
:1007500092E00E94F0006091050170910601605ED8
:100760007C4F83E992E00E94F00060910501709156
:100770000601605C794F8BE492E00E94F000AF2CA0
:100780004FCECE01F8013197F1F70197D9F760917B
:100790000501709106016E537E4F8BE092E00E943E
:1007A000F00060910501709106016A567F4F8BE45D
:1007B00092E00E94F00060910501709106016E5C6C
:1007C0007F4F8BE492E00E94F000609105017091F0
:1007D00006016E5C7F4F8BE492E00E94F000609116
:1007E0000501709106016F5F7F4F8BE492E00E94DC
:1007F000F000609105017091060168517C4F8BE417
:1008000092E00E94F00060910501709106016E5324
:100810007E4F88E891E00E94F000609105017091A0
:1008200006016A567F4F83E992E00E94F0006091D2
:100830000501709106016E5C7F4F83E992E00E9492
:10084000F00060910501709106016E5C7F4F83E9B5
:1008500092E00E94F00060910501709106016F5FC7
:100860007F4F83E992E00E94F00060910501709152
:10087000060168517C4F83E992E00E94F00060918C
:10088000050170910601625A7E4F8BE092E00E9452
:10089000F000609105017091060166507F4F8BE476
:1008A00092E00E94F00060910501709106016C5980
:1008B0007F4F8BE492E00E94F000609105017091FF
:1008C0000601655B7F4F8BE492E00E94F00060912F
:1008D000050170910601625A7E4F8BE492E00E94FE
:1008E000F00060910501709106016A567F4F8BE020
:1008F00092E00E94F000609105017091060166503F
:100900007F4F8BE492E00E94F000609105017091AE
:10091000060168517C4F83E992E00E94F0006091EB
:1009200005017091060166507F4F83E992E00E94B5
:10093000F000609105017091060161557F4F8FE0D5
:1009400093E00E94F00060910501709106016E53E2
:100950007E4F80E793E00E94F00060910501709166
:1009600006016C597F4F80E793E00E94F000609190
:100970000501709106016A567F4F83E992E00E945B
:10098000F000609105017091060168517C4F8FE085
:1009900093E00E94F00060910501709106016C598E
:1009A0007F4F80E793E00E94F00060910501709115
:1009B00006016E5C7F4F80E793E00E94F00060913B
:1009C0000501709106016A567F4F83E992E00E940B
:1009D000F000609105017091060168517C4F8FE035
:1009E00093E00E94F00060910501709106016C593E
:1009F0007F4F80E793E00E94F000609105017091C5
:100A000006016E5C7F4F80E793E00E94F0006091EA
:100A10000501709106016A567F4F83E992E00E94BA
:100A2000F000609105017091060168517C4F8FE0E4
:100A300093E00E94F00060910501709106016E53F1
:100A40007E4F8AEB92E00E94F0006AE872E083E950
:100A500092E00E94F00060910501709106016C5EC9
:100A60007A4F8BE492E00E94F000D9CC6CD008F46D
:100A700081E0089594D088F09F5790F0B92F99277E
:100A8000B751A0F0D1F0660F771F881F991F1AF099
:100A9000BA95C9F712C0B13081F09BD0B1E008958A
:100AA00098C0672F782F8827B85F39F0B93FCCF30B
:100AB000869577956795B395D9F73EF4909580958F
:100AC000709561957F4F8F4F9F4F0895E89409C0AF
:100AD00097FB3EF490958095709561957F4F8F4F71
:100AE0009F4F9923A9F0F92F96E9BB279395F69587
:100AF000879577956795B795F111F8CFFAF4BB0F05
:100B000011F460FF1BC06F5F7F4F8F4F9F4F16C068
:100B1000882311F096E911C0772321F09EE8872FF2
:100B2000762F05C0662371F096E8862F70E060E0AE
:100B30002AF09A95660F771F881FDAF7880F969527
:100B4000879597F90895990F0008550FAA0BE0E8CB
:100B5000FEEF16161706E807F907C0F0121613067F
:100B6000E407F50798F0621B730B840B950B39F4BF
:100B70000A2661F0232B242B252B21F408950A2625
:100B800009F4A140A6958FEF811D811D089557FDA1
:100B90009058440F551F59F05F3F71F04795880FEB
:100BA00097FB991F61F09F3F79F087950895121682
:100BB00013061406551FF2CF4695F1DF08C016162E
:100BC00017061806991FF1CF8695710561050894DF
:100BD0000895E894BB2766277727CB0197F90895F6
:100BE000B2DF08F48FEF08950BD078C069D028F0F9
:100BF0006ED018F0952309F05AC05FC01124EACFD7
:100C0000C6DFA0F3959FD1F3950F50E0551F629F6B
:100C1000F001729FBB27F00DB11D639FAA27F00D55
:100C2000B11DAA1F649F6627B00DA11D661F829F7C
:100C30002227B00DA11D621F739FB00DA11D621F61
:100C4000839FA00D611D221F749F3327A00D611D7E
:100C5000231F849F600D211D822F762F6A2F112460
:100C60009F5750408AF0E1F088234AF0EE0FFF1FB3
:100C7000BB1F661F771F881F91505040A9F79E3FEA
:100C8000510570F014C0A6CF5F3FECF3983EDCF343
:100C9000869577956795B795F795E7959F5FC1F727
:100CA000FE2B880F911D9695879597F9089597F9D2
:100CB0009F6780E870E060E008959FEF80EC089502
:100CC00000240A941616170618060906089500242B
:100CD0000A9412161306140605060895092E0394A5
:100CE000000C11F4882352F0BB0F40F4BF2B11F419
:100CF00060FF04C06F5F7F4F8F4F9F4F0895052E99
:100D000097FB16F4009407D057FD0DD00E94A7065C
:100D100007FC09D07EF490958095709561957F4F82
:100D20008F4F9F4F089550954095309521953F4F97
:100D30004F4F5F4F0895A29FB001B39FC001A39F83
:100D400001D0B29F700D811D1124911D0895A1E263
:100D50001A2EAA1BBB1BFD010DC0AA1FBB1FEE1F35
:100D6000FF1FA217B307E407F50720F0A21BB30B80
:100D7000E40BF50B661F771F881F991F1A9469F7FC
:100D800060957095809590959B01AC01BD01CF0158
:100D900008958F929F92AF92BF92CF92DF92EF927F
:100DA000FF92CF93DF93EC01688179818A819B81E7
:100DB000611571058105910521F464E279ED8BE5FA
:100DC00097E02DE133EF41E050E00E947F064901BA
:100DD0005A019B01AC01A7EAB1E40E942A076B010A
:100DE0007C01ACEEB4EFA50194010E943807C60E59
:100DF000D71EE81EF91EF7FE06C081E0C81AD1080A
:100E0000E10880E8F80AC882D982EA82FB82E89485
:100E1000D7F8EE24FF24C601DF91CF91FF90EF9029
:100E2000DF90CF90BF90AF909F908F9008950E94D9
:100E3000C906089580E091E00E94C9060895A0E0E7
:100E4000B0E08093000190930101A0930201B09360
:100E5000030108950E949B06A59F900DB49F900DDD
:100E6000A49F800D911D11240895B7FF0C942A07AB
:0E0E70000E942A07821B930B0895F894FFCF6F
:040E7E00010000006F
:00000001FF
