:1000000012C019C018C017C016C015C014C013C044
:1000100012C011C010C00FC00EC00DC00CC00BC06C
:100020000AC009C008C011241FBECFE5D4E0DEBF5E
:10003000CDBF1DD031C0E4CF0895982F9F7398BBDA
:1000400087FF02C0AB9A01C0AB9886FF02C0AA9A94
:10005000089585B3847085BB08958FEF87BB18BA68
:100060009CE094BB93EF95BB11BA82BB08951F939C
:10007000CF93DF93F2DF11E003C0812FDEDF110F9A
:100080001123D9F7C8E0D0E010E8812FD6DF16950C
:0C0090002197D9F711E0F1CFF894FFCFD1
:00000001FF
