:100000000C94A5000C94CD000C94CD000C94CD0064
:100010000C94CD000C94CD000C94CD000C94CD002C
:100020000C94CD000C94CD000C94CD000C94CD001C
:100030000C94CD000C94CD000C94CD000C94CD000C
:100040000C94CD000C94CD000C94D3020C94CD00F4
:100050000C94BA050C94EC050C94CD000C94CD00D6
:100060000C94CD000C94CD000C94CD000C94CD00DC
:100070000C94CD000C94CD000C94CD006C6F6E6789
:10008000486F6C64436C69636B4576656E74203DA4
:10009000203400686F6C64436C69636B4576656EF1
:1000A00074203D203300646F75626C65436C696336
:1000B0006B4576656E74203D203200636C69636B1E
:1000C0004576656E74203D2031000000000102007D
:1000D000000000000000040308070000000000000A
:1000E00000000000000000000000010204081020D1
:1000F0004080010204081020408001020408102002
:100100004080010204081020408002020202020224
:1001100002020404040404040404030303030303A9
:10012000030301010101010101010000200023007E
:100130002600290000002200250028002B000000D6
:100140002100240027002A001C0611241FBECFEF27
:10015000D0E1DEBFCDBF11E0A0E0B1E0E2E6F3E127
:1001600002C005900D92AE34B107D9F721E0AEE49C
:10017000B1E001C01D92AE3FB207E1F710E0C5EA61
:10018000D0E004C02197FE010E949009C43AD10733
:10019000C9F70E944A060C94AF090C9400000F9313
:1001A0001F93CF93DF938BE00E945A0421E0892BA9
:1001B00009F420E020930A01211164C08091090113
:1001C000882309F45FC00E941D0300910001109173
:1001D00001012091020130910301AB01BC01401BE0
:1001E000510B620B730B8091110190911201092E3A
:1001F000000CAA0BBB0B84179507A607B70708F0DE
:1002000041C00E941D036093040170930501809317
:100210000601909307011092510110925001C1E024
:10022000C093080110924F0110924E010E941D03CD
:100230000091000110910101209102013091030110
:10024000AB01BC01401B510B620B730B80910F0182
:1002500090911001092E000CAA0BBB0B48175907EF
:100260006A077B0708F087C080915201811183C023
:1002700080915301882309F47EC0C09352011092EB
:10028000530109C080910A01882329F08091090156
:10029000882309F452C0C0E0D0E080910A0188238D
:1002A00049F10E941D03009100011091010120916C
:1002B000020130910301AB01BC01401B510B620BE9
:1002C000730B80910F0190911001092E000CAA0B65
:1002D000BB0B481759076A077B0760F080915301F1
:1002E000882341F080915201811104C0809108015E
:1002F000811163C080910A0181119BC00E941D037E
:10030000009104011091050120910601309107012F
:10031000AB01BC01401B510B620B730B80910D01B3
:1003200090910E01092E000CAA0BBB0B4817590720
:100330006A077B0708F046C07CC00E941D0300913D
:100340000401109105012091060130910701AB01D4
:10035000BC01401B510B620B730B809111019091FA
:100360001201092E000CAA0BBB0B84179507A607D8
:10037000B70720F090CF1092520181CF80915101A8
:10038000811189CF0E941D036093000170930101C8
:10039000809302019093030180915201811104C066
:1003A00081E08093530177CF109252011092530154
:1003B00010920801C2E0D0E070CF10925301C1E06A
:1003C000D0E098CF80914F0181110DC081E08093E2
:1003D0005001809351011092520110925301809369
:1003E0004F01C3E0D0E00E941D0300910401109171
:1003F00005012091060130910701AB01BC01401BB2
:10040000510B620B730B80910B0190910C01092E23
:10041000000CAA0BBB0B481759076A077B0748F06B
:1004200080914E01811105C081E080934E01C4E0AE
:10043000D0E080910A0180930901CE01DF91CF9134
:100440001F910F91089526E040E056E960E070E0CA
:100450008DE591E00E945A0560E08BE00E94EE037A
:1004600061E08BE00E942A0468EE73E080E090E097
:100470000E944E0369E171E08DE591E00C94A706BE
:10048000BC018DE591E00C94AD06CF93DF9300D0D5
:1004900000D000D0CDB7DEB76BEB70E0CE01019697
:1004A0000E944E07CE0101960E944002CE010196A5
:1004B0000E94BF0626960FB6F894DEBF0FBECDBFD2
:1004C000DF91CF910895CF93DF9300D000D000D07B
:1004D000CDB7DEB766EA70E0CE0101960E944E0706
:1004E000CE0101960E944002CE0101960E94BF06F5
:1004F00026960FB6F894DEBF0FBECDBFDF91CF9129
:100500000895CF93DF9300D000D000D0CDB7DEB7F1
:1005100063E970E0CE0101960E944E07CE0101967C
:100520000E944002CE0101960E94BF0626960FB699
:10053000F894DEBF0FBECDBFDF91CF910895CF936A
:10054000DF9300D000D000D0CDB7DEB76CE770E00D
:10055000CE0101960E944E07CE0101960E944002F4
:10056000CE0101960E94BF0626960FB6F894DEBF14
:100570000FBECDBFDF91CF9108950E94CF00813093
:10058000910511F40C9445028230910511F40C94FC
:1005900063028330910511F40C948102049711F4E5
:1005A0000C949F0208951F920F920FB60F92112480
:1005B0002F933F938F939F93AF93BF938091550158
:1005C00090915601A0915701B0915801309154017A
:1005D00026E0230F2D3720F40296A11DB11D05C082
:1005E00029E8230F0396A11DB11D20935401809388
:1005F000550190935601A0935701B09358018091F3
:10060000590190915A01A0915B01B0915C01019652
:10061000A11DB11D8093590190935A01A0935B01D4
:10062000B0935C01BF91AF919F918F913F912F91BA
:100630000F900FBE0F901F9018952FB7F8946091F0
:1006400055017091560180915701909158012FBF2B
:1006500008953FB7F8948091590190915A01A09163
:100660005B01B0915C0126B5A89B05C02F3F19F036
:100670000196A11DB11D3FBFBA2FA92F982F882722
:10068000820F911DA11DB11DBC01CD0143E0660F7C
:10069000771F881F991F4A95D1F708958F929F92CF
:1006A000AF92BF92CF92DF92EF92FF926B017C01EB
:1006B0000E9429034B015C01C114D104E104F1043F
:1006C00001F10E9457070E942903DC01CB01881920
:1006D0009909AA09BB09883E9340A105B10560F3B9
:1006E00021E0C21AD108E108F10888EE880E83E003
:1006F000981EA11CB11CC114D104E104F10419F726
:10070000DBCFFF90EF90DF90CF90BF90AF909F90A6
:100710008F900895789484B5826084BD84B581609B
:1007200084BD85B5826085BD85B5816085BDEEE6F9
:10073000F0E0808181608083E1E8F0E010828081D8
:1007400082608083808181608083E0E8F0E0808146
:1007500081608083E1EBF0E0808184608083E0EB66
:10076000F0E0808181608083EAE7F0E0808184604E
:1007700080838081826080838081816080838081AA
:10078000806880831092C1000895833081F028F43E
:10079000813099F08230A1F008958730A9F0883037
:1007A000B9F08430D1F4809180008F7D03C08091B6
:1007B00080008F7780938000089584B58F7702C082
:1007C00084B58F7D84BD08958091B0008F7703C07C
:1007D0008091B0008F7D8093B0000895CF93DF9318
:1007E00090E0FC01E651FF4F2491FC01E65FFE4FD3
:1007F0008491882361F190E0880F991FFC01E25CED
:10080000FE4FC591D491FC01EC5CFE4FA591B491D3
:10081000611109C09FB7F89488812095822388834D
:10082000EC912E230BC0623061F49FB7F8943881AD
:10083000822F809583238883EC912E2B2C939FBF4E
:1008400006C08FB7F894E8812E2B28838FBFDF91E5
:10085000CF9108951F93CF93DF93282F30E0F901B4
:10086000E653FF4F8491F901E651FF4FD491F9010E
:10087000E65FFE4FC491CC23C9F0162F81110E9470
:10088000C503EC2FF0E0EE0FFF1FEC5CFE4FA591CF
:10089000B4918FB7F894111105C09C91ED2FE0959C
:1008A000E92302C0EC91ED2BEC938FBFDF91CF9148
:1008B0001F910895CF93DF93282F30E0F901E6537D
:1008C000FF4F8491F901E651FF4FD491F901E65FA2
:1008D000FE4FC491CC2391F081110E94C503EC2FEF
:1008E000F0E0EE0FFF1FE65DFE4FA591B491EC9195
:1008F000ED2381E090E021F480E002C080E090E010
:10090000DF91CF910895FC01918D228D892F90E088
:10091000805C9F4F821B91098F7399270895FC017A
:10092000918D828D981731F0828DE80FF11D858DA4
:1009300090E008958FEF9FEF0895FC01918D828DD7
:10094000981761F0828DDF01A80FB11D5D968C9123
:10095000928D9F5F9F73928F90E008958FEF9FEF2E
:10096000089582E196E0892B41F080E090E0892BA8
:1009700021F00E94120681110DC080E090E0892BC9
:1009800071F080E090E0892B51F00E94000081110D
:1009900004C008950E940000F0CF0C940000089558
:1009A000FC01848DDF01A80FB11DA35ABF4F2C910C
:1009B000848D90E001968F739927848FA689B789DB
:1009C0002C93A089B1898C9180648C93938D848DB4
:1009D000981306C00288F389E02D80818F7D808383
:1009E0000895CF93DF93EC01888D8823C9F0EA89BD
:1009F000FB89808185FD05C0A889B9898C9186FD18
:100A00000FC00FB607FCF5CF808185FFF2CFA88914
:100A1000B9898C9185FFEDCFCE010E94D004E7CF3C
:100A2000DF91CF910895EF92FF920F931F93CF9391
:100A3000DF93EC0181E0888F9B8D8C8D981305C02E
:100A4000E889F989808185FD24C0F62E0B8D10E0A0
:100A50000F5F1F4F0F731127E02E8C8DE8120CC013
:100A60000FB607FCFACFE889F989808185FFF5CFB9
:100A7000CE010E94D004F1CF8B8DFE01E80FF11D55
:100A8000E35AFF4FF0820B8FEA89FB8980818062F5
:100A900007C0EE89FF896083E889F98980818064D5
:100AA000808381E090E0DF91CF911F910F91FF90C3
:100AB000EF900895CF92DF92EF92FF921F93CF9322
:100AC000DF93EC016A017B01122F60E874E88EE18C
:100AD00090E0A70196010E946E09DA01C901019711
:100AE000A109B109B695A79597958795AC01E889B5
:100AF000F98982E08083411580E15807A8F0E889F0
:100B0000F989108260E472E48FE090E0A701960119
:100B10000E946E09BA01A901415051096109710988
:100B20007695679557954795EC85FD855083EE85BD
:100B3000FF854083188EEC89FD891083EA89FB8943
:100B4000808180618083EA89FB89808188608083DD
:100B5000EA89FB89808180688083EA89FB898081BA
:100B60008F7D8083DF91CF911F91FF90EF90DF9079
:100B7000CF9008951F920F920FB60F9211242F93CA
:100B80008F939F93EF93FF93E0916D01F0916E012E
:100B90008081E0917301F091740182FD12C0908117
:100BA000809176018F5F8F7320917701821751F0CA
:100BB000E0917601F0E0E35AFE4F958F8093760145
:100BC00001C08081FF91EF919F918F912F910F90A4
:100BD0000FBE0F901F9018951F920F920FB60F9295
:100BE00011242F933F934F935F936F937F938F9332
:100BF0009F93AF93BF93EF93FF938DE591E00E9496
:100C0000D004FF91EF91BF91AF919F918F917F9110
:100C10006F915F914F913F912F910F900FBE0F9069
:100C20001F9018958DE591E00E94830421E0892BA7
:100C300009F420E0822F0895EDE5F1E0138212829D
:100C400088EE93E0A0E0B0E084839583A683B78329
:100C500081E391E09183808385EC90E095878487A0
:100C600084EC90E09787868780EC90E0918B808B76
:100C700081EC90E0938B828B82EC90E0958B848B5F
:100C800086EC90E0978B868B118E128E138E148ECD
:100C9000089508950E948A030E9449060E94230233
:100CA000C1EBD4E00E94BD022097E1F30E94B104A1
:100CB000F9CFCF92DF92EF92FF920F931F93CF93D2
:100CC000DF936C017A018B01C0E0D0E0CE15DF0527
:100CD00089F0D8016D918D01D601ED91FC910190C3
:100CE000F081E02DC6010995892B11F47E0102C027
:100CF0002196ECCFC701DF91CF911F910F91FF900B
:100D0000EF90DF90CF9008956115710579F0FB01A8
:100D100001900020E9F73197AF01461B570BDC012A
:100D2000ED91FC910280F381E02D099480E090E048
:100D30000895DC01ED91FC91DB0114964D915C91DD
:100D400015976D917C910280F381E02D09940C94AC
:100D500084066DE371E00C9484060F931F93CF9388
:100D6000DF93EC010E9499068C01CE010E94A90636
:100D7000800F911FDF91CF911F910F910895FC017A
:100D8000808191810C94ED07CF93DF93EC018881F2
:100D90009981009711F00E94ED07198218821D8237
:100DA0001C821B821A82DF91CF9108950F931F93AB
:100DB000CF93DF93EC018B016F5F7F4F8881998127
:100DC0000E948508009731F0998388831B830A83EA
:100DD00081E001C080E0DF91CF911F910F910895D4
:100DE000CF93DF93EC0188819981892B29F08A8147
:100DF0009B818617970760F4CE010E94D606882350
:100E000041F08C819D81892B19F4E881F981108250
:100E100081E0DF91CF910895EF92FF920F931F939E
:100E2000CF93DF93EC017B018A01BA010E94F006A7
:100E3000811104C0CE010E94C40607C01D830C832B
:100E4000B701888199810E949609CE01DF91CF91E7
:100E50001F910F91FF90EF9008950F931F93CF93E1
:100E6000DF9300D0CDB7DEB78C016115710561F05D
:100E7000CB0169837A830E949D09AC0169817A81E3
:100E8000C8010E940C0702C00E94C406C8010F904E
:100E90000F90DF91CF911F910F910895FC01118266
:100EA000108213821282158214820C942D070895E9
:100EB000CF93DF938230910510F482E090E0E091CF
:100EC000FC01F091FD0120E030E0C0E0D0E030977F
:100ED00011F14081518148175907C0F0481759074F
:100EE00061F482819381209719F09B838A832BC0C0
:100EF0009093FD018093FC0126C02115310519F066
:100F00004217530718F49A01BE01DF01EF01028076
:100F1000F381E02DDCCF2115310509F1281B390BB8
:100F20002430310590F412968D919C9113976115A0
:100F3000710521F0FB019383828304C09093FD012E
:100F40008093FC01FD01329644C0FD01E20FF31FC6
:100F500081939193225031092D933C933AC0209173
:100F6000FA013091FB01232B41F4209115013091BE
:100F700016013093FB012093FA0120911301309167
:100F800014012115310541F42DB73EB740911701E9
:100F900050911801241B350BE091FA01F091FB01EF
:100FA000E217F307A0F42E1B3F0B2817390778F040
:100FB000AC014E5F5F4F2417350748F04E0F5F1F9F
:100FC0005093FB014093FA018193919302C0E0E0BA
:100FD000F0E0CF01DF91CF9108950F931F93CF934E
:100FE000DF93009709F48CC0FC01329713821282C0
:100FF0000091FC011091FD010115110581F4208182
:101000003181820F931F2091FA013091FB01281743
:10101000390779F5F093FB01E093FA0171C0D8012B
:1010200040E050E0AE17BF0750F412962D913C916E
:101030001397AD012115310509F1D901F3CF9D01B8
:10104000DA013383228360817181860F971F8217B3
:10105000930769F4EC0128813981260F371F2E5F31
:101060003F4F318320838A819B8193838283452BE9
:1010700029F4F093FD01E093FC0142C01396FC9328
:10108000EE931297ED01499159919E01240F351F5E
:10109000E217F30771F480819181840F951F029606
:1010A00011969C938E938281938113969C938E9339
:1010B0001297E0E0F0E0D80112968D919C91139781
:1010C000009719F0F8018C01F6CF8D919C91980151
:1010D0002E5F3F4F820F931F2091FA013091FB0149
:1010E0002817390769F4309729F41092FD011092FE
:1010F000FC0102C0138212821093FB010093FA01DB
:10110000DF91CF911F910F9108956F927F928F92EF
:101110009F92AF92BF92CF92DF92EF92FF920F9386
:101120001F93CF93DF93EC01009789F4CB01DF91FC
:10113000CF911F910F91FF90EF90DF90CF90BF90D4
:10114000AF909F908F907F906F900C945807FC0108
:10115000E60FF71F9C0122503109E217F30708F44C
:10116000ACC0D9010D911C91119706171707B0F06B
:101170000530110508F49FC0C8010497861797072A
:1011800008F499C002501109061B170B0193119323
:101190006D937C93CF010E94ED078DC05B01A01A77
:1011A000B10A4C01800E911EA091FC01B091FD018D
:1011B00040E050E0E12CF12C109709F44AC0A8154A
:1011C000B905D1F56D907C901197630182E0C80E4E
:1011D000D11CCA14DB0480F1A3014A195B096A011E
:1011E00082E0C80ED11C1296BC9012971396AC9157
:1011F000B5E0CB16D10440F0B282A3835183408383
:10120000D9016D937C930AC00E5F1F4FC301800FFD
:10121000911FF90191838083EB2DFA2FE114F104E2
:1012200031F0D7011396FC93EE93129744C0F093DC
:10123000FD01E093FC013FC08D919C9111974817EF
:10124000590708F4AC017D0112960D90BC91A02DB8
:10125000B3CF8091FA019091FB0188159905E1F4D3
:1012600046175707C8F48091130190911401009715
:1012700041F48DB79EB74091170150911801841B1E
:10128000950BE817F907C8F4F093FB01E093FA0116
:10129000F901718360830FC0CB010E9458077C0164
:1012A000009759F0A801BE010E94A609CE010E9434
:1012B000ED07C70104C0CE0102C080E090E0DF91DD
:1012C000CF911F910F91FF90EF90DF90CF90BF9043
:1012D000AF909F908F907F906F900895A1E21A2E0B
:1012E000AA1BBB1BFD010DC0AA1FBB1FEE1FFF1FCA
:1012F000A217B307E407F50720F0A21BB30BE40B1A
:10130000F50B661F771F881F991F1A9469F7609560
:101310007095809590959B01AC01BD01CF0108951A
:10132000EE0FFF1F0590F491E02D0994FB01DC0105
:1013300005900D920020E1F70895FC010590002032
:10134000E9F7809590958E0F9F1F0895FB01DC01B2
:1013500002C001900D9241505040D8F70895F89482
:02136000FFCFBD
:10136200FFFFFFFFFFFFFFFF0101018813D007C846
:101372000014000000FE0180005374617220746F3B
:1013820020427574746F6E205465737400000000FF
:10139200001305590683049D048F04F1040D0A000D
:0E13A2006E616E00696E66006F7666002E004A
:00000001FF
