:100000000C9434000C9451000C9451000C94510049
:100010000C9451000C9451000C9451000C9451001C
:100020000C9451000C9451000C9451000C9451000C
:100030000C9451000C94D8010C9451000C94510074
:100040000C9451000C9451000C9451000C945100EC
:100050000C9451000C9451000C9451000C945100DC
:100060000C9451000C94510011241FBECFEFD4E02A
:10007000DEBFCDBF11E0A0E0B1E0EAEBF6E002C0E8
:1000800005900D92AA30B107D9F711E0AAE0B1E0CE
:1000900001C01D92A031B107E1F70E9439030C9411
:1000A0005B030C9400008CE08093B8001092B900C0
:1000B000089594EA9093BC00ECEBF0E090819923D2
:1000C000ECF79091B900987F983009F0A8C0809320
:1000D000BB0084E88093BC00ECEBF0E080818823D7
:1000E000ECF78091B900887F883109F09AC060935D
:1000F000BB0084E88093BC00ECEBF0E080818823B7
:10010000ECF78091B900887F883209F08CC0409369
:10011000BB0084E88093BC00ECEBF0E08081882396
:10012000ECF78091B900887F883209F07EC083E1C6
:100130008093BB0084E88093BC00ECEBF0E080810E
:100140008823ECF78091B900887F883209F06FC06E
:1001500088E18093BB0084E88093BC00ECEBF0E086
:1001600080818823ECF78091B900887F883209F07C
:1001700060C085E08093BB0084E88093BC00ECEB1A
:10018000F0E080818823ECF78091B900887F883285
:1001900009F051C082E08093BB0084E88093BC00EA
:1001A000ECEBF0E080818823ECF78091B900887F48
:1001B000883209F042C081E18093BB0084E88093DB
:1001C000BC00ECEBF0E080818823ECF78091B90073
:1001D000887F8832A1F582E18093BB0084E8809318
:1001E000BC00ECEBF0E080818823ECF78091B90053
:1001F000887F883231F51092BB0084E88093BC0080
:10020000ECEBF0E080818823ECF78091B900887FE7
:100210008832C9F484E98093BC0080E0089581E0CD
:10022000089581E0089581E0089581E0089581E0D6
:10023000089581E0089581E0089581E0089581E0C6
:10024000089581E0089581E00895EF92FF920F9361
:100250001F93CF93DF9394EA9093BC00ECEBF0E014
:1002600090819923ECF79091B900987F983009F02C
:100270007DC0982F91509093BB0094E89093BC0060
:10028000ECEBF0E090819923ECF79091B900987F26
:10029000983109F06DC06093BB0094E89093BC0066
:1002A000ECEBF0E090819923ECF79091B900987F06
:1002B000983209F05FC0ECEBF0E094E9908394EAA7
:1002C000908390819923ECF79091B900987F9031B9
:1002D00009F052C08093BB0084E88093BC00ECEB33
:1002E000F0E080818823ECF78091B900887F80342A
:1002F00009F044C030E0215030401216130604F5D6
:10030000042FA42FB52FECEBF0E014EC0F2EF9EB3B
:10031000EF2EFF24F02D6BEB70E01083808188239B
:10032000ECF7E7018881887F803551F5EB01888102
:100330008D93AD018A2F801B90E0821793076CF399
:1003400084E88093BC00ECEBF0E080818823ECF73C
:100350008091B900887F8835A9F48091BB00FA01AB
:10036000808384E98093BC0080E00DC081E00BC0F5
:1003700081E009C081E007C081E005C081E003C0E1
:1003800081E001C081E0DF91CF911F910F91FF903B
:10039000EF900895E1E8F0E010828FE88093850007
:1003A00080E8809384001092800083E08083089529
:1003B0001F920F920FB60F9211242F933F934F93DA
:1003C0005F936F937F938F939F93AF93BF93EF93BD
:1003D000FF938FEA8093850080E8809384004A9998
:1003E00010C083EC99E00197F1F700C00000809104
:1003F0000B018F5F80930B01833018F010920B017B
:1004000059C080910B018130F1F489B1882309F43E
:1004100051C089B181ED63E04DE051E023E00E94DD
:10042000250180910D01877080930D0180910E014F
:100430008F7380930E0180910F018F7180930F0154
:1004400010920A014FC08230A9F589B1882391F139
:1004500089B183E960E04DE051E022E00E9425018E
:1004600020910E01822F82958F7090E09C01220FC7
:10047000331FC901880F991F880F991F820F931F7F
:1004800099230CF40F969595879595958795959555
:1004900087959595879580930F0180910D016AE06E
:1004A0000E944F0390930E0180930D0181E0809391
:1004B0000A0118C081ED60E04DE051E023E00E94A8
:1004C000250180910D018F7780930D0180910E01A0
:1004D0008F7780930E0180910F018F7380930F01AE
:1004E00010920A01FF91EF91BF91AF919F918F916F
:1004F0007F916F915F914F913F912F910F900FBE20
:100500000F901F901895FC016130A1F55B9880E178
:100510008EBD0DB407FEFDCF8081A0E0B1E0A80F35
:10052000B11D8C918EBD0DB407FEFDCF5B9A5B981B
:1005300080E28EBD0DB407FEFDCF8181A0E0B1E069
:10054000A80FB11D8C918EBD0DB407FEFDCF5B9A37
:100550005B9880E88EBD0DB407FEFDCF8281E0E0A0
:10056000F1E0E80FF11D80818EBD0DB407FEFDCFD7
:100570005B9A08955B9880E88EBD0DB407FEFDCFB1
:10058000A081B0E0AF70B070A050BF4F8C918EBD15
:100590000DB407FEFDCF5B9A5B9880E48EBD0DB471
:1005A00007FEFDCF808182958F70A0E0B1E0A80F9B
:1005B000B11D8C918EBD0DB407FEFDCF5B9A5B988B
:1005C00080E18EBD0DB407FEFDCFA181B0E0AF701C
:1005D000B070A050BF4F8C918EBD0DB407FEFDCF03
:1005E0005B9A5B9888E08EBD0DB407FEFDCF8181DC
:1005F00082958F70A0E0B1E0A80FB11D8C918EBDE7
:100600000DB407FEFDCF5B9A5B9882E08EBD0DB402
:1006100007FEFDCFA281B0E0AF70B070A050BF4F19
:100620008C918EBD0DB407FEFDCF5B9A5B9881E087
:100630008EBD0DB407FEFDCF828182958F70E0E004
:10064000F1E0E80FF11D80818EBD0DB407FEFDCFF6
:100650005B9A08958FEF88B917B884E08BB98CE066
:100660008AB9089584B18C6284B981E58CBD1DBCC2
:1006700008950E942A030E9432030E945300F894B6
:100680000E94CA0115BE81E080936F007894CDE08E
:10069000D1E0CE0160910A010E948302FACF991B3A
:1006A00079E004C0991F961708F0961B881F7A9569
:0A06B000C9F780950895F894FFCF74
:0A06BA003F065B4F666D7D077F6F02
:00000001FF
