:100000000C94FB020C9423030C9423030C94230301
:100010000C9423030C9423030C9423030C942303C8
:100020000C9423030C9423030C9423030C942303B8
:100030000C9423030C9423030C9423030C942303A8
:100040000C9423030C9423030C944A120C94230362
:100050000C94FE140C9430150C9423030C9423037D
:100060000C9423030C9423030C941D110C94230370
:100070000C9423030C9423030C942303000000002E
:10008000003E5B4F5B3E3E6B4F6B3E1C3E7C3E1C1E
:10009000183C7E3C181C577D571C1C5E7F5E1C0064
:1000A000183C1800FFE7C3E7FF0018241800FFE71B
:1000B000DBE7FF30483A060E2629792926407F05DE
:1000C0000507407F05253F5A3CE73C5A7F3E1C1CF4
:1000D00008081C1C3E7F14227F22145F5F005F5FB4
:1000E00006097F017F006689956A606060606094A0
:1000F000A2FFA29408047E040810207E20100808A5
:100100002A1C08081C2A08081E101010100C1E0CAF
:100110001E0C30383E3830060E3E0E060000000041
:100120000000005F00000007000700147F147F1428
:10013000242A7F2A1223130864623649562050006D
:1001400008070300001C2241000041221C002A1C59
:100150007F1C2A08083E0808008070300008080844
:100160000808000060600020100804023E51494564
:100170003E00427F400072494949462141494D3382
:100180001814127F1027454545393C4A49493141E9
:10019000211109073649494936464949291E0000B7
:1001A000140000004034000000081422411414140C
:1001B0001414004122140802015909063E415D59F8
:1001C0004E7C1211127C7F494949363E4141412201
:1001D0007F4141413E7F494949417F090909013E2B
:1001E000414151737F0808087F00417F4100204052
:1001F000413F017F081422417F404040407F021C64
:10020000027F7F0408107F3E4141413E7F0909097A
:10021000063E4151215E7F09192946264949493246
:1002200003017F01033F4040403F1F2040201F3F0C
:100230004038403F63140814630304780403615991
:10024000494D43007F4141410204081020004141D3
:10025000417F04020102044040404040000307087F
:100260000020545478407F2844443838444444287B
:10027000384444287F385454541800087E09021822
:10028000A4A49C787F0804047800447D40002040AA
:10029000403D007F1028440000417F40007C0478EE
:1002A00004787C080404783844444438FC18242436
:1002B0001818242418FC7C080404084854545424B6
:1002C00004043F44243C4040207C1C2040201C3C33
:1002D0004030403C44281028444C9090907C44642A
:1002E000544C4400083641000000770000004136BD
:1002F000080002010204023C2623263C1EA1A16143
:10030000123A4040207A3854545559215555794174
:100310002254547842215554784020545579400C49
:100320001E5272123955555559395454545939552C
:100330005454580000457C410002457D420001456F
:100340007C407D1211127DF0282528F07C54554503
:10035000002054547C547C0A097F4932494949326F
:100360003A4444443A324A4848303A4141217A3A80
:1003700042402078009DA0A07D3D4242423D3D404C
:1003800040403D3C24FF2424487E4943662B2FFCFB
:100390002F2BFF0929F620C0887E090320545479A9
:1003A000410000447D413048484A32384040227A7A
:1003B000007A0A0A727D0D19317D2629292F2826F7
:1003C0002929292630484D402038080808080808FF
:1003D0000808382F10C8ACBA2F102834FA00007B58
:1003E000000008142A142222142A1408550055006B
:1003F00055AA55AA55AAFF55FF55FF000000FF005A
:10040000101010FF00141414FF001010FF00FF1054
:1004100010F010F0141414FC001414F700FF000086
:10042000FF00FF1414F404FC141417101F10101F05
:10043000101F1414141F00101010F0000000001FF3
:10044000101010101F10101010F010000000FF10FE
:100450001010101010101010FF10000000FF1400FA
:1004600000FF00FF00001F10170000FC04F414142C
:100470001710171414F404F40000FF00F7141414F8
:1004800014141414F700F7141414171410101F1078
:100490001F141414F4141010F010F000001F101F9B
:1004A0000000001F14000000FC140000F010F01009
:1004B00010FF10FF141414FF141010101F00000080
:1004C00000F010FFFFFFFFFFF0F0F0F0F0FFFFFF84
:1004D0000000000000FFFF0F0F0F0F0F38444438DB
:1004E00044FC4A4A4A347E02020606027E027E022A
:1004F00063554941633844443C04407E201E200635
:10050000027E020299A5E7A5991C2A492A1C4C7271
:1005100001724C304A4D4D303048784830BC625AF8
:10052000463D3E494949007E0101017E2A2A2A2A88
:100530002A44445F444440514A444040444A514064
:100540000000FF0103E080FF000008086B6B083625
:1005500012362436060F090F060000181800000096
:100560001010003040FF0101001F01011E00191D85
:100570001712003C3C3C3C00000000000000000161
:100580000200000000000000040308070000000053
:10059000000000000000000000000000010204084C
:1005A000102040800102040810204080010204084D
:1005B0001020408001020408102040800202020244
:1005C00002020202040404040404040403030303F7
:1005D00003030303010101010101010100002200E5
:1005E000250028002B0000002100240027002A00FD
:1005F00026037C10601511241FBECFEFD0E1DEBFB3
:10060000CDBF15E0A0E0B1E0EAE8F3E302C0059059
:100610000D92A63BB107D9F727E0A6EBB5E001C0E4
:100620001D92AB34B207E1F712E0CBEFD2E004C089
:100630002197FE010E94B819C83FD107C9F70E944F
:100640008E150C94C3190C940000089564E086EB99
:1006500095E00C94400D26E040E855E260E070E043
:100660008EEA96E00E949E1421E04CE362E086EB65
:1006700095E00E94D30D86EB95E00E94ED0E60EDB3
:1006800077E080E090E00E94B91286EB95E00E944E
:10069000590D21E030E04AE050E06AE070E086EB7E
:1006A00095E00E94890C86EB95E00E94ED0E60EDCE
:1006B00077E080E090E00E94B91286EB95E00E941E
:1006C000590D61E086EB95E00E94B80961E070E0A9
:1006D00086EB95E00E94BE0940E050E060E070E0EB
:1006E00086EB95E00E94B20963E275E086EB95E047
:1006F0000E94EA1541E050E060E070E086EB95E092
:100700000E94C40924E030E048ED5FE069E470E451
:1007100086EB95E00E94471761E086EB95E00E942A
:10072000B80961E070E086EB95E00E94BE0961E3E4
:1007300075E086EB95E00E94DD1520E130E04FEE9C
:100740005EEB6DEA7EED86EB95E00E94521686EB3D
:1007500095E00E94ED0E60E777E180E090E00C9478
:10076000B912CF93CFB7F8948091E405811127C0D7
:10077000E0ECF5E08491E0EAF5E09491E82FF0E018
:10078000EE0FFF1FEA51FA4FA591B491EC91E923C6
:1007900021F461E084E00E94951361E084E00E940E
:1007A00059138CB580618CBD8CB580648CBD61E0C3
:1007B00087E00E94591361E085E00E9459138091FF
:1007C000E4058F5F8093E405CFBFCF9108952F920A
:1007D0003F924F925F926F927F928F929F92AF92D1
:1007E000BF92CF92DF92EF92FF920F931F93CF931E
:1007F000DF9300D01F92CDB7DEB74C017B836A83B5
:100800006A01590117019801241B350B37FF03C0FA
:10081000319521953109C5014A815B81841B950B76
:1008200097FF03C091958195910951E059838217F3
:10083000930714F019820BC09A2D8B2D5801092FA4
:10084000182F9A818B81DB82CA82C92ED82E8A8189
:100850009B81A816B9065CF49C2D8D2D6801092F8B
:10086000182F9A818B81BB82AA82A92EB82E2501CE
:10087000AA81BB814A1A5B0A38016C187D0877FE91
:1008800003C0719461947108720157FE03C0BFEFF9
:10089000EB1AFB0AF594E794C016D1061CF00FEF93
:1008A0001FEF1FC001E010E01CC0D401ED91FC91CE
:1008B000B9810084F185E02D9101BB23C1F04A810B
:1008C0005B81B601C4010995E618F708F7FE04C07C
:1008D000C00ED11EE40CF51CEA81FB813196FB832E
:1008E000EA834A815B81A416B506FCF604C0A60122
:1008F0006A817B81E7CF0F900F900F90DF91CF91AE
:100900001F910F91FF90EF90DF90CF90BF90AF902D
:100910009F908F907F906F905F904F903F902F901F
:1009200008950895DC01ED91FC910480F581E02D9E
:1009300009940F931F93DC01ED91FC91008CF18DD4
:10094000E02D09951F910F9108950F931F93DC01DE
:10095000ED91FC91028CF38DE02D09951F910F9183
:100960000895EF92FF920F931F93DC01ED91FC919C
:10097000048CF58DE02D09951F910F91FF90EF905C
:1009800008950895AF92BF92CF92DF92EF92FF92B7
:100990000F931F93CF93DF9300D000D0CDB7DEB776
:1009A0005C016901DC01ED91FC910680F781E02D8D
:1009B0004B835C8369837A830995D501ED91FC9122
:1009C0004B815C81C40ED51EB1E0CB1AD1080088E2
:1009D000F189E02D7801860169817A819B01C50149
:1009E0000995D501ED91FC910288F389E02DC501AF
:1009F0000F900F900F900F90DF91CF911F910F915B
:100A0000FF90EF90DF90CF90BF90AF900994AF929E
:100A1000BF92CF92DF92EF92FF920F931F93CF93EB
:100A2000DF9300D000D0CDB7DEB75C016901DC01F7
:100A3000ED91FC910680F781E02D4B835C83698307
:100A40007A830995D501ED91FC9169817A819B01A9
:100A50002C0D3D1D215031090088F189E02D7801D0
:100A60004B815C818A01C5010995D501ED91FC910D
:100A70000288F389E02DC5010F900F900F900F9021
:100A8000DF91CF911F910F91FF90EF90DF90CF906A
:100A9000BF90AF9009944F925F926F927F928F9226
:100AA0009F92AF92BF92CF92DF92EF92FF920F93FD
:100AB0001F93CF93DF9300D0CDB7DEB76C015A01FF
:100AC00039014801DC01ED91FC910680F781E02DB0
:100AD00069837A8309956981462E7A81572E640C41
:100AE000751CD601ED91FC91461457046CF40484F6
:100AF000F585E02D87019401A501B201C601099594
:100B0000BFEF4B1A5B0AEDCF0288F389E02DC601D7
:100B10000F900F90DF91CF911F910F91FF90EF9069
:100B2000DF90CF90BF90AF909F908F907F906F900D
:100B30005F904F900994EF92FF920F931F93DC0107
:100B4000ED91FC9111971A960D911C911B97189697
:100B50002D913C911997048CF58DE02D7B0140E09F
:100B600050E060E070E009951F910F91FF90EF90C9
:100B70000895CF92DF92EF92FF920F931F93CF933E
:100B8000DF9300D000D000D0CDB7DEB76C01DC0120
:100B9000ED91FC916217730789F4041715072CF483
:100BA000942F852FA801092F182F041B150B9801CE
:100BB0002F5F3F4F008CF18DE02D12C04017510781
:100BC00009F5261737072CF4962F872FB901292FFF
:100BD000382F261B370B2F5F3F4F028CF38DE02DF4
:100BE0008701C601099526960FB6F894DEBF0FBEA1
:100BF000CDBFDF91CF911F910F91FF90EF90DF90CC
:100C0000CF9008950680F781E02D2D833E834B839E
:100C10005C8369837A830995D601ED91FC91008804
:100C2000F189E02D2D813E814B815C8169817A8142
:100C3000C6010995D601ED91FC910288F389E02D5A
:100C4000C60126960FB6F894DEBF0FBECDBFDF916A
:100C5000CF911F910F91FF90EF90DF90CF9009946B
:100C60006F927F928F929F92AF92BF92CF92DF92BC
:100C7000EF92FF920F931F93CF93DF93EC014B0101
:100C80005A0169013801E881F9810680F781E02D78
:100C90000995E881F9810684F785E02D87019601A1
:100CA000A501B401CE010995E881F981A501460DA0
:100CB000571D415051090684F785E02D9601B40176
:100CC000CE010995E881F9810484F585E02D930131
:100CD000A501B401CE010995E881F981C80CD91CA0
:100CE000B601615071090484F585E02D9301A501D9
:100CF000CE010995E881F9810288F389E02DCE01C2
:100D0000DF91CF911F910F91FF90EF90DF90CF90E7
:100D1000BF90AF909F908F907F906F9009940895AF
:100D2000FC016370658B84819581268137816130F8
:100D300039F0633029F091878087338722870895BF
:100D400031872087938782870895FC01138212825E
:100D500088E395E09183808375836483578346831A
:100D60007187608753874287158A15861486178690
:100D7000168681E0848B2FEF3FEF338B228B318BF4
:100D8000208B868B178A118E108E08952F923F929A
:100D90004F925F926F927F928F929F92AF92BF928B
:100DA000CF92DF92EF92FF920F931F93CF93DF9337
:100DB000CDB7DEB76C970FB6F894DEBF0FBECDBFD0
:100DC0009C8F8B8F5B011A011F830E833701C982B1
:100DD000DC0158964D915C9159974115510509F0E8
:100DE000E5C018968D919C911997681779070CF0BA
:100DF000CAC11A968D919C911B97281639060CF042
:100E0000C2C18C2C912CFB0136E0C39EE00DF11D7C
:100E10001124FB87EA871E161F060CF0B4C1C4011B
:100E200033E0880F991F3A95E1F79D878C87820DF3
:100E3000931D181619060CF0A6C157968C918111B6
:100E400003C0203B08F02F5FAB8DBC8DED91FC9172
:100E500011970680F781E02DCD012A8F09952A8D03
:100E6000B5E02B9F90011124F5013596FF87EE87A1
:100E70002501BB82AA82A9014A195B09598B488BBB
:100E8000C10108969B8B8A8BE889F989E40DF51DD1
:100E9000E458FF4F949198873D822C826101A88588
:100EA000A0FF13C0AB8DBC8DED91FC91B981B13029
:100EB00031F40084F185E02D2E813F8116C002843B
:100EC000F385E02DEE80FF801AC0EE81FF816E1663
:100ED0007F06F1F0AB8DBC8DED91FC91B981B13005
:100EE00051F40084F185E02D9301A601B2018B8DB0
:100EF0009C8D09950DC00284F385E02D730184015A
:100F000094014C815D816A817B818B8D9C8D0995DB
:100F1000E885E695E8872C813D81280D391D3D83C4
:100F20002C833FEFC31AD30A4A895B89C416D506BE
:100F300009F0B5CF8A819B81880D991D9B838A8397
:100F40009FEF491A590AAE85BF854A165B0609F01C
:100F50009BCFEE81FF816E167F0609F4F2C0EB8D08
:100F6000FC8DA081B181F981F13079F4B5016B5F1D
:100F70007F4F1C96ED91FC911D97830128E030E096
:100F8000A1018B8D9C8D0995DCC06A857B856819D4
:100F900079091A96ED91FC911B9773010C851D85BB
:100FA0009401A1018B8D9C8D0995CBC0FA013496DB
:100FB0009491329765917491291BCB01B7E02B9FD7
:100FC000800D911D1124FA01259134913B8B2A8BC0
:100FD000FC01459154915B834A83FC013296C49095
:100FE000319654915C87329614913196D4908981D0
:100FF000823058F0612E012E000C7708AD2D0D2C9B
:10100000000CBB0BB987A88704C019861886612C11
:10101000712CAB8DBC8DED91FC9111970680F78101
:10102000E02DCD010995B9818B2E912C689CC001D2
:10103000699C900D789C900D1124FC01EA0DFB1D1C
:10104000F98BE88B1C82712C612CE12F110FFF0BA7
:1010500095012E0F3F1F3B872A87AC0CB11CA501C1
:101060004E0F5F1F5F8B4E8BC1018D0D911DD7FC05
:101070009A95998F888F4C85641608F062C0862DEA
:1010800090E048855985480F591F489D9001499D1A
:10109000300D589D300D1124D901A20DB31DBF870D
:1010A000AE87AA84BB8448885988DC80BA85DB1A5D
:1010B000E88DF98DE80FF91FFD8BEC8B8D2D8A0DD6
:1010C0002E893F89A216B306B9F1877061F48A812F
:1010D0009B810196EA89FB89AA81BB81EA0FFB1FEC
:1010E00074909B838A8377FE20C0AB8DBC8DED917D
:1010F000FC91B981B13061F40084F185E02D2E813D
:101100003F814C895D89B5018B8D9C8D09950DC002
:101110000284F385E02DEE80FF80840194014E85EA
:101120005F85B2018B8D9C8D0995770C480C591CFD
:10113000EFEFAE1ABE0AC2CF3C813C0D3C836394F4
:101140009ACFAB8DBC8DED91FC9111970288F389FC
:10115000E02DCD016C960FB6F894DEBF0FBECDBF6B
:10116000DF91CF911F910F91FF90EF90DF90CF9083
:10117000BF90AF909F908F907F906F905F904F90B7
:101180003F902F9009946C960FB6F894DEBF0FBE77
:10119000CDBFDF91CF911F910F91FF90EF90DF9026
:1011A000CF90BF90AF909F908F907F906F905F9007
:1011B0004F903F902F900895AF92BF92CF92EF92B1
:1011C000FF920F931F93CF93DF93EC01262F888D0F
:1011D000998D009709F040C06A3059F41D861C862D
:1011E0002C898E859F8538E0239F800D911D1124C9
:1011F00041C06D3009F4AAC08E898823C1F03C89B2
:101200008C859D8546E0349F800D911D1124488575
:101210005985481759075CF41D861C868E859F8565
:1012200048E0349F800D911D11249F878E87EA88A6
:10123000FB88088919894E855F856C857D85CC88FA
:10124000CE010E94C6062C898C859D8536E0239FA1
:10125000800D911D112442C06A3079F41D861C86D0
:101260002C89FC013696E4918E859F852E9F800DFA
:10127000911D11249F878E8769C06D3009F466C067
:10128000FC0134963491631708F460C03196E49100
:10129000E61708F45BC0FC013296A590B490462F87
:1012A00050E0431B510937E0349FB001359F700D6A
:1012B0001124A60EB71EF501329634913196E491B1
:1012C000332311F0E1110DC0F5013496E4912C891E
:1012D0008C859D85E29F800D911D11249D878C87B3
:1012E00035C0F501359644915E89552311F16C891D
:1012F000E32FF0E0E40FF11D47FDFA956E9FD0015A
:101300006F9FB00D11244C855D854A0F5B1FE885EA
:10131000F985E417F5076CF41D861C86FC013696EA
:10132000E4918E859F856E9F800D911D11249F876E
:101330008E87EA88FB88088919894E855F856C85C8
:101340007D85CC88CE010E94C606BECF81E090E0AC
:10135000DF91CF911F910F91FF90EF90CF90BF90B1
:10136000AF900895FC017587648757874687089575
:10137000611101C061E0FC01648B0895FC01738B75
:10138000628B718B608B0895FC01718B608B538B2A
:10139000428B0895FC0185890895FC018085918523
:1013A0000895FC018285938508950F931F93CF9331
:1013B000DF93DC01FB0155968C915597823089F0C3
:1013C000833021F1813009F0E6C014968D919C9113
:1013D0001597BC01641B750BAB0141505109BF014E
:1013E0001DC014966D917C911597CB018E1B9F0BA0
:1013F000FC0116968D919C911797BC01641B750B8F
:10140000AB0141505109E21BF30BC5C016966D911B
:101410007C9117976E1B7F0B621B730B57FD1AC1D4
:1014200014968D919C911597481759070CF012C18D
:1014300077FF04C0260F371F60E070E016968D918D
:101440009C911797FB01E20FF31F8E179F071CF467
:101450009C01261B370B121613060CF0FBC0A22FA3
:10146000862F86958695869590E8899F400D511D1B
:101470001124FA01EC5EFE4F6770A9F198E0961B0B
:10148000492F50E0EA01C45FDE4F8881291790F4AC
:10149000421B51092FEF30E002C0359527954A9540
:1014A000E2F782230130110541F068F002301105A6
:1014B00089F0D0C00130110519F42081822B0CC0B5
:1014C0000130110520F480952081822305C002306F
:1014D000110531F4208182278083A91708F4BAC04E
:1014E000A91BE058FF4FA83048F10230110559F40C
:1014F000EF018A2F988190959883C058DF4F8850CC
:101500008830C0F732C081E00130110509F080E079
:101510008195EF019A2F8883C058DF4F98509830FB
:10152000D0F788EF8A0F86958695869560E8869F26
:10153000E00DF11D1124E058FF4FA770AA2309F414
:1015400089C0B0E0AC5FBE4F8C910130110529F02D
:1015500038F002301105E1F07DC09081892B03C085
:10156000809590818923808375C088EF8A0F869546
:101570008695869570E8879FE00DF11D1124E0584F
:10158000FF4FA77009F466C0B0E0AC5FBE4F8C910E
:1015900090818927E8CF57FD5DC016968D919C916B
:1015A0001797481759070CF055C0F7FF04C02E0FC6
:1015B0003F1FE0E0F0E014968D919C911597BF01DC
:1015C000620F731F861797071CF49C012E1B3F0B9D
:1015D000121613060CF03EC0CA0157FD079663E0D1
:1015E000959587956A95E1F79695982F8827979511
:1015F0008795E80FF91FEC5EFE4F4770552781E095
:1016000090E001C0880F4A95EAF7482F0130110594
:1016100039F078F002301105E9F42E0F3F1F13C0A6
:101620002E0F3F1FE217F307A9F08081842B8193CF
:10163000F9CF80952E0F3F1FE217F30759F09081E5
:1016400098239193F9CFE217F30721F08081842743
:101650008193F9CFDF91CF911F910F9108950F934F
:101660001F93CF93DF93DC0155968C915597823071
:1016700071F0833009F1813009F08CC01496ED913E
:10168000FC911597E41BF50BE21BF30B20C014969D
:10169000ED91FC911597CF01861B970BBC01615012
:1016A00071091696ED91FC911797CF01841B950B4C
:1016B000AC01421B530B6EC01696ED91FC9117972F
:1016C000CF01861B970BBC0161507109FA0177FDB0
:1016D0001BC116968D919C911797681779070CF08E
:1016E00013C1F7FF04C02E0F3F1FE0E0F0E0149697
:1016F0008D919C911597AF01420F531F8417950749
:101700001CF49C012E1B3F0B121613060CF0FCC0A0
:10171000CB0177FD079643E0959587954A95E1F7CC
:101720009695982F882797958795E80FF91FEC5E77
:10173000FE4F6770772781E090E001C0880F6A95BF
:10174000EAF7482F0130110541F088F00230110509
:1017500009F0DAC02E0F3F1F15C02E0F3F1FE217F2
:10176000F30709F4D1C08081842B8193F8CF809551
:101770002E0F3F1FE217F30709F4C6C0908198238C
:101780009193F8CFE217F30709F4BEC08081842754
:101790008193F8CF77FDB8C014968D919C911597E1
:1017A000681779070CF0B0C057FF04C0240F351F2D
:1017B00040E050E016968D919C911797FA01E20F48
:1017C000F31F8E179F071CF49C01241B350B121668
:1017D00013060CF099C0A22F842F869586958695C6
:1017E00090E8899F600D711D1124FB01EC5EFE4F96
:1017F0004770A9F198E0941B492F50E0EA01C45FBB
:10180000DE4F8881291790F4421B51092FEF30E0F9
:1018100002C0359527954A95E2F7822301301105DC
:1018200041F068F00230110589F06EC001301105F9
:1018300019F42081822B0CC00130110520F4809511
:101840002081822305C00230110531F420818227D6
:101850008083A91708F458C0A91BE058FF4FA8308F
:1018600048F10230110559F4EF018A2F98819095C3
:101870009883C058DF4F88508830C0F730C081E06F
:101880000130110509F080E08195EF019A2F8883DE
:10189000C058DF4F98509830D0F788EF8A0F869560
:1018A0008695869590E8899FE00DF11D1124E058FA
:1018B000FF4FA770AA2341F1B0E0AC5FBE4F8C91FF
:1018C0000130110529F038F002301105D1F01CC0AB
:1018D0009081892B18C080959081892314C088EF4E
:1018E0008A0F86958695869590E8899FE00DF11D73
:1018F0001124E058FF4FA77039F0B0E0AC5FBE4F45
:101900008C91908189278083DF91CF911F910F91D6
:101910000895CF92DF92EF92FF920F931F93CF9390
:10192000DF937C018B01EA01690177FDA0C00E9471
:10193000CD09081719070CF09AC0D7FD98C0C70148
:101940000E94D109C817D9070CF091C0C7010E94A5
:10195000CA09823009F07FC0F70164817581CB012B
:10196000801B910B8C010150110946815781FA01AE
:10197000EC1BFD0BEF0121970BC0813049F4F701FF
:10198000848195818C1B9D0BE8018C01015011090C
:10199000F1E0CF16D10431F010F182E0C816D10485
:1019A000E1F165C0FE01D7FD379643E0F595E79577
:1019B0004A95E1F7F695FE2FEE27F795E7950E0F7E
:1019C0001F1FF801EC5EFE4FC770DD2781E090E03D
:1019D00001C0880FCA95EAF79081892B3AC0FE01B1
:1019E000D7FD379623E0F595E7952A95E1F7F6952B
:1019F000FE2FEE27F795E7950E0F1F1FF801EC5EFF
:101A0000FE4FC770DD2781E090E001C0880FCA95C6
:101A1000EAF78095908189231CC0FE01D7FD379697
:101A200083E0F595E7958A95E1F7F695FE2FEE2789
:101A3000F795E7950E0F1F1FF801EC5EFE4FC7707C
:101A4000DD2781E090E001C0880FCA95EAF7908118
:101A5000892780830CC0833009F08FCFF7018681FE
:101A60009781801B910B8E01EC01219791CFDF9123
:101A7000CF911F910F91FF90EF90DF90CF9008953D
:101A80001F93CF93DF93EC01162F40E450E060E802
:101A900070E00E94A50680E695E0998388838FEF29
:101AA0008C8F88A38E8F8D8F1F8FDF91CF911F9189
:101AB000089580E094E0E4E1F1E0DF019C011D92F3
:101AC00021503040E1F70895FC0181A1882339F0CD
:101AD0006EBD00000DB407FEFDCF8EB5089528E061
:101AE00030E090E8A4A1B5A14C9183A58095842312
:101AF0008C93A2A1B3A182A5492F462319F04C9142
:101B0000842B03C04C91809584238C93A4A1B5A110
:101B10004C9183A5842B8C9396952150310911F714
:101B200008951F93CF93DF93EC01162F8C8D8F3F79
:101B300009F1EEA1FFA190818CA5892B8083E8A5F6
:101B4000F9A590818DA5809589238083EEA1FFA1C1
:101B500090818CA5809589238083CE010E94640D9D
:101B6000EEA1FFA190818CA5892B8083DF91CF917D
:101B70001F9108958A8D682F880F770B85EE95E069
:101B80000E94641060E085EE95E00E941110612FC4
:101B900085EE95E00E94111085EE95E0DF91CF91E2
:101BA0001F910C9479100F931F93CF93DF93EC0147
:101BB000162F022F6B8F4A8F8C8D8F3F09F477C0C1
:101BC00061E08E8D0E94591361E088A10E94591333
:101BD00088A1082E000C990BFC01E454FA4FE49103
:101BE000F0E0EE0FFF1FE452FA4F259134913FA32E
:101BF0002EA3FC01E456FA4FE491ECA78E8D082E3B
:101C0000000C990BFC01E454FA4FE491F0E0EE0F64
:101C1000FF1FE452FA4F2591349139A728A7FC0100
:101C2000E456FA4FE491EDA789A1811134C061E037
:101C30008C8D0E94591361E08D8D0E9459138D8DFA
:101C4000082E000C990BFC01E454FA4FE491F0E0EB
:101C5000EE0FFF1FE452FA4F259134913DA32CA3C0
:101C6000FC01E456FA4FE491EBA78C8D082E000C92
:101C7000990BFC01E454FA4FE491F0E0EE0FFF1FE2
:101C8000E452FA4F259134913BA32AA3FC01E45678
:101C9000FA4FE491EAA789A1882369F00E94B10371
:101CA0008CB58C7F8CBD8DB581608DBD04C085EEFB
:101CB00095E00E9450100023E1F061E08F8D0E94BA
:101CC000591361E08F8D0E94951361E070E080E010
:101CD00090E00E94B91260E08F8D0E9495136AE037
:101CE00070E080E090E00E94B91261E08F8D0E9468
:101CF00095136EEACE010E94910D65EDCE010E9412
:101D0000910D60E8CE010E94910D68EACE010E941B
:101D1000910D6FE3CE010E94910D63EDCE010E9403
:101D2000910D60E0CE010E94910D60E4CE010E9411
:101D3000910D6DE8CE010E94910D113011F460E11A
:101D400001C064E1CE010E94910D60E2CE010E94CB
:101D5000910D60E0CE010E94910D61EACE010E94DA
:101D6000910D68ECCE010E94910D6AEDCE010E94AA
:101D7000910D62E1CE010E94910D61E8CE010E94B9
:101D8000910D113011F46FE901C06FECCE010E948A
:101D9000910D69EDCE010E94910D113011F462E2B6
:101DA00001C061EFCE010E94910D6BEDCE010E944A
:101DB000910D60E4CE010E94910D64EACE010E9473
:101DC000910D66EACE010E94910D6FEACE01DF917E
:101DD000CF911F910F910C94910D8F929F92AF9282
:101DE000BF92CF92DF92EF92FF920F931F93CF9308
:101DF000DF93EC0160E00E94910D60E1CE010E9452
:101E0000910D60E4CE010E94910D8C8D8F3F09F4FD
:101E100050C090EBB92E00E010E06B2DCE010E9477
:101E2000910D62E0CE010E94910D60E1CE010E9411
:101E3000910DE12CF12CEEA1FFA190818CA5892BB5
:101E40008083E8A5F9A590818DA5892B8083EEA1DB
:101E5000FFA190818CA5809589238083C12CD12CF2
:101E60004701800E911EF601E80DF91DEC5EFE4F54
:101E70006081CE010E94640D8FEFC81AD80A80E1FC
:101E8000C816D10481F7EEA1FFA190818CA5892B02
:101E9000808380E1E80EF11C80E8E816F10459F631
:101EA00000581F4FB394011584E0180709F0B5CF0F
:101EB0004FC0A090B8008CE08093B80080EBB82EA3
:101EC00000E010E06B2DCE010E94910D62E0CE018A
:101ED0000E94910D60E1CE010E94910DE12CF12C48
:101EE0006A8D062E000C770B85EE95E00E9464103B
:101EF00060E485EE95E00E941110C12CD12C4701C1
:101F0000800E911EF601E80DF91DEC5EFE4F60811A
:101F100085EE95E00E9411108FEFC81AD80A80E173
:101F2000C816D10479F785EE95E00E94791080E11A
:101F3000E80EF11C80E8E816F10491F600581F4FF6
:101F4000B394011584E0180709F0BCCFA092B80043
:101F5000DF91CF911F910F91FF90EF90DF90CF9085
:101F6000BF90AF909F908F9008958091150690E05C
:101F700020911606821B9109089590911606809172
:101F80001506981750F4E92FF0E0E95EF94F20812B
:101F900030E09F5F9093160602C02FEF3FEFC9011C
:101FA0000895E091160680911506E81730F4F0E0E8
:101FB000E95EF94F808190E008958FEF9FEF0895DB
:101FC0000895CF92DF92EF92FF920F931F93CF93DA
:101FD000DF937C01262F972F8A018091F1058823BA
:101FE00091F0C62FD72F6E01C40ED51ECC15DD057E
:101FF00071F06991D701ED91FC910190F081E02D94
:10200000C7010995F3CF642F822F0E94F410C801F5
:10201000DF91CF911F910F91FF90EF90DF90CF90C4
:102020000895CF93DF931F92CDB7DEB769832091D8
:10203000F1052223D1F02091F205203240F021E079
:1020400030E0FC013383228380E090E015C0809172
:10205000F305E82FF0E0EC50FA4F998190838F5F01
:102060008093F3058093F20505C061E0CE010196EF
:102070000E94F41081E090E00F90DF91CF910895DD
:10208000FC011382128288EE93E0A0E0B0E084832A
:102090009583A683B78388E895E09183808308952C
:1020A00010921606109215061092F3051092F20582
:1020B0000C94801081E08093F105609314061092D7
:1020C000F3051092F20508950C945A100F93062F01
:1020D00021E04091F20564EF75E0809114060E94C2
:1020E0009E101092F3051092F2051092F1050F91D7
:1020F000089561E00C94661085EE95E00C94401014
:102100001092A40681E08093A2061092A10661E0DD
:1021100081E10E94951361E080E10E949513E9EB53
:10212000F0E080818E7F808380818D7F808380E25C
:102130008093B80085E48093BC0008950F934132EA
:1021400008F04AC09091A4069111FCCF32E0309380
:10215000A4060093A2063FEF3093370610927C0648
:1021600040937B06FB016DE776E0DB013A2F361BDF
:10217000341718F431913D93F9CF1092A3063091A2
:10218000A306880F832B8093A3068091A10681303C
:1021900061F41092A1068091A3068093BB00809108
:1021A000BC0083FDF8CF85EC01C085EE8093BC00B8
:1021B000222321F08091A4068230D1F3809137064A
:1021C0008F3F79F080913706803241F08091370659
:1021D000803331F094E005C091E003C092E001C08B
:1021E00093E0892F0F910895613298F42091A4060D
:1021F000243089F460935906FC012BE536E0D901BF
:102200008A2F821B861718F481918D93F9CF80E075
:10221000089581E0089582E0089585ED8093BC00E3
:102220008091BC0084FDFCCF1092A406089585EC3B
:102230008093BC001092A40608951F920F920FB6CF
:102240000F9211242F933F934F935F936F937F933C
:102250008F939F93AF93BF93EF93FF938091B900B8
:10226000887F803609F49EC078F5883209F45DC015
:1022700090F4803109F456C038F4882309F4F5C08D
:10228000883009F44FC0F5C0883109F44EC080325F
:1022900009F45FC0EEC0803409F46AC058F480339A
:1022A00009F457C0883309F0E4C0809337060E94D0
:1022B0001711DFC0803509F44FC0883509F45DC0BF
:1022C000883409F0D6C0D3C0883909F4C4C0A8F452
:1022D000883709F467C038F4883609F463C080375A
:1022E00009F460C0C6C0883809F4B5C0803909F463
:1022F0005FC0803809F0BDC05BC0803B09F483C07B
:1023000038F4803A09F466C0883A09F47CC0B1C058
:10231000803C09F4A4C0883C09F4A1C0883B09F4BE
:1023200087C0A7C08091A30610C090917C068091C1
:102330007B06981770F5E0917C0681E08E0F809304
:102340007C06F0E0E358F94F80818093BB0085EC78
:1023500083C0809337068BC0E0917C0681E08E0FAE
:1023600080937C068091BB00F0E0E358F94F8083B6
:1023700090917C0680917B066BC0E0917C0681E0A9
:102380008E0F80937C068091BB00F0E0E358F94FFC
:1023900080838091A20681116AC081E08093A106AA
:1023A00084EA5EC083E08093A40610923806CFCF03
:1023B00080913806803208F04EC0E091380681E006
:1023C0008E0F809338068091BB00F0E0E75CF94FF8
:1023D0008083BDCF0E94171180913806803230F47F
:1023E000E0913806F0E0E75CF94F10826091380622
:1023F00070E0E0919D06F0919E0689E396E00995D4
:102400001092380636C084E08093A40610925A06D3
:1024100010925906E0919F06F091A00609958091CF
:102420005906811105C081E08093590610925B0620
:10243000E0915A0681E08E0F80935A06F0E0E55A4B
:10244000F94F80818093BB0090915A068091590684
:10245000981708F47CCF85E88093BC000AC085EC0F
:102460008093BC001092A40604C0109237060E940C
:102470000D11FF91EF91BF91AF919F918F917F913E
:102480006F915F914F913F912F910F900FBE0F90E1
:102490001F9018951F920F920FB60F9211242F9331
:1024A0003F938F939F93AF93BF938091A606909194
:1024B000A706A091A806B091A9063091A50626E02E
:1024C000230F2D3720F40296A11DB11D05C029E868
:1024D000230F0396A11DB11D2093A5068093A60688
:1024E0009093A706A093A806B093A9068091AA0688
:1024F0009091AB06A091AC06B091AD060196A11DDE
:10250000B11D8093AA069093AB06A093AC06B0933E
:10251000AD06BF91AF919F918F913F912F910F90F9
:102520000FBE0F901F9018953FB7F8948091AA06A0
:102530009091AB06A091AC06B091AD0626B5A89BD4
:1025400005C02F3F19F00196A11DB11D3FBFBA2F45
:10255000A92F982F8827820F911DA11DB11DBC01A5
:10256000CD0143E0660F771F881F991F4A95D1F769
:1025700008958F929F92AF92BF92CF92DF92EF9287
:10258000FF926B017C010E9494124B015C01C1140B
:10259000D104E104F10401F10E9459170E94941240
:1025A000DC01CB0188199909AA09BB09883E93402F
:1025B000A105B10560F321E0C21AD108E108F108D4
:1025C00088EE880E83E0981EA11CB11CC114D104B2
:1025D000E104F10419F7DBCFFF90EF90DF90CF908B
:1025E000BF90AF909F908F900895789484B582604B
:1025F00084BD84B5816084BD85B5826085BD85B5A7
:10260000816085BDEEE6F0E0808181608083E1E855
:10261000F0E010828081826080838081816080838D
:10262000E0E8F0E0808181608083E1EBF0E0808190
:1026300084608083E0EBF0E0808181608083EAE762
:10264000F0E08081846080838081826080838081EB
:10265000816080838081806880831092C1000895AA
:10266000833081F028F4813099F08230A1F0089510
:102670008730A9F08830B9F08430D1F4809180009F
:102680008F7D03C0809180008F77809380000895B4
:1026900084B58F7702C084B58F7D84BD0895809105
:1026A000B0008F7703C08091B0008F7D8093B00021
:1026B0000895CF93DF9390E0FC01E456FA4F249104
:1026C000FC01E454FA4F8491882361F190E0880F73
:1026D000991FFC01EA51FA4FC591D491FC01E452D3
:1026E000FA4FA591B491611109C09FB7F894888100
:1026F000209582238883EC912E230BC0623061F4F5
:102700009FB7F8943881822F809583238883EC913A
:102710002E2B2C939FBF06C08FB7F894E8812E2BE9
:1027200028838FBFDF91CF9108951F93CF93DF93BD
:10273000282F30E0F901E458FA4F8491F901E4566A
:10274000FA4FD491F901E454FA4FC491CC23C9F063
:10275000162F81110E943013EC2FF0E0EE0FFF1FB7
:10276000E452FA4FA591B4918FB7F894111105C0B6
:102770009C91ED2FE095E92302C0EC91ED2BEC93B9
:102780008FBFDF91CF911F9108950E94BE19FC0168
:10279000918D228D892F90E0805C9F4F821B910943
:1027A0008F7399270895FC01918D828D981731F0D0
:1027B000828DE80FF11D858D90E008958FEF9FEFDA
:1027C0000895FC01918D828D981761F0828DDF0153
:1027D000A80FB11D5D968C91928D9F5F9F73928F14
:1027E00090E008958FEF9FEF089586E595E1892B9E
:1027F00041F080E090E0892B21F00E945615811174
:102800000DC080E090E0892B71F080E090E0892B92
:1028100051F00E940000811104C008950E94000040
:10282000F0CF0C9400000895FC01848DDF01A80F07
:10283000B11DA35ABF4F2C91848D90E001968F73E8
:102840009927848FA689B7892C93A089B1898C9107
:1028500080648C93938D848D981306C00288F389CD
:10286000E02D80818F7D80830895CF93DF93EC01ED
:10287000888D8823C9F0EA89FB89808185FD05C0A0
:10288000A889B9898C9186FD0FC00FB607FCF5CFDA
:10289000808185FFF2CFA889B9898C9185FFEDCF22
:1028A000CE010E941414E7CFDF91CF910895EF92EB
:1028B000FF920F931F93CF93DF93EC0181E0888FFA
:1028C0009B8D8C8D981305C0E889F989808185FDE1
:1028D00024C0F62E0B8D10E00F5F1F4F0F731127D2
:1028E000E02E8C8DE8120CC00FB607FCFACFE889F9
:1028F000F989808185FFF5CFCE010E941414F1CFB4
:102900008B8DFE01E80FF11DE35AFF4FF0820B8F14
:10291000EA89FB898081806207C0EE89FF89608334
:10292000E889F98980818064808381E090E0DF918B
:10293000CF911F910F91FF90EF900895CF92DF926A
:10294000EF92FF921F93CF93DF93EC016A017B011B
:10295000122F60E874E88EE190E0A70196010E94D2
:102960009619DA01C9010197A109B109B695A79590
:1029700097958795AC01E889F98982E080834115B4
:1029800080E15807A8F0E889F989108260E472E4D0
:102990008FE090E0A70196010E949619BA01A90163
:1029A0004150510961097109769567955795479589
:1029B000EC85FD855083EE85FF854083188EEC897C
:1029C000FD891083EA89FB89808180618083EA899F
:1029D000FB89808188608083EA89FB8980818068A7
:1029E0008083EA89FB8980818F7D8083DF91CF910D
:1029F0001F91FF90EF90DF90CF9008951F920F925C
:102A00000FB60F9211242F938F939F93EF93FF9301
:102A1000E091BE06F091BF068081E091C406F0917E
:102A2000C50682FD12C090818091C7068F5F8F73AB
:102A30002091C806821751F0E091C706F0E0E255F8
:102A4000F94F958F8093C70601C08081FF91EF9168
:102A50009F918F912F910F900FBE0F901F901895FF
:102A60001F920F920FB60F9211242F933F934F9303
:102A70005F936F937F938F939F93AF93BF93EF93E6
:102A8000FF938EEA96E00E941414FF91EF91BF919C
:102A9000AF919F918F917F916F915F914F913F91F6
:102AA0002F910F900FBE0F901F9018958EEA96E011
:102AB0000E94C71321E0892B09F420E0822F08959A
:102AC000EEEAF6E01382128288EE93E0A0E0B0E036
:102AD00084839583A683B78388E995E09183808377
:102AE00085EC90E09587848784EC90E097878687D3
:102AF00080EC90E0918B808B81EC90E0938B828BCB
:102B000082EC90E0958B848B86EC90E0978B868BA3
:102B1000118E128E138E148E089508950E94F51250
:102B20000E948D150E942B03C5EFD3E10E9425035F
:102B30002097E1F30E94F513F9CFCF92DF92EF9245
:102B4000FF920F931F93CF93DF936C017A018B0158
:102B5000C0E0D0E0CE15DF0589F0D8016D918D0180
:102B6000D601ED91FC910190F081E02DC60109950F
:102B7000892B11F47E0102C02196ECCFC701DF91B1
:102B8000CF911F910F91FF90EF90DF90CF9008951C
:102B90006115710579F0FB0101900020E9F731978B
:102BA000AF01461B570BDC01ED91FC910280F381D4
:102BB000E02D099480E090E008950C94C815DC01A4
:102BC000ED91FC910190F081E02D099464EA75E0AB
:102BD0000C94C8150F931F93CF93DF93EC010E94C1
:102BE000C8158C01CE010E94E615800F911FDF9160
:102BF000CF911F910F9108954F925F926F927F92A4
:102C0000EF92FF920F931F93CF93DF93CDB7DEB771
:102C1000A1970FB6F894DEBF0FBECDBF7C01FA01BD
:102C2000CB0119A2223008F42AE08E010F5D1F4F5C
:102C3000422E512C612C712CBF01A30192010E94E4
:102C40009619F901CA01015011096A3014F4605D46
:102C500001C0695CD8016C93232B242B252B61F7D1
:102C6000B801C7010E94C815A1960FB6F894DEBF3F
:102C70000FBECDBFDF91CF911F910F91FF90EF90CD
:102C80007F906F905F904F9008952115310541F42A
:102C9000DC01ED91FC910190F081E02D642F09940D
:102CA0000C94FC150F931F93CF93DF93EC010E94BC
:102CB00045168C01CE010E94E615800F911FDF9111
:102CC000CF911F910F9108954F925F926F927F92D3
:102CD0008F929F92AF92BF92CF92DF92EF92FF922C
:102CE000CF93DF93EC016A017B01B22E9A01AB0115
:102CF000C701B6010E949119882319F067EA75E0AF
:102D000027C026013701E89477F82FEF3FEF4FE710
:102D10005FE7C301B2010E94911981110DC02FEF2D
:102D20003FEF4FE75FE7C301B2010E94C7171816D4
:102D30001CF46BEA75E00CC02FEF3FEF4FE75FE448
:102D4000C701B6010E941F1918169CF46FEA75E0BE
:102D5000CE01DF91CF91FF90EF90DF90CF90BF90A9
:102D6000AF909F908F907F906F905F904F900C945A
:102D7000C8152FEF3FEF4FE75FECC701B6010E9488
:102D8000C71787FDE3CF20E030E0A901C701B601F6
:102D90000E94C71787FF0AC06DE2CE010E94DF15AF
:102DA0004C01F7FAF094F7F8F09402C0812C912CC2
:102DB000A12C60E070E080E09FE3AB1441F020E0E4
:102DC00030E040E251E40E94CC17A394F6CF9B017F
:102DD000AC01C701B6010E945B172B013C010E94A8
:102DE0003E186B017C010E946D189B01AC01C30170
:102DF000B2010E945A172B013C012AE0B701A6013B
:102E0000CE010E94FC157C01E80CF91CBB2039F0B6
:102E100063EB75E0CE010E94C815E80EF91EDB2CAD
:102E2000DD2029F120E030E040E251E4C301B201AD
:102E30000E9424192B013C010E943E184B01A12C39
:102E4000B12C2AE0B501A401CE010E94FC15E80EC8
:102E5000F91EC501B4010E946D189B01AC01C301AC
:102E6000B2010E945A172B013C01DA94D9CFC70155
:102E7000DF91CF91FF90EF90DF90CF90BF90AF9018
:102E80009F908F907F906F905F904F9008950F93D9
:102E90001F93CF93DF93EC010E9464168C01CE0147
:102EA0000E94E615800F911FDF91CF911F910F9126
:102EB000089508955058BB27AA270E9472170C94B2
:102EC000E5180E94D71838F00E94DE1820F039F477
:102ED0009F3F19F426F40C94D4180EF4E095E7FB08
:102EE0000C94CE18E92F0E94F61858F3BA1762070F
:102EF00073078407950720F079F4A6F50C94181948
:102F00000EF4E0950B2EBA2FA02D0B01B901900104
:102F10000C01CA01A0011124FF27591B99F0593F48
:102F200050F4503E68F11A16F040A22F232F342F90
:102F30004427585FF3CF469537952795A795F040DE
:102F40005395C9F77EF41F16BA0B620B730B840BF3
:102F5000BAF09150A1F0FF0FBB1F661F771F881FAB
:102F6000C2F70EC0BA0F621F731F841F48F4879503
:102F700077956795B795F7959E3F08F0B0CF9395F5
:102F8000880F08F09927EE0F9795879508950E946E
:102F9000AA1808F481E008950E94E0170C94E5183F
:102FA0000E94DE1858F00E94D71840F029F45F3FC5
:102FB00029F00C94CE1851110C9419190C94D418B2
:102FC0000E94F61868F39923B1F3552391F3951BEA
:102FD000550BBB27AA2762177307840738F09F5F3A
:102FE0005F4F220F331F441FAA1FA9F335D00E2EA7
:102FF0003AF0E0E832D091505040E695001CCAF714
:103000002BD0FE2F29D0660F771F881FBB1F2617D6
:1030100037074807AB07B0E809F0BB0B802DBF01AD
:10302000FF2793585F4F3AF09E3F510578F00C947C
:10303000CE180C9419195F3FE4F3983ED4F38695AB
:1030400077956795B795F7959F5FC9F7880F911D9D
:103050009695879597F90895E1E0660F771F881F89
:10306000BB1F621773078407BA0720F0621B730B3C
:10307000840BBA0BEE1F88F7E09508950E94FE18A6
:1030800088F09F5798F0B92F9927B751B0F0E1F029
:10309000660F771F881F991F1AF0BA95C9F714C0D9
:1030A000B13091F00E941819B1E008950C941819EC
:1030B000672F782F8827B85F39F0B93FCCF3869512
:1030C00077956795B395D9F73EF49095809570956F
:1030D00061957F4F8F4F9F4F0895E89409C097FBEC
:1030E0003EF490958095709561957F4F8F4F9F4FDF
:1030F0009923A9F0F92F96E9BB279395F695879523
:1031000077956795B795F111F8CFFAF4BB0F11F4E5
:1031100060FF1BC06F5F7F4F8F4F9F4F16C088238C
:1031200011F096E911C0772321F09EE8872F762FC2
:1031300005C0662371F096E8862F70E060E02AF003
:103140009A95660F771F881FDAF7880F96958795EF
:1031500097F90895990F0008550FAA0BE0E8FEEFC4
:1031600016161706E807F907C0F012161306E4074B
:10317000F50798F0621B730B840B950B39F40A2644
:1031800061F0232B242B252B21F408950A2609F422
:10319000A140A6958FEF811D811D089597F99F6726
:1031A00080E870E060E008959FEF80EC08950024CF
:1031B0000A941616170618060906089500240A949C
:1031C00012161306140605060895092E0394000C22
:1031D00011F4882352F0BB0F40F4BF2B11F460FFB1
:1031E00004C06F5F7F4F8F4F9F4F089557FD9058DA
:1031F000440F551F59F05F3F71F04795880F97FBBB
:10320000991F61F09F3F79F0879508951216130674
:103210001406551FF2CF4695F1DF08C016161706A3
:103220001806991FF1CF86957105610508940895D8
:10323000E894BB2766277727CB0197F908950E946A
:10324000AA1808F48FEF08950E9437190C94E51816
:103250000E94D71838F00E94DE1820F0952311F054
:103260000C94CE180C94D41811240C9419190E94A3
:10327000F61870F3959FC1F3950F50E0551F629FAC
:10328000F001729FBB27F00DB11D639FAA27F00DBF
:10329000B11DAA1F649F6627B00DA11D661F829FE6
:1032A0002227B00DA11D621F739FB00DA11D621FCB
:1032B000839FA00D611D221F749F3327A00D611DE8
:1032C000231F849F600D211D822F762F6A2F1124CA
:1032D0009F5750409AF0F1F088234AF0EE0FFF1FFD
:1032E000BB1F661F771F881F91505040A9F79E3F54
:1032F000510580F00C94CE180C9419195F3FE4F33B
:10330000983ED4F3869577956795B795F795E795A9
:103310009F5FC1F7FE2B880F911D9695879597F9B2
:1033200008950E94AA18880B990B0895A1E21A2EFD
:10333000AA1BBB1BFD010DC0AA1FBB1FEE1FFF1F59
:10334000A217B307E407F50720F0A21BB30BE40BA9
:10335000F50B661F771F881F991F1A9469F76095F0
:103360007095809590959B01AC01BD01CF010895AA
:10337000EE0FFF1F0590F491E02D099481E090E09D
:0A338000F8940C94C319F894FFCFE1
:10338A0001000000000103070F1F3F7F0080C0E01B
:10339A00F0F8FCFE00000000000000000000000041
:1033AA000000000000000000000000000000000013
:1033BA000000000000000000000000000000000003
:1033CA0000000000000000000000000000000000F3
:1033DA000000008080800000000000000000000063
:1033EA0000000000008080C0C00000000000000053
:1033FA0000000000000000000000000000000000C3
:10340A0000000000000000000000000000000000B2
:10341A0000000000000000000000000000000000A2
:10342A00000000000000000080C0E0F0F8FCF8E0B6
:10343A000000000000000000000000000000000082
:10344A000080808080800080800000000080808072
:10345A00808000FFFFFF0000000080808080000065
:10346A008080000080FFFF80800080800080808054
:10347A00800080800000000000808000008C8E8424
:10348A00000080F8F8F8800000000000000000004A
:10349A0000000000F0F0F0F0F0F0F0F0F0F0F0F0E2
:1034AA00E0E0C08000E0FCFEFFFFFF7FFFFFFFFFC0
:1034BA00FF0000000000000000000000000000FE05
:1034CA00FFC70101010183FFFF00007CFEC7010164
:1034DA00010183FFFFFF0038FEC78301010183C793
:1034EA00FFFF000001FFFF010100FFFF07010101CB
:1034FA0000007FFF80000000FFFF7F0000FFFFFF4A
:10350A00000001FFFFFF01000000000000000000B2
:10351A0000000000030F3F7F7FFFFFFFFFFFFFFF59
:10352A00E7C7C78F8F9FBFFFFFC3C0F0FFFFFFFF33
:10353A00FFFCFCFCFCFCFCFCFCF8F8F0F0E0C00032
:10354A000103030303030103030000000001030353
:10355A000303010103010000000103030303010146
:10356A00030300000003030000000303000000003F
:10357A00000000010303030303010000000103012B
:10358A00000000030301000000000000000000002A
:10359A000000000000000080C0E0F0F9FFFFFFFF1C
:1035AA00FF3F1F0F87C7F7FFFF1F1F3DFCF8F8F803
:1035BA00F87C7DFFFFFFFFFFFFFFFF7F3F0F070044
:1035CA003030000000000000000000000000000091
:1035DA000000000000000000FEFEFC0000000000E9
:1035EA0000000000000000000000000000000000D1
:1035FA0000E0C000000000000000000000003030C1
:10360A0000000000000000000000000000000000B0
:10361A000000000000C0FEFFFFFFFFFFFFFFFFFFEB
:10362A007F7F3F1F0F071F7FFFFFF8F8FFFFFFFF96
:10363A00FFFEF8E0000000010000000000000000AA
:10364A00FEFE000000FCFEFC0C06060EFCF8000064
:10365A00F0F81C0E0606060CFFFFFF0000FEFE0037
:10366A00000000FCFEFC00183C7E66E6CE840000EA
:10367A0006FFFF0606FCFEFC0C0606060000FEFE20
:10368A000000C0F8FC4E4646464E7C7840183C7610
:10369A00E6CECC8000000000000000000000000020
:1036AA00000000000000000001070F1F1F3F3F3FFE
:1036BA003F1F0F0300000000000000000000000090
:1036CA000F0F0000000F0F0F000000000F0F000087
:1036DA0003070E0C18180C060F0F0F0000010F0E2F
:1036EA000C180C0F070100040E0C180C0F07000031
:1036FA00000F0F00000F0F0F0000000000000F0F57
:10370A0000000007070C0C181C0C060600040E0C1F
:10371A00180C0F0700000000000000000000000065
:10372A00000000000000000000000000000000008F
:10373A00000000000000000000000000000000007F
:10374A00000000000000000000000000000000006F
:10375A00000000000000000000000000000000005F
:10376A00000000000000000000000000000000004F
:10377A00000000000000000000000000000000003F
:10378A00000000000000000000000000000000002F
:10379A0000000000783A200020793A20002064795D
:1037AA003A200048656C6C6F2C20776F726C64212C
:1037BA000030780000000000DC089D15C513910454
:1037CA009204B1049904A504E703C10490068F0684
:1037DA00C20407054B059B05B90530060000000029
:1037EA00DC089D15890C91049204B1049904A5047E
:1037FA00E703C10490068F062F0BD5094B059B05DD
:10380A00B9053006000000001110E10FB50FBD0F19
:10381A00D10FE00F0000000057149D15C713E113E4
:10382A00D31335140D0A006E616E00696E66006F5F
:06383A007666002E00007E
:00000001FF
