:100000000C9434000C9451000C9451000C94510049
:100010000C9451000C9451000C9451000C9451001C
:100020000C9451000C9451000C9451000C9451000C
:100030000C9451000C9453010C9451000C945100F9
:100040000C9451000C9451000C9451000C945100EC
:100050000C9451000C9451000C9451000C945100DC
:100060000C9451000C94510011241FBECFEFD4E02A
:10007000DEBFCDBF11E0A0E0B1E0E2E0F5E002C0FC
:1000800005900D92A031B107D9F711E0A0E1B1E0E0
:1000900001C01D92A231B107E1F70E9454020C94F5
:1000A0007F020C9400008AE08093B8001092B9009F
:1000B000089594EA9093BC00ECEBF0E090819923D2
:1000C000ECF79091B900987F983091F58093BB0040
:1000D00084E88093BC00ECEBF0E080818823ECF7AF
:1000E0008091B900887F883129F56093BB0084E84E
:1000F0008093BC00ECEBF0E080818823ECF78091EA
:10010000B900887F8832C1F44093BB0084E88093B3
:10011000BC00ECEBF0E080818823ECF78091B90023
:10012000887F883259F484E98093BC0080E0089588
:1001300081E0089581E0089581E0089581E00895C7
:10014000EF92FF920F931F93CF93DF9394EA9093D4
:10015000BC00ECEBF0E090819923ECF79091B900B2
:10016000987F983009F07DC0982F91509093BB00F4
:1001700094E89093BC00ECEBF0E090819923ECF7CD
:100180009091B900987F983109F06DC06093BB00E1
:1001900094E89093BC00ECEBF0E090819923ECF7AD
:1001A0009091B900987F983209F05FC0ECEBF0E0D5
:1001B00094E9908394EA908390819923ECF790914D
:1001C000B900987F903109F052C08093BB0084E859
:1001D0008093BC00ECEBF0E080818823ECF7809109
:1001E000B900887F803409F044C030E021503040AD
:1001F0001216130604F5042FA42FB52FECEBF0E034
:1002000014EC0F2EF9EBEF2EFF24F02D6BEB70E0CA
:10021000108380818823ECF7E7018881887F80350F
:1002200051F5EB0188818D93AD018A2F801B90E001
:10023000821793076CF384E88093BC00ECEBF0E04A
:1002400080818823ECF78091B900887F8835A9F4F4
:100250008091BB00FA01808384E98093BC0080E038
:100260000DC081E00BC081E009C081E007C081E0E2
:1002700005C081E003C081E001C081E0DF91CF9142
:100280001F910F91FF90EF900895E1E8F0E0108248
:1002900080E9809385008FEF809384001092800026
:1002A00083E0808308951F920F920FB60F9211245E
:1002B0002F933F934F935F936F937F938F939F936E
:1002C000AF93BF93EF93FF9380E9809385008FEF07
:1002D0008093840083E960E040E151E022E00E94E5
:1002E000A000FF91EF91BF91AF919F918F917F916E
:1002F0006F915F914F913F912F910F900FBE0F9093
:100300001F901895482F5B98562F52955F70882341
:100310000CF069C08F3F11F0419501C040E0852F7E
:1003200090E0880F991FBC01660F771F660F771F3B
:10033000860F971F66277727681B790B60567F4FBC
:1003400012F4615F7F4F7595679575956795759503
:10035000679575956795562FAAE0842F6A2F0E949E
:10036000730220E031E0F901E90FF11DB081842F23
:1003700064E60E947302892F6A2F0E947302F901BA
:10038000E80FF11D9081250F311DF901808120E2D8
:100390002EBD0DB407FEFDCFBEBD0DB407FEFDCFD3
:1003A0005B9A5B9820E12EBD0DB407FEFDCF9EBD8C
:1003B0000DB407FEFDCF5B9A5B9890E89EBD0DB42F
:1003C00007FEFDCF8EBD0DB407FEFDCF5B9A5B9897
:1003D00088E08EBD0DB407FEFDCF80E48EBD0DB468
:1003E00007FEFDCF5B9AE52FF0E0CF01880F991F44
:1003F000FC01EE0FFF1FEE0FFF1FE80FF91FFF2399
:100400000CF43F96F595E795F595E795F595E79505
:10041000F595E7955AE0842F652F0E94730220E03E
:1004200031E0D901A90FB11DFC91842F64E60E942F
:100430007302892F652F0E947302D901A80FB11D85
:100440009C912E0F311DD9018C9120E22EBD0DB44F
:1004500007FEFDCFFEBD0DB407FEFDCF5B9A5B9896
:1004600020E12EBD0DB407FEFDCF9EBD0DB407FEED
:10047000FDCF5B9A5B9890E89EBD0DB407FEFDCF63
:100480008EBD0DB407FEFDCF5B9A08958FEF88B93E
:1004900017B81BB888E08AB9089584B18C6284B912
:1004A00081E58CBD1DBC08950E9446020E944D024C
:1004B0000E945300F8940E94450115BE81E080938C
:1004C0006F00789488E18093C1008FE28093C4002C
:1004D000C0E1D1E08E010F5F1F4F8881F80160817C
:1004E0000E948201FACF991B79E004C0991F9617E8
:1004F00008F0961B881F7A95C9F780950895F8949F
:02050000FFCF2B
:100502003F065B4F666D7D077F6F8883C6A1868E2F
:00000001FF
