S01400004763635F4D543431543130302E73726563B9
S11300000C943A000C9457000C9457000C9457002D
S11300100C9457000C9457000C9457000C94570000
S11300200C9457000C94F6030C9457000C9457004E
S11300300C9457000C9457000C9457000C945700E0
S11300400C94BC030C9457000C9457000C94570068
S11300500C9457000C9457000C9457000C945700C0
S11300600C9457000C9457006364696E6F70737539
S113007078585B0011241FBECFEFD4E0DEBFCDBFA4
S113008012E0A0E0B1E0E6E0F7E102C005900D92D5
S1130090AE32B107D9F722E0AEE2B2E001C01D9260
S11300A0AE33B207E1F70E942E040C94810B0C943A
S11300B00000CF93C82F8A3019F48DE00E945900B4
S11300C0E0ECF0E0908195FFFDCFC093C60080E0A6
S11300D090E0CF910895CF93BC01E0ECF0E08081F3
S11300E08823ECF7C091C6008C2F0E9459008C2FF6
S11300F090E0CF9108951092C5008BE08093C400E6
S113010088E18093C10086E08093C2000895CF9374
S1130110DF93CAE3D2E0688179818BE190E00E94A9
S11301205B05688179818BE590E00E945B056881BD
S1130130798188E490E00E945B05688179818BE194
S113014090E00E945B05688179818BE590E00E94D4
S11301505B05688179818AE490E00E945B05DF9108
S1130160CF910895CF93DF93CAE3D2E06881798178
S11301708BE190E00E945B05688179818BE590E0DA
S11301800E945B056881798180E390E00E945B05B1
S1130190688179818DE690E00E945B05DF91CF91C3
S11301A00895FF920F931F93CF93DF93182FF62E8A
S11301B0CAE3D2E0688179818BE190E00E945B051B
S11301C0688179818BE590E00E945B051F921F9303
S11301D008E111E01F930F930E948D0568817981D6
S11301E08BE390E00E945B051F92FF921F930F9395
S11301F00E948D056881798188E490E00E945B0506
S11302008DB79EB708960FB6F8949EBF0FBE8DBFEC
S1130210DF91CF911F910F91FF900895813051F09C
S113022028F0823059F0833069F011C084EA809359
S1130230BC000DC084E88093BC0009C084EC8093AA
S1130240BC0005C084E98093BC0080E00895ECEB19
S1130250F0E080818823ECF78091B900887F0895CD
S11302600F931F93CF93DF9312E36770642B807F08
S1130270062F082BCBEBD0E002C01150C1F080E078
S11302800E940E018833C9F3883011F0803189F45B
S1130290088381E00E940E01803279F3883369F388
S11302A091E0883109F490E0892F819503C08FEFA4
S11302B001C08FEFDF91CF911F910F91089583E0DB
S11302C00E940E0108958093BB0081E00E940E01FC
S11302D091E0883209F490E0892F81950895CF93B5
S11302E0DF93EC01662331F082E00E940E01803539
S11302F059F405C081E00E940E01883539F48091DB
S1130300BB00888380E003C08FEF01C08FEFDF91D3
S1130310CF9108959DEC899F912D112496959695E2
S11303209695292F220F322F330F330F230F821B61
S113033020E1929F800D11240895CF93DF931F92A3
S1130340CDB7DEB740E060E070E080ED90E00E9461
S1130350300180E00E9463010E945F0141E060E09F
S113036070E080ED90E00E94300161E0CE010196E2
S11303700E946F0189818F7780932E0261E0CE0104
S113038001960E946F0189818F7780932F0261E02B
S1130390CE0101960E946F0189818F738093300290
S11303A061E0CE0101960E946F018981877080937C
S11303B0310261E0CE0101960E946F0189818F7341
S11303C08093320261E0CE0101960E946F0189811F
S11303D08F718093330260E0CE0101960E946F0119
S11303E08981809334020E945F010F90DF91CF9145
S11303F00895CF93DF931F92CDB7DEB740E062E05C
S113040070E080E990E00E94300180E00E94630186
S11304100E945F0141E062E070E080E990E00E94A8
S1130420300161E0CE0101960E946F0189810E9432
S11304308A018093350261E0CE0101960E946F012A
S1130440898182958F70809336020E945F010F909C
S1130450DF91CF9108950F931F93CF93DF93EEE233
S1130460F2E080818F77808340E060E070E080ED8F
S113047090E00E94300180E00E946301CEE2D2E06D
S113048005E312E089910E948A010E946301C0176A
S1130490D107C1F70E945F01DF91CF911F910F91A6
S11304A008950F931F93CF93DF9300D0CDB7DEB79A
S11304B0182F062F9E012F5F3F4F3F932F9328E164
S11304C031E03F932F930E94CE05412F50E02981C4
S11304D03A810F900F900F900F90241735072CF04E
S11304E0402F50E042175307DCF41F920F931F92E2
S11304F01F938BE191E09F938F930E948D052FEFC3
S11305008FE39BE0215080409040E1F700C0000061
S11305100F900F900F900F900F900F908FEF01C0DE
S1130520822F0F900F90DF91CF911F910F9108951B
S1130530FC01623009F047C05B9880E18EBD0DB4C8
S113054007FEFDCFA781A295AF70B0E0A25FBE4FBA
S11305508C918EBD0DB407FEFDCF5B9A5B9880E253
S11305608EBD0DB407FEFDCFA781AF70B0E0A25FD2
S1130570BE4F8C918EBD0DB407FEFDCF5B9A5B9888
S113058080E88EBD0DB407FEFDCF808590E0FC01B0
S1130590EE0FFF1F880F991F880F991F880F991F4F
S11305A0E80FF91FF595E795F595E795F595E79526
S11305B0F595E795E25FFE4F80818EBD0DB407FE91
S11305C0FDCF5B9A089561116AC05B9880E88EBD87
S11305D00DB407FEFDCFA381AF70B0E0A25FBE4FA4
S11305E08C918EBD0DB407FEFDCF5B9A5B9880E4C1
S11305F08EBD0DB407FEFDCFA381A295AF70B0E010
S1130600A25FBE4F8C918EBD0DB407FEFDCF5B9AE9
S11306105B9880E18EBD0DB407FEFDCFA481AF7061
S1130620B0E0A25FBE4F8C918EBD0DB407FEFDCF2E
S11306305B9A5B9888E08EBD0DB407FEFDCFA48164
S1130640A295AF70B0E0A25FBE4F8C918EBD0DB489
S113065007FEFDCF5B9A5B9882E08EBD0DB407FE6A
S1130660FDCFA581AF70B0E0A25FBE4F8C918EBD6F
S11306700DB407FEFDCF5B9A5B9881E08EBD0DB48F
S113068007FEFDCFE581E295EF70F0E0E25FFE4FFB
S113069080818EBD0DB407FEFDCF5B9A0895613055
S11306A009F069C05B9880E88EBD0DB407FEFDCFEC
S11306B0A081AF70B0E0A25FBE4F8C918EBD0DB42F
S11306C007FEFDCF5B9A5B9880E48EBD0DB407FEF8
S11306D0FDCFA081A295AF70B0E0A25FBE4F8C9118
S11306E08EBD0DB407FEFDCF5B9A5B9880E18EBD95
S11306F00DB407FEFDCFA181AF70B0E0A25FBE4F85
S11307008C918EBD0DB407FEFDCF5B9A5B9888E09B
S11307108EBD0DB407FEFDCFA181A295AF70B0E0F0
S1130720A25FBE4F8C918EBD0DB407FEFDCF5B9AC8
S11307305B9882E08EBD0DB407FEFDCFA281AF7041
S1130740B0E0A25FBE4F8C918EBD0DB407FEFDCF0D
S11307505B9A5B9881E08EBD0DB407FEFDCFE2810C
S1130760E295EF70F0E0E25FFE4F80818EBD0DB444
S113077007FEFDCF5B9A08951F920F920FB60F925A
S113078011242F933F934F935F936F937F938F9392
S11307909F93AF93BF93EF93FF93339912C089E96B
S11307A093E00197F1F700C0339905C080913702B7
S11307B08F5F8093370280913702833010F010925C
S11307C037020E949D010E94F901FF91EF91BF91B0
S11307D0AF919F918F917F916F915F914F913F91D5
S11307E02F910F900FBE0F901F9018951F920F928C
S11307F00FB60F9211242F933F934F935F936F93F0
S11308007F938F939F93AF93BF93EF93FF936091E5
S113081037028EE292E00E949802FF91EF91BF911D
S1130820AF919F918F917F916F915F914F913F9184
S11308302F910F900FBE0F901F9018958FEF88B9CE
S113084088E087B984E08BB98CE08AB9089584B1D3
S11308508C6284B981E58CBD1DBC089580E091E073
S1130860909339028093380290933B0280933A022A
S11308700E941E040E9427040E947B001092B9006B
S113088080E28093B80014BC1092B00095E095BD4E
S113089092E09093B10086BD1092B20081E0809303
S11308A06E0080937000789410923702D12C0F2E32
S11308B0F1E34F2EF1E05F2EF02D0F2EFEE2AF2E6E
S11308C0F2E0BF2EF02D0F2EF0E52F2EF1E03F2E9B
S11308D0F02DC4E3D2E00F2EF3E38F2EF2E09F2E2F
S11308E0F02D0F2EF2E36F2EF2E07F2EF02D0F2E5F
S11308F0F9E6EF2EF1E0FF2EF02D0BEA11E04A9914
S11309000CC08FEF93E20197F1F700C000004A9901
S113091004C0F894DD24D39402C0DD2081F30E9446
S1130920B2000E94870061E081E00E94D1005F92E2
S11309304F920E948D0561E083E00E94D100D501B1
S11309408C911F928F93EFE2F2E080811F928F933C
S1130950A0E3B2E08C911F928F933F922F920E945A
S11309608D05E1E3F2E080811F928F9388811F92CD
S11309708F93D4018C911F928F93F30180811F92E6
S11309808F93FF92EF920E948D0582E991E00E947D
S1130990A10583EA91E00E94A1051F930F930E9491
S11309A08D0565E081E00E9451022DB73EB72A5EB5
S11309B03F4F0FB6F8943EBF0FBE2DBF8230C1F13A
S11309C018F4813041F09BCF833009F46BC084303C
S11309D009F46AC094CF8BEB91E09F938F930E94AC
S11309E08D0568E180E00E945102A0E3B2E08C939F
S11309F08BEC91E09F938F930E948D056BE380E0D5
S1130A000E945102EFE2F2E080838CED91E09F932B
S1130A108F930E948D056BE380E00E945102D50103
S1130A208C930F900F900F900F900F900F9067CFB3
S1130A30ADEEB1E0BF93AF930E948D0567E081E016
S1130A400E945102A1E3B2E08C93AFEFB1E0BF93F7
S1130A50AF930E948D056FE181E00E945102D301A2
S1130A608C938EE092E09F938F930E948D056CE0AF
S1130A7081E00E945102F40180838EE192E09F9311
S1130A808F930E948D0563E680E00E945102888363
S1130A902DB73EB7285F3F4F0FB6F8943EBF0FBE49
S1130AA02DBF2DCF0E942B020E94870084E986BDB2
S1130AB07894D12C24CF0F931F93CF93DF93182FC7
S1130AC0092FEB018B8181FD03C08FEF9FEF20C0C5
S1130AD082FF10C04E815F812C813D8142175307F4
S1130AE07CF4E881F9819F012F5F3F4F398328838C
S1130AF0108306C0E885F985812F0995892B29F78C
S1130B002E813F812F5F3F4F3F832E83812F902F74
S1130B10DF91CF911F910F910895A0E0B0E0E3E938
S1130B20F5E00C945A0BFE01359661917191AF0179
S1130B3080913A0290913B020E94E205E2E00C941B
S1130B40760B0F931F93CF93DF93E0913A02F091CA
S1130B503B02238121FF1BC0EC0100E010E08991DE
S1130B6060913A0270913B02DB011896ED91FC9181
S1130B701997882331F00995892B89F30FEF1FEF1B
S1130B80EECF8AE00995892B11F4C80102C08FEFDA
S1130B909FEFDF91CF911F910F910895A0E0B0E0F6
S1130BA0E4EDF5E00C945A0BFE01359661917191D8
S1130BB0AF0180913802909139020E943209E2E03B
S1130BC00C94760BACE0B0E0E8EEF5E00C944A0B44
S1130BD07C016B018A01FC0117821682838181FFEB
S1130BE0BDC1CE0101964C01F7019381F60193FD3D
S1130BF0859193FF81916F01882309F4ABC18532FC
S1130C0039F493FD859193FF81916F01853229F425
S1130C10B70190E00E945B05E7CF512C312C20E016
S1130C202032A0F48B3269F030F4803259F08332F0
S1130C3069F420612CC08D3239F0803339F421609D
S1130C4026C02260246023C0286021C027FD27C05D
S1130C5030ED380F3A3078F426FF06C0FAE05F9E94
S1130C60300D1124532E13C08AE0389E300D112408
S1130C70332E20620CC08E3221F426FD6BC1206419
S1130C8006C08C3611F4206802C0883641F4F6019F
S1130C9093FD859193FF81916F018111C1CF982FAD
S1130CA09F7D9554933028F40C5F1F4FFFE3F98325
S1130CB00DC0833631F0833771F0833509F05BC0A2
S1130CC022C0F801808189830E5F1F4F442443941E
S1130CD0512C540115C03801F2E06F0E711CF8015B
S1130CE0A080B18026FF03C0652D70E002C06FEFC5
S1130CF07FEFC5012C870E94870A2C0183012C8574
S1130D002F77222E17C03801F2E06F0E711CF80104
S1130D10A080B18026FF03C0652D70E002C06FEF94
S1130D207FEFC5012C870E947C0A2C012C8520684A
S1130D30222E830123FC1BC0832D90E04816590604
S1130D40B0F4B70180E290E00E945B053A94F4CFDE
S1130D50F50127FC859127FE81915F01B70190E0A1
S1130D600E945B0531103A94F1E04F1A5108411486
S1130D70510471F7E5C0843611F0893639F5F8016C
S1130D8027FF07C060817181828193810C5F1F4FAF
S1130D9008C060817181882777FD8095982F0E5F48
S1130DA01F4F2F76B22E97FF09C0909580957095AE
S1130DB061957F4F8F4F9F4F2068B22E2AE030E01D
S1130DC0A4010E94E90AA82EA81844C0853729F472
S1130DD02F7EB22E2AE030E025C0F22FF97FBF2EFD
S1130DE08F36C1F018F4883579F0B4C0803719F023
S1130DF0883721F0AFC02F2F2061B22EB4FE0DC072
S1130E008B2D8460B82E09C024FF0AC09F2F9660E2
S1130E10B92E06C028E030E005C020E130E002C071
S1130E2020E132E0F801B7FE07C060817181828160
S1130E3093810C5F1F4F06C06081718180E090E058
S1130E400E5F1F4FA4010E94E90AA82EA818FB2DCB
S1130E50FF77BF2EB6FE0BC02B2D2E7FA51450F4AA
S1130E60B4FE0AC0B2FC08C02B2D2E7E05C07A2C1D
S1130E702B2D03C07A2C01C0752C24FF0DC0FE015C
S1130E80EA0DF11D8081803311F4297E09C022FF0F
S1130E9006C07394739404C0822F867809F0739407
S1130EA023FD13C020FF06C05A2C731418F4530CEE
S1130EB05718732C731468F4B70180E290E02C8700
S1130EC00E945B0573942C85F5CF731410F43718C6
S1130ED001C0312C24FF12C0B70180E390E02C87BD
S1130EE00E945B052C8522FF17C021FF03C088E503
S1130EF090E002C088E790E0B7010CC0822F8678AA
S1130F0059F021FD02C080E201C08BE227FD8DE291
S1130F10B70190E00E945B05A51438F4B70180E3A3
S1130F2090E00E945B055A94F7CFAA94F401EA0D6D
S1130F30F11D8081B70190E00E945B05A110F5CFFF
S1130F40332009F451CEB70180E290E00E945B05A2
S1130F503A94F6CFF7018681978102C08FEF9FEF15
S1130F602C96E2E10C94660B20FD09C0FC0123FDE4
S1130F7005C022FF02C073836283518340830895B6
S1130F8044FD10C046FD10C0DB01FC01AA0FBB1FCD
S1130F90EE1FFF1F1094D1F76A0F7B1F8E1F9F1F38
S1130FA031E003C033E001C034E0660F771F881FCF
S1130FB0991F3150D1F7620F711D811D911D089544
S1130FC00F931F93CF93DF938C01C8010E94920A61
S1130FD0EC0197FD08C00E94690A892BB1F7B8019A
S1130FE0CE010E94D00ACE01DF91CF911F910F91C3
S1130FF008958F929F92AF92CF92DF92EF92FF92D9
S11310000F931F93CF93DF93EC01A62E4A01022F77
S11310100E94920AAC0155274B32510521F04D3202
S1131020510551F40068AA9411F480E067C0CE0120
S11310300E94920A97FDF9CF102F1D7F302F307335
S113104001F58033F1F4FF24FA94FA0C09F442C058
S1131050CE010E94920A97FD3DC0382F3F7D38355E
S113106051F41264AA94AA94A9F1CE010E94920A9E
S113107097FF07C02FC006FF02C0126001C01261B3
S1131080AF2CC12CD12C760120ED280F283080F014
S113109014FF04C0BE010E94D00A19C02A3040F0D7
S11310A016FFF8CF2F7D3FEE320F363098F72750DA
S11310B0412FC701B6010E94C0076B017C01126079
S11310C0AA9459F0CE010E94920A97FFDDCF11FD38
S11310D004C0ABCFC12CD12C760117FF08C0F0940B
S11310E0E094D094C094C11CD11CE11CF11C212FAC
S11310F0B701A601C4010E94B40781E0DF91CF913A
S11311001F910F91FF90EF90DF90CF90AF909F9041
S11311108F900895A1E2B0E0E0E9F8E00C944F0B61
S11311205C017A018E010F5F1F4F680180E2D801D4
S11311301D928A95E9F7F501738040E050E0812C17
S1131140B0E0912C81E090E0F90173FCA59173FE6D
S1131150A1918F017A2F9F01A11103C080E090E03B
S11311607DC0AE3519F44115510559F1E92DF0E072
S1131170E417F5073CF4AD3569F1AD3219F4BB233E
S113118019F103C0B11101C08A2EE72FE695E69547
S1131190E69586010E0F111DF801A72FA7708C018B
S11311A002C0000F111FAA95E2F7D801B081BA2B33
S11311B0B083781559F0781510F47F5FE6CF71503D
S11311C0E4CF9924939403C0B1E001C0B0E04F5F31
S11311D05F4FBACFBB2319F08E8180628E8391104A
S11311E003C09924939415C0F601CE018196208101
S11311F020952193E817F907D1F7F3CFE114F1040F
S113120029F0D7018C93F70131967F01615001F1E8
S1131210912CC50169A30E94920A69A197FD16C089
S1131220282F269526952695F601E20FF11D20819B
S113123030E0AC014770552702C0359527954A9593
S1131240E2F720FDDBCFB5010E94D00A911086CFD2
S1131250E114F10411F0D7011C92C801A196EDE04C
S11312600C946B0B4F925F927F928F929F92AF92EE
S1131270BF92CF92DF92EF92FF920F931F93CF937F
S1131280DF931F92CDB7DEB78C012B017A01FC01ED
S113129017821682A12CF801D380F201D3FC859128
S11312A0D3FE8191382F2F01882309F4FCC090E0EC
S11312B039830E94690A3981892B21F0C8010E946F
S11312C0E007E9CF353241F4F201D3FC3591D3FE86
S11312D031912F01353269F4C80139830E94920A91
S11312E0398197FDDEC03817B1F2B8010E94D00AE7
S11312F0DAC03A3241F4D3FC3591D3FE31912F0157
S1131300BB24B39401C0B12C712C20ED230F2A30DF
S113131090F4FB2DF260BF2E672D70E080E090E02A
S113132040E20E94C007762EF201D3FC3591D3FE31
S113133031912F01EACFB1FE03C0711003C0B3C0D5
S113134077247A94383619F03C3661F014C0F201EF
S1131350D3FC3591D3FE31912F01383661F4FB2D46
S1131360F860BF2E8B2D8460B82EF201D3FC35912A
S1131370D3FE31912F01332309F495C0632F70E01C
S113138088E690E039830E94710A3981892B09F437
S11313908AC0B0FC07C0F701C080D180C7010296A3
S11313A07C0102C0C12CD12C3E3651F4F801468197
S11313B0578160E070E02B2DC6010E94B4076BCF0B
S11313C03336A1F4B1FC02C077247394C8010E949F
S11313D0920A97FD66C0C114D10429F0F6018083F6
S11313E0C60101966C017A9489F757C03B3559F4CC
S11313F09201A601672DC8010E948A082C0100975A
S113140009F04BC045C0C80139830E94E007398107
S113141097FD47C03F3669F128F4343631F1393647
S113142079F12BC0333769F03537F9F026C0C11490
S1131430D10429F0F6018082C60101966C017A94E8
S113144071F0C8010E94920A4C0197FD08C00E94E5
S1131450690A892B61F3B801C4010E94D00AC1143E
S1131460D104D9F0F601108218C0FB2DF062BF2E12
S113147007C08B2D8061B82E03C09B2D9064B92EBC
S11314802B2DA601672DC8010E94F907811105C003
S1131490F8018381807329F406C0B0FCFCCEA394C8
S11314A0FACEAA2019F08A2D90E002C08FEF9FEFA8
S11314B00F90DF91CF911F910F91FF90EF90DF90EC
S11314C0CF90BF90AF909F908F907F905F904F9000
S11314D008959111DCC0803219F089508550D0F7FD
S11314E00895FC010590061621F00020D9F7C001EB
S11314F008953197CF010895FC0105906150704023
S11315000110D8F7809590958E0F9F1F0895FC01C8
S11315106150704001900110D8F7809590958E0F1E
S11315209F1F0895CF93DF93EC012B8120FF33C0DD
S113153026FF0AC02F7B2B838E819F8101969F8378
S11315408E838A8190E029C022FF0FC0E881F9814F
S11315508081992787FD9095009719F420622B8349
S11315601AC03196F983E8830EC0EA85FB85099594
S113157097FF09C02B81019611F480E101C080E23C
S1131580822B8B8308C02E813F812F5F3F4F3F8387
S11315902E83992702C08FEF9FEFDF91CF9108959B
S11315A0FB01238120FF12C026FD10C08F3F3FEFB7
S11315B0930761F082832F7D206423832681378102
S11315C02150310937832683992708958FEF9FEFA0
S11315D00895FA01AA27283051F1203181F1E894C5
S11315E06F936E7F6E5F7F4F8F4F9F4FAF4FB1E012
S11315F03ED0B4E03CD0670F781F891F9A1FA11D0D
S1131600680F791F8A1F911DA11D6A0F711D811D0D
S1131610911DA11D20D009F468943F912AE0269FD2
S113162011243019305D3193DEF6CF010895462F31
S11316304770405D4193B3E00FD0C9F7F6CF462F12
S11316404F70405D4A3318F0495D31FD405241937B
S113165002D0A9F7EACFB4E0A69597958795779538
S11316606795BA95C9F700976105710508959B01BF
S1131670AC010A2E06945795479537952795BA9548
S1131680C9F7620F731F841F951FA01D0895992722
S1131690882708952F923F924F925F926F927F9284
S11316A08F929F92AF92BF92CF92DF92EF92FF926E
S11316B00F931F93CF93DF93CDB7DEB7CA1BDB0B1A
S11316C00FB6F894DEBF0FBECDBF09942A883988BF
S11316D048885F846E847D848C849B84AA84B984C6
S11316E0C884DF80EE80FD800C811B81AA81B981D2
S11316F0CE0FD11D0FB6F894DEBF0FBECDBFED01E6
S10917000895F894FFCFE8
S1131706000000030000000059006B0000003F06C3
S11317165B4F666D7D077F6F2564000A0A496E7606
S1131726616C6964205B256420746F2025645D21E7
S113173600415652204D6567613136385041204D7F
S1131746343154303020525443205365747570003C
S1131756312E2054696D653A20253032643A25309D
S113176632643A253032640A00322E2044617465AC
S11317763A20253032642D253032642D323025301E
S113178632642C205765656B204461793A202564C0
S11317960A00332E205361766520616E64204578F5
S11317A6697400342E2045786974000A456E7465A0
S11317B6722043686F6963653A20000A0A486F75A8
S11317C672205B302D32345D3A20000A4D696E7505
S11317D67465205B302D35395D3A20000A53656304
S11317E66F6E64205B302D35395D3A20000A0A5746
S11317F665656B446179205B312D375D3A20000ABB
S113180644617465205B312D33315D3A20000A4D05
S11318166F6E7468205B312D31325D3A20000A59AF
S1111826656172205B302D39395D3A20000077
S9030000FC
