:100000000C9499000C9442070C9469070C94900787
:100010000C94C1000C94C1000C94C1000C94C1005C
:100020000C94C1000C94C1000C94C1000C94C1004C
:100030000C94C1000C94C1000C94C1000C94C1003C
:100040000C94C1000C94C1000C94B7070C94C1002F
:100050000C94A10A0C94D30A0C94C1000C94C10016
:100060000C94C1000C94C1000C9481030C94C10049
:100070000C94C1000C94C1000C94C100FC04130545
:10008000130510051305FA04130513051305EE04F3
:100090001305130503050E050C05130513051305BC
:1000A0000A05417072203230203230313900303947
:1000B0003A30343A30320000000002030000000001
:1000C0000000000504090800000000000000000016
:1000D0000000000000000001020408102040800120
:1000E0000204081020408001020408102040800112
:1000F00002040810204080020202020202020204EE
:1001000004040404040404030303030303030301BA
:100110000101010101010100002200250028002B3E
:100120000000002100240027002A0000630198023B
:10013000030B11241FBECFEFD0E1DEBFCDBF11E016
:10014000A0E0B1E0E8E6F8E102C005900D92A63328
:10015000B107D9F722E0A6E3B1E001C01D92A13DAD
:10016000B207E1F710E0C9E9D0E004C02197FE0131
:100170000E941C0CC639D107C9F70E94310B0C94A0
:10018000320C0C94000081E0809336010895CF93E7
:10019000DF9300D000D000D0CDB7DEB78BE691E082
:1001A0000E94030262E082E00E94C60842E050E042
:1001B00063EC70E082E00E9413071092360126E0A3
:1001C00040E056E960E070E084E392E00E94410A7A
:1001D0000E943F054EEA50E062EA70E0CE010196CF
:1001E0000E94C204CE0101960E94FC0526960FB61D
:1001F000F894DEBF0FBECDBFDF91CF910895CF93AE
:10020000DF9300D000D000D0CDB7DEB7CE0101968D
:100210000E947A05698170E06053784F4AE050E0AF
:1002200084E392E00E94E70B6FE284E392E00E9495
:100230007F0B4AE050E06A8184E392E00E94E00B89
:100240006FE284E392E00E947F0B4AE050E06B8112
:1002500084E392E00E94E00B60E284E392E00E947B
:100260007F0B4AE050E06C8184E392E00E94E00B57
:100270006AE384E392E00E947F0B4AE050E06D81E4
:1002800084E392E00E94E00B6AE384E392E00E9440
:100290007F0B4AE050E06E8184E392E00E94E00B25
:1002A00084E392E00E94860B68EB7BE080E090E0C4
:1002B0000E94260826960FB6F894DEBF0FBECDBF6B
:1002C000DF91CF91089548E050E060E070E087E36F
:1002D00091E00C94FF0680919B0190E020919C019D
:1002E000821B9109089590919C0180919B01981720
:1002F00050F4E92FF0E0E356FE4F208130E09F5F9D
:1003000090939C0102C02FEF3FEFC9010895E09147
:100310009C0180919B01E81730F4F0E0E356FE4F1A
:10032000808190E008958FEF9FEF08950895CF9218
:10033000DF92EF92FF920F931F93CF93DF937C0195
:10034000CB018A0120917701222389F0EB016B0117
:10035000C40ED51ECC15DD0569F06991D701ED916C
:10036000FC910190F081E02DC7010995F3CF642F36
:100370000E945803C801DF91CF911F910F91FF9008
:10038000EF90DF90CF900895CF93DF931F92CDB77A
:10039000DEB76983209177012223D1F02091780183
:1003A000203240F021E030E0FC013383228380E002
:1003B00090E015C080917901E82FF0E0E658FE4FFB
:1003C000998190838F5F809379018093780105C034
:1003D00061E0CE0101960E94580381E090E00F9009
:1003E000DF91CF910895FC011382128288EE93E091
:1003F000A0E0B0E084839583A683B7838AE091E090
:1004000091838083089510929C0110929B01109219
:100410007901109278010C949C0281E0809377011D
:1004200060939A01109279011092780108950C94CA
:100430000D020F93062F21E0409178016AE771E0E9
:1004400080919A010E940203109279011092780122
:10045000109277010F9108954F925F926F927F9261
:10046000AF92BF92CF92EF92FF920F931F93CF93D1
:10047000DF935C01F62ED42F28013901EE2021F103
:100480000E940D02CE2DC43008F0C3E0C150C0F070
:1004900028E0C29FC0011124A301920104C0569517
:1004A0004795379527958A95D2F7CA01B901D501A5
:1004B000ED91FC910190F081E02DC5010995E6CF09
:1004C00060E0C5010E9419024D2FD13208F040E2D0
:1004D0002C2D6DE971E08F2D0E94BA0210929C01C3
:1004E00080939B01DF91CF911F910F91FF90EF902F
:1004F000CF90BF90AF907F906F905F904F90089596
:10050000CF92EF920F931F93C22EE12C00E010E0E8
:1005100098010E942C021F910F91EF90CF900895A7
:1005200021E00C9480020C94800261E00C9419028A
:100530008BE691E00C94F30110922A0281E0809303
:1005400028021092270261E081E10E94020961E025
:1005500080E10E940209E9EBF0E080818E7F8083D8
:1005600080818D7F808380E28093B80085E48093D2
:10057000BC000895413208F043C090912A029111C5
:10058000FCCF91E090932A02209328022FEF209332
:10059000BD0110920202240F2093010290932902C0
:1005A00090912902880F892B80932902809127023C
:1005B000813061F410922702809129028093BB0060
:1005C0008091BC0083FDF8CF85EC01C085EE80935F
:1005D000BC0080912A028130E1F3809102028417ED
:1005E00010F440910202A3E0B2E0962FFB018E2F9F
:1005F000891B841718F48D918193F9CF842F089566
:1006000080E008950F93413208F04AC090912A0289
:100610009111FCCF32E030932A02009328023FEF81
:100620003093BD011092020240930102562FA3E0C5
:10063000B2E0FB013E2F351B341718F431913D9386
:10064000F9CF1092290230912902880F832B8093D1
:10065000290280912702813061F410922702809153
:1006600029028093BB008091BC0083FDF8CF85EC0C
:1006700001C085EE8093BC00222321F080912A02E4
:100680008230D1F38091BD018F3F79F08091BD011F
:10069000803241F08091BD01803331F094E005C09B
:1006A00091E003C092E001C093E0892F0F9108957B
:1006B000613298F420912A02243089F46093DF019A
:1006C000282FA1EEB1E0FC018E2F821B861718F4B3
:1006D00081918D93F9CF80E0089581E0089582E0C3
:1006E000089585ED8093BC008091BC0084FDFCCF13
:1006F00010922A02089585EC8093BC0010922A0281
:1007000008951F920F920FB60F9211242F933F93CB
:100710004F935F936F937F938F939F93AF93BF9309
:10072000EF93FF938091B900887F803609F49EC0D3
:1007300078F5883209F45DC090F4803109F456C030
:1007400038F4882309F4F5C0883009F44FC0F5C0A7
:10075000883109F44EC0803209F45FC0EEC08034A5
:1007600009F46AC058F4803309F457C0883309F09B
:10077000E4C08093BD010E947B03DFC0803509F493
:100780004FC0883509F45DC0883409F0D6C0D3C0A5
:10079000883909F4C4C0A8F4883709F467C038F46C
:1007A000883609F463C0803709F460C0C6C0883851
:1007B00009F4B5C0803909F45FC0803809F0BDC0C4
:1007C0005BC0803B09F483C038F4803A09F466C00A
:1007D000883A09F47CC0B1C0803C09F4A4C0883CCC
:1007E00009F4A1C0883B09F487C0A7C08091290201
:1007F00010C09091020280910102981770F5E0916B
:10080000020281E08E0F80930202F0E0ED5FFD4F67
:1008100080818093BB0085EC83C08093BD018BC039
:10082000E091020281E08E0F809302028091BB0072
:10083000F0E0ED5FFD4F8083909102028091010214
:100840006BC0E091020281E08E0F809302028091E2
:10085000BB00F0E0ED5FFD4F8083809128028111A5
:100860006AC081E08093270284EA5EC083E08093BF
:100870002A021092BE01CFCF8091BE01803208F0D3
:100880004EC0E091BE0181E08E0F8093BE01809149
:10089000BB00F0E0E154FE4F8083BDCF0E947B039C
:1008A0008091BE01803230F4E091BE01F0E0E1546D
:1008B000FE4F10826091BE0170E0E0912302F09142
:1008C00024028FEB91E009951092BE0136C084E0BE
:1008D00080932A021092E0011092DF01E09125023C
:1008E000F091260209958091DF01811105C081E018
:1008F0008093DF011092E101E091E00181E08E0F31
:100900008093E001F0E0EF51FE4F80818093BB00C7
:100910009091E0018091DF01981708F47CCF85E881
:100920008093BC000AC085EC8093BC0010922A0220
:1009300004C01092BD010E947103FF91EF91BF911D
:10094000AF919F918F917F916F915F914F913F9167
:100950002F910F900FBE0F901F901895FC01908162
:1009600090539A3008F090E0818180532AE0929F62
:10097000800D11240895DC01ED91FC910190F0812E
:10098000E02D0994EF92FF920F931F93CF93DF9383
:10099000CDB7DEB72B970FB6F894DEBF0FBECDBF35
:1009A0008C017A014BE050E0CE0101960E94220CAE
:1009B000CE010A960E94AE04F8018083E9818E2F51
:1009C000EE0F990BAA0BBB0BFC01E154F109E331CB
:1009D000F10548F5E25CFF4F0C941C0C8A818136CE
:1009E00039F08B818E3611F087E01BC086E019C08C
:1009F00081E017C082E015C08B81823711F088E05A
:100A000010C084E00EC08B81823711F085E009C0F0
:100A100083E007C089E005C08AE003C08BE001C025
:100A20008CE0F8018183CE0105960E94AE04F801A6
:100A3000828348E050E0B701CE0101960E94220C6B
:100A4000CE0101960E94AE04F8018383CE01049684
:100A50000E94AE04F8018483CE0107960E94AE0482
:100A6000F80185832B960FB6F894DEBF0FBECDBF7D
:100A7000DF91CF911F910F91FF90EF900895CF9349
:100A8000DF9368E670E08BE691E00E94170268E071
:100A900070E08BE691E00E94BB048BE691E00E943F
:100AA000950241E050E068E670E08BE691E00E943C
:100AB00090028BE691E00E947301EC0187FF16C063
:100AC00068E670E08BE691E00E94170268E070E053
:100AD0008BE691E00E94BB04BE0160688BE691E06A
:100AE0000E94BB048BE691E00E94950281E0DF91B9
:100AF000CF910895CF92DF92EF92FF920F931F93C1
:100B0000CF93DF93EC0168E670E08BE691E00E9402
:100B1000170261E070E08BE691E00E94BB048BE677
:100B200091E00E94950221E030E047E050E068E665
:100B300070E08BE691E00E9493028BE691E00E94C8
:100B400073018F77982F92959F701AEF082F919FBE
:100B5000000D11248BE691E00E9473018F77982F8E
:100B600092959F70C82E919FC00C11248BE691E046
:100B70000E9473018F73982F92959F70D82E919F2A
:100B8000D00C11248BE691E00E9473018BE691E07A
:100B90000E9473018F73982F92959F70F82E919FEA
:100BA000F00C11248BE691E00E9473018F71982F55
:100BB00092959F70E82E919FE00C11248BE691E0B6
:100BC0000E9473019C01332794E0359527959A95EF
:100BD000E1F7129F800D11248883E982FA82DB827B
:100BE000CC820D83CE01DF91CF911F910F91FF90A9
:100BF000EF90DF90CF900895EF92FF920F931F93A5
:100C0000CF938C0168E670E08BE691E00E941702BA
:100C100064E070E08BE691E00E94BB048BE691E01B
:100C20000E94950241E050E068E670E08BE691E0BA
:100C30000E9490028BE691E00E9473017C0168E6BD
:100C400070E08BE691E00E94170261E070E08BE6B5
:100C500091E00E94BB04F8012581CAE0822F6C2F2D
:100C60000E94EE0B682F660F860F880F682F620FA9
:100C70008BE691E00E94C401F8012481822F6C2F41
:100C80000E94EE0B682F660F860F880F682F620F89
:100C90008BE691E00E94C401F8012381822F6C2F22
:100CA0000E94EE0B682F660F860F880F682F620F69
:100CB0008BE691E00E94C401B7018BE691E00E94AF
:100CC000BB04F8012281822F6C2F0E94EE0B682F4B
:100CD000660F860F880F682F620F8BE691E00E94E7
:100CE000C401F8012181822F6C2F0E94EE0B682F26
:100CF000660F860F880F682F620F8BE691E00E94C7
:100D0000C401F8012081822F6C2F0E94EE0B682F06
:100D1000660F860F880F682F620F8BE691E00E94A6
:100D2000C4018BE691E0CF911F910F91FF90EF905E
:100D30000C949502CF93DF93EC0160E088810E94D0
:100D4000020920E041E06A818C810E94310920E0A3
:100D500041E06A818C810E94310961E08881DF91E4
:100D6000CF910C940209CF93DF93EC01862F688317
:100D700079835B834A833D832C8361E00E94C608AC
:100D800061E08A810E94C60861E08C810E94C608E9
:100D9000CE01DF91CF910C949A06EF92FF920F93C0
:100DA0001F93CF93DF93EC010E94B306CE018C9684
:100DB00061E00115110509F460E0619570E048E01B
:100DC00050E00E942B0C88E0E816F1041CF49E2DE4
:100DD0008F2D02C098E080E01F830E83988789875B
:100DE00021E030E03B872A879C878D871D8E1C8EF3
:100DF000DF91CF911F910F91FF90EF900895EF92A7
:100E0000FF920F931F937A018B0125E030E047E0BA
:100E100050E066E070E00E94CD061F910F91FF90B8
:100E2000EF9008950895833060F5E82FF0E0EE0F1D
:100E3000FF1FE050FF4F71836083813051F082309B
:100E4000A1F0809169008C7F482B40936900E89A5B
:100E5000089580916900837F440F551F440F551FEB
:100E6000482B40936900E99A0895809169008F7C2E
:100E700094E0440F551F9A95E1F7482B4093690081
:100E8000EA9A08951F920F920FB60F9211242F9392
:100E90003F934F935F936F937F938F939F93AF9302
:100EA000BF93EF93FF93E0910001F0910101099549
:100EB000FF91EF91BF91AF919F918F917F916F9132
:100EC0005F914F913F912F910F900FBE0F901F9008
:100ED00018951F920F920FB60F9211242F933F93E4
:100EE0004F935F936F937F938F939F93AF93BF9332
:100EF000EF93FF93E0910201F09103010995FF91B7
:100F0000EF91BF91AF919F918F917F916F915F9181
:100F10004F913F912F910F900FBE0F901F901895FA
:100F20001F920F920FB60F9211242F933F934F935E
:100F30005F936F937F938F939F93AF93BF93EF9341
:100F4000FF93E0910401F09105010995FF91EF9164
:100F5000BF91AF919F918F917F916F915F914F91D1
:100F60003F912F910F900FBE0F901F9018951F92D9
:100F70000F920FB60F9211242F933F938F939F934D
:100F8000AF93BF9380912C0290912D02A0912E02DD
:100F9000B0912F0230912B0226E0230F2D3720F441
:100FA0000296A11DB11D05C029E8230F0396A11DBE
:100FB000B11D20932B0280932C0290932D02A093BD
:100FC0002E02B0932F028091300290913102A091B5
:100FD0003202B09133020196A11DB11D80933002FF
:100FE00090933102A0933202B0933302BF91AF913C
:100FF0009F918F913F912F910F900FBE0F901F9057
:1010000018953FB7F8948091300290913102A091E9
:101010003202B091330226B5A89B05C02F3F19F0CC
:101020000196A11DB11D3FBFBA2FA92F982F882768
:10103000820F911DA11DB11DBC01CD0143E0660FC2
:10104000771F881F991F4A95D1F708958F929F9215
:10105000AF92BF92CF92DF92EF92FF926B017C0131
:101060000E9401084B015C01C114D104E104F104A8
:1010700001F10E94ED0B0E940108DC01CB018819EF
:101080009909AA09BB09883E9340A105B10560F3FF
:1010900021E0C21AD108E108F10888EE880E83E049
:1010A000981EA11CB11CC114D104E104F10419F76C
:1010B000DBCFFF90EF90DF90CF90BF90AF909F90ED
:1010C0008F900895789484B5826084BD84B58160E2
:1010D00084BD85B5826085BD85B5816085BDEEE640
:1010E000F0E0808181608083E1E8F0E0108280811F
:1010F00082608083808181608083E0E8F0E080818D
:1011000081608083E1EBF0E0808184608083E0EBAC
:10111000F0E0808181608083EAE7F0E08081846094
:10112000808380818260808380818E7F80838081C4
:10113000806880831092C1000895843081F028F483
:10114000823099F08330A1F008958830A9F0893079
:10115000B9F08530D1F4809180008F7D03C08091FB
:1011600080008F7780938000089584B58F7702C0C8
:1011700084B58F7D84BD08958091B0008F7703C0C2
:101180008091B0008F7D8093B0000895CF93DF935E
:1011900090E0FC01E952FF4F2491FC01E950FF4F20
:1011A0008491882361F190E0880F991FFC01EF5D25
:1011B000FE4FC591D491FC01E95EFE4FA591B4911B
:1011C000611109C09FB7F894888120958223888394
:1011D000EC912E230BC0623061F49FB7F8948881A4
:1011E000322F309583238883EC912E2B2C939FBF35
:1011F00006C08FB7F894E8812E2B28838FBFDF912C
:10120000CF9108951F93CF93DF93282F30E0F901FA
:10121000E954FF4F8491F901E952FF4FD491F9014C
:10122000E950FF4FC491CC23C1F0162F81110E94C9
:101230009D08EC2FF0E0EE0FFF1FE95EFE4FA59139
:10124000B4919FB7F894111104C08C91D095D82314
:1012500002C0EC91DE2BDC939FBFDF91CF911F91F9
:101260000895BF92CF92DF92EF92FF920F931F9358
:10127000CF93DF93C82ED62EB42EC7E0D0E0022F36
:1012800010E087E0E82EF12CB11005C0C7018C1BDF
:101290009D0BB80102C0B8018C2F02C075956795EF
:1012A0008A95E2F761708C2D0E94020961E08D2D14
:1012B0000E94020960E08D2D0E940209219720F70B
:1012C000DF91CF911F910F91FF90EF90DF90CF9022
:1012D000BF900895FC01918D228D892F90E0805C54
:1012E0009F4F821B91098F7399270895FC01918D5F
:1012F000828D981731F0828DE80FF11D858D90E079
:1013000008958FEF9FEF0895FC01918D828D9817BE
:1013100061F0828DDF01A80FB11D5D968C91928DD9
:101320009F5F9F73928F90E008958FEF9FEF0895D6
:1013300089EF9AE0892B41F080E090E0892B21F041
:101340000E94F90A81110DC080E090E0892B71F0B4
:1013500080E090E0892B51F00E940000811104C0D0
:1013600008950E940000F0CF0C9400000895FC0145
:10137000848DDF01A80FB11DA35ABF4F2C91848D1E
:1013800090E001968F739927848FA689B7892C9353
:10139000A089B1898C9180648C93938D848D9813EE
:1013A00006C00288F389E02D80818F7D80830895B7
:1013B000EF92FF920F931F93CF93DF93EC0181E0A5
:1013C000888F9B8D8C8D981305C0E889F989808161
:1013D00085FD24C0F62E0B8D10E00F5F1F4F0F739D
:1013E0001127E02E8C8DE8120CC00FB607FCFACF47
:1013F000E889F989808185FFF5CFCE010E94B70980
:10140000F1CF8B8DFE01E80FF11DE35AFF4FF08203
:101410000B8FEA89FB898081806207C0EE89FF8992
:101420006083E889F98980818064808381E090E02D
:10143000DF91CF911F910F91FF90EF900895CF937F
:10144000DF93EC01888D8823C9F0EA89FB898081CC
:1014500085FD05C0A889B9898C9186FD0FC00FB69E
:1014600007FCF5CF808185FFF2CFA889B9898C91DF
:1014700085FFEDCFCE010E94B709E7CFDF91CF9175
:101480000895CF92DF92EF92FF921F93CF93DF9355
:10149000EC016A017B01122F60E874E88EE190E0B4
:1014A000A70196010E94FA0BDA01C9010197A1096F
:1014B000B109B695A795979587959C01E889F98913
:1014C00082E08083211580E13807A8F0E889F98956
:1014D000108260E472E48FE090E0A70196010E9420
:1014E000FA0BDA01C9010197A109B109B695A795CF
:1014F000979587959C01EC85FD853083EE85FF856A
:101500002083188EEC89FD891083EA89FB8980810C
:1015100080618083EA89FB89808188608083EA8991
:10152000FB89808180688083EA89FB8980818F7D47
:101530008083DF91CF911F91FF90EF90DF90CF904C
:1015400008951F920F920FB60F9211242F938F932D
:101550009F93EF93FF93E0914402F09145028081C5
:10156000E0914A02F0914B0282FD12C0908180917D
:101570004D028F5F8F7320914E02821751F0E091E0
:101580004D02F0E0EC5CFD4F958F80934D0201C061
:101590008081FF91EF919F918F912F910F900FBEBE
:1015A0000F901F9018951F920F920FB60F92112453
:1015B0002F933F934F935F936F937F938F939F935B
:1015C000AF93BF93EF93FF9384E392E00E94B70938
:1015D000FF91EF91BF91AF919F918F917F916F910B
:1015E0005F914F913F912F910F900FBE0F901F90E1
:1015F000189584E392E00E946A0921E0892B09F49E
:1016000020E0822F0895E4E3F2E01382128288EE54
:1016100093E0A0E0B0E084839583A683B7838AE15A
:1016200091E09183808385EC90E09587848784ECBA
:1016300090E09787868780EC90E0918B808B81EC9F
:1016400090E0938B828B82EC90E0958B848B86EC80
:1016500090E0978B868B118E128E138E148E0895C8
:1016600008950E9462080E94300B0E94C700C8E9DA
:10167000D9E00E94FF002097E1F30E949809F9CF7A
:10168000CF92DF92EF92FF920F931F93CF93DF934E
:101690006C017A018B01C0E0D0E0CE15DF0581F04E
:1016A000D8016D918D01D601ED91FC910190F081F1
:1016B000E02DC6010995892B11F02196EECF7E0110
:1016C000C701DF91CF911F910F91FF90EF90DF90B5
:1016D000CF9008956115710579F0FB01019000200C
:1016E000E9F73197AF01461B570BDC01ED91FC91F7
:1016F0000280F381E02D099480E090E00895DC0100
:10170000ED91FC910190F081E02D099466E271E089
:101710000C946A0B8F929F92AF92BF92EF92FF92BE
:101720000F931F93CF93DF93CDB7DEB7A1970FB67B
:10173000F894DEBF0FBECDBF7C01FA01CB0119A228
:10174000223008F42AE08E010F5D1F4F822E912C6B
:10175000A12CB12CBF01A50194010E94FA0BF90143
:10176000CA01015011096A3014F4605D01C0695C5E
:10177000D8016C93232B242B252B61F7B801C701CB
:101780000E946A0BA1960FB6F894DEBF0FBECDBFC4
:10179000DF91CF911F910F91FF90EF90BF90AF908D
:1017A0009F908F9008952115310541F4DC01ED9152
:1017B000FC910190F081E02D642F09940C948A0B28
:1017C0009A01462F50E060E070E00C94D30B9A0130
:1017D000AB0160E070E00C94D30B0895991B79E0A5
:1017E00004C0991F961708F0961B881F7A95C9F7B1
:1017F00080950895A1E21A2EAA1BBB1BFD010DC006
:10180000AA1FBB1FEE1FFF1FA217B307E407F507B0
:1018100020F0A21BB30BE40BF50B661F771F881F8C
:10182000991F1A9469F760957095809590959B0122
:10183000AC01BD01CF010895EE0FFF1F0590F4919B
:10184000E02D0994FB01DC0102C005900D9241508E
:101850005040D8F70895DC0101C06D9341505040CD
:08186000E0F70895F894FFCFB2
:1018680012070000000000000000C40197016B018E
:1018780073018701960100000000D809400B6A092E
:10188800840976091F0A0D0A006E616E00696E668A
:06189800006F76660000FF
:00000001FF
