:1000000012C019C018C017C016C015C014C013C044
:1000100012C011C010C00FC00EC00DC00CC00BC06C
:100020000AC009C008C011241FBECFE5D4E0DEBF5E
:10003000CDBF2DD035C0E4CF8230910548F408956E
:100040004150F1F72F5F3F4F2817390721F40895EA
:1000500021E030E05FEF452FF3CF982F9F7398BBDF
:10006000882314F4AB9A01C0AB9886FF02C0AA9A09
:10007000089585B3847085BB08958FEF87BB18BA48
:100080009CE094BB93EF95BB11BA82BB08951F937C
:10009000F4DF11E081E0E1DF110FE1F711E0FACFC9
:0400A000F894FFCF02
:00000001FF
