:100000000C947A000C94A2000C94A2000C94A20010
:100010000C94A2000C94A2000C94A2000C94A200D8
:100020000C94A2000C94D7080C94A2000C94A2008B
:100030000C94A2000C94A2000C94A2000C94A200B8
:100040000C94A2000C94A2000C94BB020C94A2008D
:100050000C946C050C949E050C94A2000C94A200C8
:100060000C94A2000C94A2000C94A2000C94A20088
:100070000C94A2000C94A2000C94A20000000002B8
:100080000300000000000000050409080000000053
:100090000000000000000000000000000102040851
:1000A0001020408001020408102040800102040852
:1000B0001020408001020408102040800202020249
:1000C00002020202040404040404040403030303FC
:1000D00003030303010101010101010100002200EA
:1000E000250028002B0000002100240027002A0002
:1000F0000200CE0511241FBECFEFD0E1DEBFCDBF81
:1001000011E0A0E0B1E0EEE7F3E102C005900D924E
:10011000A631B107D9F721E0A6E1B1E001C01D92F7
:10012000A13DB207E1F710E0CAE7D0E004C0219793
:10013000FE010E94A809C937D107C9F70E94FC0532
:100140000C94BD090C94000061E083E00E94CA0396
:1001500026E040E056E960E070E08FE191E00C9429
:100160000C05CF93DF93EB0120E030E0A901BC0147
:1001700083E00E943506609103017091040188EECE
:1001800093E00E9434092FE0269FC001279F900D25
:1001900011248C9FB0018D9F700D9C9F700D1124B8
:1001A000072E000C880B990BDF91CF910C942A033A
:1001B000CF93DF93EC0183E00E94C20860910301BA
:1001C0007091040188EE93E00E9434092FE0269F8D
:1001D000C001279F900D11248C9FB0018D9F700D41
:1001E0009C9F700D1124072E000C880B990BDF913A
:1001F000CF910C942A0362E070E087E295E00E94C0
:10020000B10062E070E08DED94E00E94B10062E028
:1002100070E087E295E00E94B10062E070E08DED51
:1002200094E00E94B10062E070E087E295E00E94F5
:10023000B10062E070E08CED93E00E94B10062E0FA
:1002400070E087E994E00E94B10062E070E087E12D
:1002500094E00E94B10062E070E08CED90E00E94BA
:10026000B10062E070E08AE491E00E94B10062E0D7
:1002700070E088EB91E00E94B10062E070E08BE0FA
:1002800092E00E94B10062E070E083E992E00E9497
:10029000B10062E070E080E793E00E94B10062E0AC
:1002A00070E085EA90E00E94B10062E070E08AE4CC
:1002B00091E00E94B10062E070E08FE991E00E945D
:1002C000B10062E070E083E992E00E94B10062E078
:1002D00070E08FE393E00E94B10062E070E08CED8B
:1002E00093E00E94B10062E070E08CED90E00E942B
:1002F000B10062E070E08AE491E00E94B10062E047
:1003000070E088EB91E00E94B10062E070E083E968
:1003100092E00E94B10062E070E087E295E00E9406
:10032000B10062E070E08DED94E00E94B10062E007
:1003300070E087E295E00E94B10062E070E08DED30
:1003400094E00E94B10062E070E087E295E00E94D4
:10035000B10062E070E08CED93E00E94B10062E0D9
:1003600070E087E994E00E94B10062E070E087E10C
:1003700094E00E94B10062E070E08CED90E00E9499
:10038000B10062E070E08AE491E00E94B10062E0B6
:1003900070E088EB91E00E94B10062E070E08BE0D9
:1003A00092E00E94B10062E070E083E992E00E9476
:1003B000B10062E070E080E793E00E94B10062E08B
:1003C00070E085EA90E00E94B10062E070E08AE4AB
:1003D00091E00E94B10062E070E08FE991E00E943C
:1003E000B10062E070E083E992E00E94B10062E057
:1003F00070E08FE393E00E94B10062E070E08CED6A
:1004000093E00E94B10062E070E08CED90E00E9409
:10041000B10062E070E08AE491E00E94B10062E025
:1004200070E088EB91E00E94B10062E070E083E947
:1004300092E00E94B10062E070E087E194E00E94E7
:10044000B10062E070E087E994E00E94B10062E0F0
:1004500070E086E091E00E94B10062E070E088E820
:1004600091E00E94B10062E070E08BE092E00E94B7
:10047000B10062E070E080E193E00E94B10062E0D0
:1004800070E085E795E00E94B10062E070E087E2ED
:1004900095E00E94B10062E070E084EC90E00E9480
:1004A000B10062E070E088E891E00E94B10062E093
:1004B00070E08EEE91E00E94B10062E070E08AEBA5
:1004C00092E00E94B10062E070E087E295E00E9455
:1004D000B10062E070E087E994E00E94B10062E060
:1004E00070E08CED90E00E94B10062E070E08AE480
:1004F00091E00E94B10062E070E088EB91E00E9420
:10050000B10062E070E083E992E00E94B10062E035
:1005100070E087E994E00E94B10062E070E087E15A
:1005200094E00E94B10062E070E085EA90E00E94F1
:10053000B10062E070E08AE491E00E94B10062E004
:1005400070E080E793E00E94B10082E090E00E94BA
:10055000D80083E00E94C20880910201811101C08D
:10056000FFCF6091000170910101072E000C880BF4
:10057000990B0C942A031F920F920FB60F9211241D
:100580002F933F938F939F93AF93BF9380911701C6
:1005900090911801A0911901B0911A0130911601A2
:1005A00026E0230F2D3720F40296A11DB11D05C0B2
:1005B00029E8230F0396A11DB11D209316018093F6
:1005C000170190931801A0931901B0931A0180911B
:1005D0001B0190911C01A0911D01B0911E0101967B
:1005E000A11DB11D80931B0190931C01A0931D01BF
:1005F000B0931E01BF91AF919F918F913F912F9129
:100600000F900FBE0F901F9018953FB7F8948091F0
:100610001B0190911C01A0911D01B0911E0126B5F6
:10062000A89B05C02F3F19F00196A11DB11D3FBF2A
:10063000BA2FA92F982F8827820F911DA11DB11DB8
:10064000BC01CD0143E0660F771F881F991F4A95B3
:10065000D1F708958F929F92AF92BF92CF92DF927F
:10066000EF92FF926B017C010E9405034B015C013C
:10067000C114D104E104F10401F10E9433090E9484
:100680000503DC01CB0188199909AA09BB09883E39
:100690009340A105B10560F321E0C21AD108E10839
:1006A000F10888EE880E83E0981EA11CB11CC114CD
:1006B000D104E104F10419F7DBCFFF90EF90DF9054
:1006C000CF90BF90AF909F908F900895789484B50D
:1006D000826084BD84B5816084BD85B5826085BD3E
:1006E00085B5816085BDEEE6F0E080818160808324
:1006F000E1E8F0E010828081826080838081816007
:100700008083E0E8F0E0808181608083E1EBF0E0CD
:10071000808184608083E0EBF0E080818160808371
:10072000EAE7F0E08081846080838081826080835A
:1007300080818E7F80838081806880831092C10059
:100740000895843081F028F4823099F08330A1F04C
:1007500008958830A9F08930B9F08530D1F48091BE
:1007600080008F7D03C0809180008F778093800010
:10077000089584B58F7702C084B58F7D84BD0895B8
:100780008091B0008F7703C08091B0008F7D8093FF
:10079000B0000895CF93DF9390E0FC01E456FF4F43
:1007A0002491FC01E454FF4F8491882361F190E08F
:1007B000880F991FFC01EA51FF4FC591D491FC01AC
:1007C000E452FF4FA591B491611109C09FB7F8940D
:1007D0008881209582238883EC912E230BC0623080
:1007E00061F49FB7F8948881322F309583238883F2
:1007F000EC912E2B2C939FBF06C08FB7F894E88105
:100800002E2B28838FBFDF91CF9108951F93CF9315
:10081000DF93282F30E0F901E458FF4F8491F9016C
:10082000E456FF4FD491F901E454FF4FC491CC2317
:10083000C1F0162F81110E94A103EC2FF0E0EE0F02
:10084000FF1FE452FF4FA591B4919FB7F894111187
:1008500004C08C91D095D82302C0EC91DE2BDC93A0
:100860009FBFDF91CF911F910895FC01918D228D43
:10087000892F90E0805C9F4F821B91098F7399278D
:100880000895FC01918D828D981731F0828DE80FCB
:10089000F11D858D90E008958FEF9FEF0895FC0185
:1008A000918D828D981761F0828DDF01A80FB11DA7
:1008B0005D968C91928D9F5F9F73928F90E00895CB
:1008C0008FEF9FEF089584EC95E0892B41F080E055
:1008D00090E0892B21F00E94C40581110DC080E0B9
:1008E00090E0892B71F080E090E0892B51F00E941C
:1008F0000000811104C008950E940000F0CF0C9404
:1009000000000895FC01848DDF01A80FB11DA35ADA
:10091000BF4F2C91848D90E001968F739927848F1F
:10092000A689B7892C93A089B1898C9180648C9316
:10093000938D848D981306C00288F389E02D808101
:100940008F7D80830895EF92FF920F931F93CF9333
:10095000DF93EC0181E0888F9B8D8C8D981305C00F
:10096000E889F989808185FD24C0F62E0B8D10E081
:100970000F5F1F4F0F731127E02E8C8DE8120CC0F4
:100980000FB607FCFACFE889F989808185FFF5CF9A
:10099000CE010E948204F1CF8B8DFE01E80FF11D84
:1009A000E35AFF4FF0820B8FEA89FB8980818062D6
:1009B00007C0EE89FF896083E889F98980818064B6
:1009C000808381E090E0DF91CF911F910F91FF90A4
:1009D000EF900895CF93DF93EC01888D8823C9F0C1
:1009E000EA89FB89808185FD05C0A889B9898C9138
:1009F00086FD0FC00FB607FCF5CF808185FFF2CFD3
:100A0000A889B9898C9185FFEDCFCE010E9482041F
:100A1000E7CFDF91CF910895CF92DF92EF92FF92CF
:100A20001F93CF93DF93EC016A017B01122F60E8E3
:100A300074E88EE190E0A70196010E944809DA016E
:100A4000C9010197A109B109B695A7959795879511
:100A50009C01E889F98982E08083211580E13807CB
:100A6000A8F0E889F989108260E472E48FE090E0F0
:100A7000A70196010E944809DA01C9010197A1095D
:100A8000B109B695A795979587959C01EC85FD854D
:100A90003083EE85FF852083188EEC89FD891083D5
:100AA000EA89FB89808180618083EA89FB89808172
:100AB00088608083EA89FB89808180688083EA89F5
:100AC000FB8980818F7D8083DF91CF911F91FF9083
:100AD000EF90DF90CF9008951F920F920FB60F9274
:100AE00011242F938F939F93EF93FF93E0912F0106
:100AF000F09130018081E0913501F091360182FD65
:100B000012C09081809138018F5F8F7320913901DD
:100B1000821751F0E0913801F0E0E15EFE4F958FD1
:100B20008093380101C08081FF91EF919F918F9157
:100B30002F910F900FBE0F901F9018951F920F923C
:100B40000FB60F9211242F933F934F935F936F93A0
:100B50007F938F939F93AF93BF93EF93FF938FE117
:100B600091E00E948204FF91EF91BF91AF919F911C
:100B70008F917F916F915F914F913F912F910F9046
:100B80000FBE0F901F9018958FE191E00E943504E1
:100B900021E0892B09F420E0822F0895EFE1F1E0B4
:100BA0001382128288EE93E0A0E0B0E08483958304
:100BB000A683B7838AE091E09183808385EC90E0FF
:100BC0009587848784EC90E09787868780EC90E017
:100BD000918B808B81EC90E0938B828B82EC90E008
:100BE000958B848B86EC90E0978B868B118E128E82
:100BF000138E148E089508950E9466030E94FB05CB
:100C00000E94A400C3E6D4E00E94FB002097E1F319
:100C10000E946304F9CFCF92DF92EF92FF920F937D
:100C20001F93CF93DF936C017A018B01C0E0D0E07A
:100C3000CE15DF0581F0D8016D918D01D601ED91C2
:100C4000FC910190F081E02DC6010995892B11F0EE
:100C50002196EECF7E01C701DF91CF911F910F91B9
:100C6000FF90EF90DF90CF9008954F925F926F9238
:100C70007F928F929F92AF92BF92CF92DF92EF922C
:100C8000FF920F931F93CF93DF9300D000D01F925A
:100C9000CDB7DEB78B0129013A0190910501891783
:100CA00021F09F3F09F038C205C0E0EFF0E0249149
:100CB0002D8384C080930501E0EFF0E094919D8343
:100CC0009F3F09F429C2913009F44DC058F1923088
:100CD00009F074C01092B0001092B1009091B00071
:100CE00092609093B0009091B10091609093B100A8
:100CF000282F30E0F901E454FF4FE491F0E0EE0FCB
:100D0000FF1FE452FF4F459154915093BE01409311
:100D1000BD01F901E456FF4FE491E093BC0192E07C
:100D20009D83F6C114BC15BC94B5926094BD95B575
:100D3000916095BD282F30E0F901E454FF4FE49114
:100D4000F0E0EE0FFF1FE452FF4F45915491509396
:100D5000CC014093CB01F901E456FF4FE491E093BD
:100D6000CA011D82D5C1109280001092810090911D
:100D700081009860909381009091810091609093A0
:100D80008100282F30E0F901E454FF4FE491F0E0B6
:100D9000EE0FFF1FE452FF4F459154915093C50150
:100DA0004093C401F901E456FF4FE491E093C3017D
:100DB00061E00E94CA0321E02D83A5C02D8127FD9B
:100DC000ABC161E00E94CA038D818D7F09F09BC099
:100DD0004801A12CB12C60E079E08DE390E0A50101
:100DE00094010E946A0929833A834B835C836901D9
:100DF0007A0181E0C81AD108E108F1089FEFC9160D
:100E0000D104E104F10409F008F461C060E271EA80
:100E100087E090E0A50194010E946A0969017A01C6
:100E200081E0C81AD108E108F1089D81923009F0EB
:100E3000F4C02FEFC216D104E104F10409F008F464
:100E400058C068E478EE81E090E0A50194010E942A
:100E50006A0969017A0181E0C81AD108E108F1083C
:100E60009FEFC916D104E104F10409F008F44EC162
:100E700064E274EF80E090E0A50194010E946A09A9
:100E800069017A0181E0C81AD108E108F1089FEFF1
:100E9000C916D104E104F10471F168F162E17AE765
:100EA00080E090E0A50194010E946A0969017A013D
:100EB00081E0C81AD108E108F1089FEFC916D104F2
:100EC000E104F10411F008F0C9C085E015C081E02B
:100ED0009D81911111C095B5987F892B85BD4114D5
:100EE00051046104710409F04FC02FEF3FEFA901D5
:100EF00063C082E001C084E09091B100987F892BAB
:100F00008093B1003CC04801A12CB12C60E079E095
:100F10008DE390E0A50194010E946A0969017A01BC
:100F200081E0C81AD108E108F108C114D10491E0A8
:100F3000E906F10488F064E274EF80E090E0A50136
:100F400094010E946A0969017A0181E0C81AD108F6
:100F5000E108F10883E001C081E09D81913079F4DE
:100F600090918100987F892B8093810041145104D6
:100F70006104710449F42FEF3FEFA9012CC0411423
:100F800051046104710471F0D801AA0FBB1FA301C1
:100F900092010E94890928EE33E040E050E00E946F
:100FA000480903C02FEF3FEFA9018D81813099F0EF
:100FB000823019F18111B0C0C7BC2093CD013093AC
:100FC000CE014093CF015093D00180916E0082609A
:100FD00080936E00A1C0D0928900C09288002093B7
:100FE000C6013093C7014093C8015093C901809155
:100FF0006F00826080936F008FC0C092B300209317
:10100000BF013093C0014093C1015093C201809150
:1010100070008260809370007FC08FEFC816D1048B
:10102000E104F104C9F0C0F064E274EF80E090E004
:10103000A50194010E946A0969017A0191E0C91A27
:10104000D108E108F1082FEFC216D104E104F10440
:1010500009F080F583E03CCF82E03ACF69E07DE3A0
:1010600080E090E0A50194010E946A0969017A017B
:1010700081E0C81AD108E108F1089FEFC916D10430
:10108000E104F104A9F0A0F089819A81AB81BC81CF
:101090002AE0B595A795979587952A95D1F76C0184
:1010A0007D0121E0C21AD108E108F10887E024CFD0
:1010B00086E022CF69E07DE380E090E0A501940125
:1010C0000E946A0969017A0181E0C81AD108E10821
:1010D000F1089FEFC916D104E104F104A9F0A0F0D2
:1010E00089819A81AB81BC814AE0B595A795979596
:1010F00087954A95D1F76C017D0121E0C21AD1088C
:10110000E108F10885E0E4CE84E0E2CE83E0F4CEAD
:1011100061E00E94CA035CCE0F900F900F900F9079
:101120000F90DF91CF911F910F91FF90EF90DF9083
:10113000CF90BF90AF909F908F907F906F905F9077
:101140004F900895813039F018F0823051F00895B1
:1011500010926E00089580916F008D7F80936F00D4
:101160000895809170008D7F8093700081E080935E
:10117000B0008091B100887F84608093B1001092AC
:10118000B3000895CF93C82F80910501C81307C0FD
:10119000E0EFF0E084919FEF9093050101C08FEFA5
:1011A0000E94A20860E08C2FCF910C9406041F923D
:1011B0000F920FB60F9211242F933F934F935F938B
:1011C0006F937F938F939F93AF93BF93EF93FF930F
:1011D0008091BF019091C001A091C101B091C20165
:1011E000892B8A2B8B2B51F19091BC01E091BD0191
:1011F000F091BE018081892780838091BF01909109
:10120000C001A091C101B091C201181619061A06B9
:101210001B06C4F48091BF019091C001A091C1014F
:10122000B091C2010197A109B1098093BF019093C8
:10123000C001A093C101B093C20104C08091050117
:101240000E94C208FF91EF91BF91AF919F918F9142
:101250007F916F915F914F913F912F910F900FBEB2
:101260000F901F901895089597FB072E16F4009481
:1012700007D077FD09D00E94940907FC05D03EF401
:10128000909581959F4F0895709561957F4F089532
:10129000A1E21A2EAA1BBB1BFD010DC0AA1FBB1F7A
:1012A000EE1FFF1FA217B307E407F50720F0A21BEC
:1012B000B30BE40BF50B661F771F881F991F1A9459
:1012C00069F760957095809590959B01AC01BD0183
:1012D000CF010895052E97FB1EF400940E9481090A
:1012E00057FD07D00E94480907FC03D04EF40C9428
:1012F000810950954095309521953F4F4F4F5F4F55
:10130000089590958095709561957F4F8F4F9F4F71
:1013100008950E94AE09A59F900DB49F900DA49FC3
:10132000800D911D11240895AA1BBB1B51E107C01C
:10133000AA1FBB1FA617B70710F0A61BB70B881F65
:10134000991F5A95A9F780959095BC01CD010895F4
:10135000EE0FFF1F0590F491E02D0994A29FB001BC
:10136000B39FC001A39F700D811D1124911DB29FD9
:0E137000700D811D1124911D0895F894FFCF7A
:10137E00D007017800FF00000000A3040B0635041F
:06138E004F044104EA04D3
:00000001FF
