:100000000C94AC000C94D6000C94D6000C94D60042
:100010000C94D6000C94D6000C94D6000C94D60008
:100020000C94D6000C94D6000C94D6000C94D600F8
:100030000C94D6000C94D6000C94D6000C94D600E8
:100040000C94D5090C94D6000C94420C0C94780CAA
:100050000C94D6000C94D6000C94D6000C94D600C8
:100060000C94D6000C94D6000C94D6000C94D600B8
:100070000C94D6000C94D6000C94D6000C94D600A8
:100080000C94D6000C94A4080C94D600C90ADA0A81
:10009000DA0ABB0ABE0AC20AC50ADA0ADA0ACD0AB5
:1000A000D10AD50A0000000A0B0C00000000000075
:1000B0000104050600000000000000000000000030
:1000C0000000000000000000000000000000000030
:1000D00000000000000000000001020408102040A1
:1000E000800102040810204080081001020408105A
:1000F000204080010201020408102040800480405A
:1001000020100804020101020408102040800505A7
:1001100005050505050502020202020202020707A3
:10012000040404040404040407070303030303038F
:10013000030307010101010101010106060606068C
:1001400006060600003B003800350032002300623E
:1001500000650000BB07AC0C11241FBECFEFD0E13F
:10016000DEBFCDBF11E0A0E0B1E0E4E2F2E200E0EA
:100170000BBF02C007900D92AA35B107D9F722E054
:10018000AAE5B1E001C01D92A13FB207E1F710E07E
:10019000CCEAD0E004C02197FE010E94E510CA3AE3
:1001A000D107C9F70E94DA0C0C9410110C940000CE
:1001B000DC01ED91FC910190F081E02D09948F928A
:1001C0009F92AF92BF92CF92DF92EF92FF924091B7
:1001D000790150917A014A01A12CB12C6B017C016B
:1001E00024E0F594E794D794C7942A95D1F7C818DA
:1001F000D908EA08FB08DC01CB0133E0B595A795E7
:10020000979587953A95D1F7B501A401440F551FED
:10021000661F771F4C015D01841A950AA60AB70A6A
:10022000A5019401A0917701B09178010E94F91085
:100230004B015C01FBE0B594A79497948794FA95E1
:10024000D1F7A7019601C701B6010E94B3109B0127
:10025000AC01ACE05595479537952795AA95D1F710
:10026000A0917501B09176010E94F910DC01CB01DB
:100270002EE0B595A795979587952A95D1F7A50175
:100280009401280F391F4A1F5B1F20937B01309375
:100290007C0140937D0150937E01A5E0B0E00E9477
:1002A000EE10DC01CB0180589F4FAF4FBF4F692F3D
:1002B0007A2F8B2F992787FD9A95FF90EF90DF90EB
:1002C000CF90BF90AF909F908F9008952F923F92C4
:1002D0004F925F926F927F928F929F92AF92BF9256
:1002E000CF92DF92EF92FF920F931F93CF93DF9302
:1002F000CDB7DEB728970FB6F894DEBF0FBECDBFDF
:100300006D837E838F839887C0907B01D0907C0122
:10031000E0907D01F0907E01F594E794D794C79426
:100320002AEFD21AE108F108C701B60112E095954B
:100330008795779567951A95D1F79B01AC010E9437
:10034000B3102B013C01E0916901F0916A0120900A
:100350006B0130906C0100916D0110916E01A091C4
:100360006F01B09170019B01AC018DE055954795EF
:10037000379527958A95D1F70E94F9104B015C01BA
:1003800093E0B594A794979487949A95D1F7A09108
:100390007101B0917201A70196010E94F910DC0170
:1003A000CB01B595A79597958795880D991DAA1DA1
:1003B000BB1D32E1B595A795979587953A95D1F7ED
:1003C0009C01AD0130584F4F5F4FA0917301B09128
:1003D00074010E94EE104B015C014FE0B594A794AC
:1003E000979487944A95D1F781149104A104B1049C
:1003F00009F4C3C0A30192016BE055954795379569
:1004000027956A95D1F7DF010E94F9102B013C0175
:10041000D101A70196010E94F910DC01CB01880FE0
:10042000991FAA1FBB1F840D951DA61DB71DE2E0D5
:10043000B595A79597958795EA95D1F74D805E80FC
:100440006F8078847094609450944094411C511C47
:10045000611C711C012E000C220B330B980111271B
:100460000027080F191F2A1F3B1FACE03595279561
:1004700017950795AA95D1F7D301C201801B910B5F
:10048000A20BB30B9C01AD01A5E3BCE00E94EE10F2
:10049000805B9C4397FD0BC0660F771F881F991FD9
:1004A000A50194010E94C31069017A010AC0A50147
:1004B00094010E94C31069017A01CC0CDD1CEE1C72
:1004C000FF1CC701B60123E0969587957795679540
:1004D0002A95D1F7E0916301F09164019B01AC0191
:1004E0000E94B3109B01AC016DE05695479537957E
:1004F00027956A95D1F7DF010E94F9104B015C0145
:100500007CE0B594A794979487947A95D1F7A70146
:100510009601E2E05695479537952795EA95D1F7EC
:10052000A0916501B09166010E94F910DC01CB0138
:10053000FDE0B595A79597958795FA95D1F7880D24
:10054000991DAA1DBB1D4091670150916801052EA0
:10055000000C660B770B840F951FA61FB71F14E0C6
:10056000B595A795979587951A95D1F7BC01CD01BB
:100570006C0D7D1D8E1D9F1D03C060E070E0CB01E2
:1005800028960FB6F894DEBF0FBECDBFDF91CF9196
:100590001F910F91FF90EF90DF90CF90BF90AF90A1
:1005A0009F908F907F906F905F904F903F902F9093
:1005B00008954F925F926F927F928F929F92AF9227
:1005C000BF92CF92DF92EF92FF9280907B0190904A
:1005D0007C01A0907D01B0907E012CE2921A21E076
:1005E000A20AB1086B017C013EE0CC0CDD1CEE1CC4
:1005F000FF1C3A95D1F780915D0190915E01092E23
:10060000000CAA0BBB0B44E1880F991FAA1FBB1F4C
:100610004A95D1F7C81AD90AEA0AFB0AA0915B01E8
:10062000B0915C01A50194010E94F910C61AD70A85
:10063000E80AF90A30E4D30EE11CF11C5FE0F594FE
:10064000E794D794C7945A95D1F7A0915A010A2EEE
:10065000000CBB0BA50194010E94F9102B013C0179
:100660006AE075946794579447946A95D1F7A0917E
:100670005F010A2E000CBB0B0E94F910DC01CB01BC
:100680007BE0B595A795979587957A95D1F7BC01AD
:10069000CD0170588F4F9F4FA30192010E94B3105C
:1006A000DC01CB01EAE0B595A79597958795EA958A
:1006B000D1F79C01AD01405E5F4FA0916001B09108
:1006C00061010E94F910DC01CB01905EAF4FBF4F7A
:1006D000BC01CD01FEE09595879577956795FA95D4
:1006E000D1F7A70196010E94B3106B017C01AFE026
:1006F0009595879577956795AA95D1F79B01AC015C
:100700000E94B3109B01AC01B7E055954795379512
:100710002795BA95D1F7A09162010A2E000CBB0B68
:100720000E94F910DC01CB0124E0B595A7959795BF
:1007300087952A95D1F7A7019601281B390B4A0BFB
:100740005B0BDA01C90157FF03C080E090E0DC01D8
:1007500081309105A10539E1B30724F080E090E0F4
:10076000A0E0B9E1BC01CD012CE095958795779586
:1007700067952A95D1F7FF90EF90DF90CF90BF90CB
:10078000AF909F908F907F906F905F904F90089563
:10079000EF92FF921F93CF93DF93CDB7DEB7A09771
:1007A0000FB6F894DEBF0FBECDBF66E770E08BE8F2
:1007B00091E00E943C0768E870E08BE891E00E94BD
:1007C000D8008BE891E00E94B80748E150E066E766
:1007D00070E08BE891E00E94B50710E08BE891E0B3
:1007E0000E948D06E12EF12C1F5F892B61F08BE8B2
:1007F00091E00E949506E1E0F0E0EC0FFD1FEE0DA8
:10080000FF1D8083EBCF66E770E08BE891E00E94EC
:100810003C0761EA70E08BE891E00E94D8008BE829
:1008200091E00E94B80741E050E066E770E08BE895
:1008300091E00E94B5078BE891E00E949506E1E007
:10084000F0E0EC0FFD1FEE0DFF1D808366E770E00A
:100850008BE891E00E943C0761EE70E08BE891E04C
:100860000E94D8008BE891E00E94B80747E050E072
:1008700066E770E08BE891E00E94B5078BE891E0B5
:100880000E948D06892B69F08BE891E00E94950605
:10089000E1E0F0E0EC0FFD1FE10FF11D80831F5F31
:1008A000EDCF8A8190E0982F88272981822B909321
:1008B0007A01809379018C8190E0982F88272B8191
:1008C000822B90937801809377018E8190E0982F0E
:1008D00088272D81822B90937601809375018885DE
:1008E00090E0982F88272F81822B9093740180931A
:1008F00073018A8590E0982F88272985822B909311
:100900007201809371018C8590E0982F88272B8548
:10091000822B9093700180936F018E8590E0982FC9
:1009200088272D85822B90936E0180936D01888995
:1009300090E0982F88272F85822B90936C018093CD
:100940006B018A8990E0982F88272989822B9093C0
:100950006A01809369018C8990E0982F88272B8900
:10096000822B90936801809367018E8990E0982F85
:1009700088272D89822B9093660180936501888D4D
:1009800090E0982F88272F89822B90936401809381
:100990006301898D809362018B8D90E0982F882769
:1009A0002A8D822B90936101809360018C8D8093BE
:1009B0005F012E8D322F3F708D8D40E1849FC001ED
:1009C0001124832B90935E0180935D0122952F70FB
:1009D0008F8D30E1839FC0011124822B90935C01A5
:1009E00080935B0188A180935A01A0960FB6F8947A
:1009F000DEBF0FBECDBFDF91CF911F91FF90EF9073
:100A000008950F931F93CF93DF93CDB7DEB7A097D1
:100A10000FB6F894DEBF0FBECDBF66E770E08BE87F
:100A200091E00E943C0767EF70E08BE891E00E9444
:100A3000D8008BE891E00E94B80748E050E066E7F4
:100A400070E08BE891E00E94B5078E010F5F1F4FA9
:100A50008BE891E00E948D06892B79F08BE891E07C
:100A60000E949506092E000CAA0BBB0BF80181937E
:100A70009193A193B1938F01EBCF8D819E81AF8133
:100A8000B885AC01BD0184E0440F551F661F771F78
:100A90008A95D1F789819A81AB81BC812CE0880F3E
:100AA000991FAA1FBB1F2A95D1F7842B952BA62B24
:100AB000B72B49855A856B857C8534E0769567959B
:100AC000579547953A95D1F7842B952BA62BB72BA5
:100AD00080937F0190938001A0938101B093820164
:100AE00089899A89AB89BC89AC01BD01E4E0440FD6
:100AF000551F661F771FEA95D1F78D859E85AF85B7
:100B0000B889FCE0880F991FAA1FBB1FFA95D1F77F
:100B1000842B952BA62BB72B4D895E896F89788DF9
:100B200014E076956795579547951A95D1F7842BDC
:100B3000952BA62BB72B8093830190938401A093D0
:100B40008501B0938601898D9A8DAB8DBC8DBA2FAE
:100B5000A92F982F88274D8D5E8D6F8D78A1842BBE
:100B6000952BA62BB72B8093870190938801A09398
:100B70008901B0938A01A0960FB6F894DEBF0FBE2C
:100B8000CDBFDF91CF911F910F9108954F925F924A
:100B90006F927F928F929F92AF92BF92CF92DF928D
:100BA000EF92FF920E940105609183017091840190
:100BB00080918501909186010E94DF002B013C010C
:100BC00060917F01709180018091810190918201FB
:100BD0000E9466014B015C01609187017091880160
:100BE0008091890190918A010E94D9026B017C0158
:100BF00060E071E084E592E00E94290DC301B2013A
:100C00000E948C0F20E030E048EC52E40E94E90E94
:100C1000AB01BC0122E030E084E592E00E94740E5A
:100C200068E071E084E592E00E94290DC501B401FD
:100C30000E948A0F20E030E048EC52E40E94E90E66
:100C4000AB01BC0122E030E084E592E00E94740E2A
:100C500068E171E084E592E00E94290DC701B601C8
:100C60000E948A0F20E030E040E85AE30E944110E1
:100C7000AB01BC0122E030E084E592E00E94740EFA
:100C800065E271E084E592E00E94360D68EE73E063
:100C900080E090E0FF90EF90DF90CF90BF90AF901A
:100CA0009F908F907F906F905F904F900C94450A2B
:100CB000CF93DF93D82FC62F66E770E08BE891E0E3
:100CC0000E943C076D2F8BE891E00E94E9066C2F93
:100CD0008BE891E00E94E9068BE891E0DF91CF91EB
:100CE0000C94B80726E040E056E960E070E084E547
:100CF00092E00E94E20B8BE891E00E94280761E0FD
:100D000082EF0E94580667E284EF0E94580660EA6C
:100D100085EF0E9458060C94C8038091BB0190E0B7
:100D20002091BC01821B910908959091BC01809192
:100D3000BB01981750F4E92FF0E0E354FE4F2081F7
:100D400030E09F5F9093BC0102C02FEF3FEFC901DD
:100D50000895E091BC018091BB01E81730F4F0E008
:100D6000E354FE4F808190E008958FEF9FEF089548
:100D70000895CF92DF92EF92FF920F931F93CF933C
:100D8000DF937C01262F972F8A018091970188237A
:100D900091F0C62FD72F6E01C40ED51ECC15DD05E0
:100DA00071F06991D701ED91FC910190F081E02DF6
:100DB000C7010995F3CF642F822F0E947B08C801D9
:100DC000DF91CF911F910F91FF90EF90DF90CF9027
:100DD0000895CF93DF931F92CDB7DEB7698320913B
:100DE00097012223D1F020919801203240F021E098
:100DF00030E0FC013383228380E090E015C08091D5
:100E00009901E82FF0E0E656FE4F998190838F5FBD
:100E1000809399018093980105C061E0CE0101960D
:100E20000E947B0881E090E00F90DF91CF910895C0
:100E3000FC011382128288EE93E0A0E0B0E084838C
:100E40009583A683B7838CE291E091838083089594
:100E50001092BC011092BB0110929901109298015E
:100E60000C94BF0781E0809397016093BA011092C0
:100E700099011092980108950C9432070F93062F50
:100E800021E0409198016AE971E08091BA010E94E5
:100E900025081092990110929801109297010F91D4
:100EA00008954F925F926F927F92AF92BF92CF92CE
:100EB000EF92FF920F931F93CF93DF935C01F62E77
:100EC000D42F28013901EE2021F10E943207CE2DC6
:100ED000C43008F0C3E0C150C0F0D501ED91FC91E1
:100EE000B8E0CB9FC0011124A301920104C0569524
:100EF0004795379527958A95D2F7CA01B901019090
:100F0000F081E02DC5010995E6CF60E0C5010E94A2
:100F10003E074D2FD13208F040E22C2D6DEB71E0F1
:100F20008F2D0E94DD071092BC018093BB01DF91E1
:100F3000CF911F910F91FF90EF90CF90BF90AF9006
:100F40007F906F905F904F900895CF92EF920F93A4
:100F50001F93C22EE12C00E010E098010E9451077F
:100F60001F910F91EF90CF90089521E00C94A50769
:100F700061E00C943E078BE891E00C941807109206
:100F80004A0281E0809348021092470261E082E1C8
:100F90000E94DB0A61E083E10E94DB0AE1E7F0E006
:100FA00080818E7F808380818D7F808380E28093AB
:100FB000700085E4809374000895413208F043C0C6
:100FC00090914A029111FCCF91E090934A022093B4
:100FD00048022FEF2093DD0110922202240F20936C
:100FE00021029093490290914902880F892B8093A6
:100FF000490280914702813061F41092470280914A
:101000004902809373008091740083FDF8CF85ECD2
:1010100001C085EE8093740080914A028130E1F333
:1010200080912202841710F44091220223E232E0E0
:10103000FB01D9018A2F821B841718F48D918193AB
:10104000F9CF842F089580E008950F93413208F07E
:101050004AC090914A029111FCCF32E030934A028B
:10106000009348023FEF3093DD011092220240933B
:101070002102FB0163E272E0DB013A2F361B3417D9
:1010800018F431913D93F9CF109249023091490201
:10109000880F832B8093490280914702813061F44D
:1010A00010924702809149028093730080917400EE
:1010B00083FDF8CF85EC01C085EE80937400222378
:1010C00021F080914A028230D1F38091DD018F3F7F
:1010D00079F08091DD01803241F08091DD01803333
:1010E00031F094E005C091E003C092E001C093E0CC
:1010F000892F0F910895613298F420914A0224308B
:1011000089F46093FF01FC0121E032E0D9018A2FCC
:10111000821B861718F481918D93F9CF80E0089592
:1011200081E0089582E0089585ED809374008091B8
:10113000740084FDFCCF10924A02089585EC8093E0
:10114000740010924A0208951F920F920FB60F92E8
:1011500011240BB60F922F933F934F935F936F938E
:101160007F938F939F93AF93BF93EF93FF93809160
:101170007100887F803609F49EC078F5883209F4C2
:101180005DC090F4803109F456C038F4882309F426
:10119000F5C0883009F44FC0F5C0883109F44EC05D
:1011A000803209F45FC0EEC0803409F46AC058F49C
:1011B000803309F457C0883309F0E4C08093DD011F
:1011C0000E949E08DFC0803509F44FC0883509F4BD
:1011D0005DC0883409F0D6C0D3C0883909F4C4C0D2
:1011E000A8F4883709F467C038F4883609F463C076
:1011F000803709F460C0C6C0883809F4B5C08039AA
:1012000009F45FC0803809F0BDC05BC0803B09F4C1
:1012100083C038F4803A09F466C0883A09F47CC087
:10122000B1C0803C09F4A4C0883C09F4A1C0883B4B
:1012300009F487C0A7C08091490210C09091220292
:1012400080912102981770F5E091220281E08E0FC3
:1012500080932202F0E0ED5DFD4F8081809373006A
:1012600085EC83C08093DD018BC0E091220281E098
:101270008E0F8093220280917300F0E0ED5DFD4FB0
:10128000808390912202809121026BC0E091220222
:1012900081E08E0F8093220280917300F0E0ED5D7B
:1012A000FD4F80838091480281116AC081E0809364
:1012B000470284EA5EC083E080934A021092DE0116
:1012C000CFCF8091DE01803208F04EC0E091DE0188
:1012D00081E08E0F8093DE0180917300F0E0E15297
:1012E000FE4F8083BDCF0E949E088091DE01803238
:1012F00030F4E091DE01F0E0E152FE4F10826091A7
:10130000DE0170E0E0914302F09144028FED91E044
:1013100009951092DE0136C084E080934A02109253
:1013200000021092FF01E0914502F09146020995FA
:101330008091FF01811105C081E08093FF0110922F
:101340000102E091000281E08E0F80930002F0E044
:10135000EF5FFD4F80818093730090910002809138
:10136000FF01981708F47CCF85E8809374000AC0C9
:1013700085EC8093740010924A0204C01092DD0143
:101380000E949408FF91EF91BF91AF919F918F912F
:101390007F916F915F914F913F912F910F900BBE75
:1013A0000F900FBE0F901F9018951F920F920FB6BF
:1013B0000F9211242F933F938F939F93AF93BF93DB
:1013C00080914C0290914D02A0914E02B0914F023B
:1013D00030914B0226E0230F2D3720F40296A11DF9
:1013E000B11D05C029E8230F0396A11DB11D20934F
:1013F0004B0280934C0290934D02A0934E02B09307
:101400004F028091500290915102A0915202B091EE
:1014100053020196A11DB11D809350029093510279
:10142000A0935202B0935302BF91AF919F918F91BD
:101430003F912F910F900FBE0F901F9018953FB7BF
:10144000F8948091500290915102A0915202B09173
:10145000530222B706B600FE05C02F3F19F00196D1
:10146000A11DB11D3FBFBA2FA92F982F8827820F2A
:10147000911DA11DB11DBC01CD0143E0660F771F79
:10148000881F991F4A95D1F708958F929F92AF9226
:10149000BF92CF92DF92EF92FF926B017C010E948C
:1014A0001F0A4B015C01C114D104E104F10401F1F4
:1014B0000E94760E0E941F0ADC01CB01881999094F
:1014C000AA09BB09883E9340A105B10560F321E05C
:1014D000C21AD108E108F10888EE880E83E0981E50
:1014E000A11CB11CC114D104E104F10419F7DBCF34
:1014F000FF90EF90DF90CF90BF90AF909F908F9034
:101500000895789483B7806483BF83B7886083BF6E
:1015100083B7846083BF87B7816087BF1EBC8EB5E9
:1015200082608EBD8EB581608EBD8FB581608FBDAE
:1015300085B5846085BD85B5806485BDEAE8F0E049
:10154000808182608083808181608083EBE8F0E02D
:10155000808181608083329A319A3098379A1AB8A4
:10156000089590E0FC013197EC30F10518F5EA5B45
:10157000FF4F0C94E5108FB58F7702C08FB58F7D2C
:101580008FBD08958FB5877FFBCF85B58F7D85BDD6
:10159000089583B78F7D83BF089580918B008F77E7
:1015A00007C080918B008F7D03C080918B00877F67
:1015B00080938B0008951F93CF93DF93282F30E003
:1015C000F901EC55FF4F8491F901E752FF4FD49197
:1015D000F901E25FFE4FC491CC23C9F0162F8111AF
:1015E0000E94B10AEC2FF0E0EE0FFF1FED5BFE4F03
:1015F000A591B4918FB7F894111105C09C91ED2F6E
:10160000E095E92302C0EC91ED2BEC938FBFDF91C5
:10161000CF911F910895FC01918D228D892F90E02B
:10162000805C9F4F821B91098F7399270895FC015D
:10163000918D828D981731F0828DE80FF11D858D87
:1016400090E008958FEF9FEF0895FC01918D828DBA
:10165000981761F0828DDF01A80FB11D5D968C9106
:10166000928D9F5F9F73928F90E008958FEF9FEF11
:10167000089582EA9CE0892B41F080E090E0892B7C
:1016800021F00E94A20C81110DC080E090E0892B16
:1016900071F080E090E0892B51F00E9400008111F0
:1016A00004C008950E940000F0CF0C94000008953B
:1016B000FC01848DDF01A80FB11DA35ABF4F2C91EF
:1016C000848D90E001968F739927848FA689B789BE
:1016D0002C93A089B1898C9180648C93938D848D97
:1016E000981306C00288F389E02D80818F7D808366
:1016F0000895CF93DF93EC01888D8823C9F0EA89A0
:10170000FB89808185FD05C0A889B9898C9186FDFA
:101710000FC00FB607FCF5CF808185FFF2CFA889F7
:10172000B9898C9185FFEDCFCE010E94580BE7CF90
:10173000DF91CF910895EF92FF920F931F93CF9374
:10174000DF93EC0181E0888F9B8D8C8D981305C011
:10175000E889F989808185FD24C0F62E0B8D10E083
:101760000F5F1F4F0F731127E02E8C8DE8120CC0F6
:101770000FB607FCFACFE889F989808185FFF5CF9C
:10178000CE010E94580BF1CF8B8DFE01E80FF11DA9
:10179000E35AFF4FF0820B8FEA89FB8980818062D8
:1017A00007C0EE89FF896083E889F98980818064B8
:1017B000808381E090E0DF91CF911F910F91FF90A6
:1017C000EF900895CF92DF92EF92FF921F93CF9305
:1017D000DF93EC016A017B01122F60E874E88EE16F
:1017E00090E0A70196010E94C310DA01C901019798
:1017F000A109B109B695A79597958795AC01E88998
:10180000F98982E08083411580E15807A8F0E889D2
:10181000F989108260E472E48FE090E0A7019601FC
:101820000E94C310BA01A90141505109610971090F
:101830007695679557954795EC85FD855083EE85A0
:10184000FF854083188EEC89FD891083EA89FB8926
:10185000808180618083EA89FB89808188608083C0
:10186000EA89FB89808180688083EA89FB8980819D
:101870008F7D8083DF91CF911F91FF90EF90DF905C
:10188000CF9008951F920F920FB60F9211240BB6AE
:101890000F922F938F939F93EF93FF93E0916402A6
:1018A000F09165028081E0916A02F0916B0282FD05
:1018B00012C0908180916D028F5F8F7320916E02B4
:1018C000821751F0E0916D02F0E0EC5AFD4F958FD8
:1018D00080936D0201C08081FF91EF919F918F9164
:1018E0002F910F900BBE0F900FBE0F901F90189569
:1018F0001F920F920FB60F9211240BB60F922F93D7
:101900003F934F935F936F937F938F939F93AF9387
:10191000BF93EF93FF9384E592E00E94580BFF91F1
:10192000EF91BF91AF919F918F917F916F915F9157
:101930004F913F912F910F900BBE0F900FBE0F90C4
:101940001F90189584E592E00E940B0B21E0892BF3
:1019500009F420E0822F0895E4E5F2E01382128278
:1019600088EE93E0A0E0B0E084839583A683B783FC
:101970008CE391E09183808380E990E09587848770
:1019800089E290E0978786878BE290E0918B808B4D
:101990008AE290E0938B828B85E990E0958B848B33
:1019A0008CE290E0978B868B118E128E138E148EA4
:1019B000089508950E94810A0E94D90C0E9472061F
:1019C000C9E3DBE00E94C6052097E1F30E94390BD2
:1019D000F9CFCF92DF92EF92FF920F931F93CF93A5
:1019E000DF936C017A018B01C0E0D0E0CE15DF05FA
:1019F00089F0D8016D918D01D601ED91FC91019096
:101A0000F081E02DC6010995892B11F47E0102C0F9
:101A10002196ECCFC701DF91CF911F910F91FF90DD
:101A2000EF90DF90CF9008956115710579F0FB017B
:101A300001900020E9F73197AF01461B570BDC01FD
:101A4000ED91FC910280F381E02D099480E090E01B
:101A500008950C94140DDC01ED91FC910190F0813E
:101A6000E02D099468E471E00C94140D0F931F931A
:101A7000CF93DF93EC010E94140D8C01CE010E94E4
:101A8000320D800F911FDF91CF911F910F9108951B
:101A90004F925F926F927F92EF92FF920F931F93FC
:101AA000CF93DF93CDB7DEB7A1970FB6F894DEBF23
:101AB0000FBECDBF7C01FA01CB0119A2223008F480
:101AC0002AE08E010F5D1F4F422E512C612C712C8C
:101AD000BF01A30192010E94C310F901CA01015084
:101AE00011096A3014F4605D01C0695CD8016C931F
:101AF000232B242B252B61F7B801C7010E94140D5D
:101B0000A1960FB6F894DEBF0FBECDBFDF91CF9187
:101B10001F910F91FF90EF907F906F905F904F908B
:101B200008954F925F926F927F928F929F92AF92A1
:101B3000BF92CF92DF92EF92FF92CF93DF93EC01AF
:101B40006A017B01B22E9A01AB01C701B6010E9466
:101B5000AE10882319F06BE471E027C0260137012D
:101B6000E89477F82FEF3FEF4FE75FE7C301B2014B
:101B70000E94AE1081110DC02FEF3FEF4FE75FE7DE
:101B8000C301B2010E94E40E18161CF46FE471E068
:101B90000CC02FEF3FEF4FE75FE4C701B6010E9493
:101BA0003C1018169CF463E571E0CE01DF91CF91F3
:101BB000FF90EF90DF90CF90BF90AF909F908F906D
:101BC0007F906F905F904F900C94140D2FEF3FEF2C
:101BD0004FE75FECC701B6010E94E40E87FDE3CF3B
:101BE00020E030E0A901C701B6010E94E40E87FFA2
:101BF0000AC06DE2CE010E942B0D4C01F7FAF09461
:101C0000F7F8F09402C0812C912CA12C60E070E0D8
:101C100080E09FE3AB1441F020E030E040E251E48B
:101C20000E94E90EA394F6CF9B01AC01C701B60157
:101C30000E94780E2B013C010E945B0F6B017C011E
:101C40000E948A0F9B01AC01C301B2010E94770E72
:101C50002B013C012AE0B701A601CE010E94480DEC
:101C60007C01E80CF91CBB2039F067E571E0CE017E
:101C70000E94140DE80EF91EDB2CDD2029F120E076
:101C800030E040E251E4C301B2010E9441102B0157
:101C90003C010E945B0F4B01A12CB12C2AE0B50145
:101CA000A401CE010E94480DE80EF91EC501B40141
:101CB0000E948A0F9B01AC01C301B2010E94770E02
:101CC0002B013C01DA94D9CFC701DF91CF91FF906E
:101CD000EF90DF90CF90BF90AF909F908F907F90CC
:101CE0006F905F904F9008950C94910D0895505807
:101CF000BB27AA270E948F0E0C9402100E94F40F9B
:101D000038F00E94FB0F20F039F49F3F19F426F4BD
:101D10000C94F10F0EF4E095E7FB0C94EB0FE92F18
:101D20000E94131058F3BA176207730784079507C8
:101D300020F079F4A6F50C9435100EF4E0950B2EF6
:101D4000BA2FA02D0B01B90190010C01CA01A0010D
:101D50001124FF27591B99F0593F50F4503E68F168
:101D60001A16F040A22F232F342F4427585FF3CFA9
:101D7000469537952795A795F0405395C9F77EF47A
:101D80001F16BA0B620B730B840BBAF09150A1F0C3
:101D9000FF0FBB1F661F771F881FC2F70EC0BA0F49
:101DA000621F731F841F48F4879577956795B795D1
:101DB000F7959E3F08F0B0CF9395880F08F09927CC
:101DC000EE0F9795879508950E94C70F08F481E05C
:101DD00008950E94FD0E0C9402100E94FB0F58F013
:101DE0000E94F40F40F029F45F3F29F00C94EB0FB0
:101DF00051110C9436100C94F10F0E94131068F3DB
:101E00009923B1F3552391F3951B550BBB27AA27B3
:101E100062177307840738F09F5F5F4F220F331FED
:101E2000441FAA1FA9F335D00E2E3AF0E0E832D0B5
:101E300091505040E695001CCAF72BD0FE2F29D0B8
:101E4000660F771F881FBB1F261737074807AB078A
:101E5000B0E809F0BB0B802DBF01FF2793585F4FFF
:101E60003AF09E3F510578F00C94EB0F0C9436102D
:101E70005F3FE4F3983ED4F3869577956795B795E1
:101E8000F7959F5FC9F7880F911D9695879597F9EC
:101E90000895E1E0660F771F881FBB1F6217730765
:101EA0008407BA0720F0621B730B840BBA0BEE1F7A
:101EB00088F7E09508950E941B1088F09F5798F0CE
:101EC000B92F9927B751B0F0E1F0660F771F881F3F
:101ED000991F1AF0BA95C9F714C0B13091F00E9459
:101EE0003510B1E008950C943510672F782F8827AE
:101EF000B85F39F0B93FCCF3869577956795B39580
:101F0000D9F73EF490958095709561957F4F8F4FEE
:101F10009F4F0895E89409C097FB3EF490958095F3
:101F2000709561957F4F8F4F9F4F9923A9F0F92F9F
:101F300096E9BB279395F695879577956795B7951D
:101F4000F111F8CFFAF4BB0F11F460FF1BC06F5F03
:101F50007F4F8F4F9F4F16C0882311F096E911C015
:101F6000772321F09EE8872F762F05C0662371F036
:101F700096E8862F70E060E02AF09A95660F771F4A
:101F8000881FDAF7880F9695879597F90895990F26
:101F90000008550FAA0BE0E8FEEF16161706E80733
:101FA000F907C0F012161306E407F50798F0621B54
:101FB000730B840B950B39F40A2661F0232B242B29
:101FC000252B21F408950A2609F4A140A6958FEF48
:101FD000811D811D089597F99F6780E870E060E09A
:101FE00008959FEF80EC089500240A9416161706B2
:101FF00018060906089500240A94121613061406FA
:1020000005060895092E0394000C11F4882352F05C
:10201000BB0F40F4BF2B11F460FF04C06F5F7F4F14
:102020008F4F9F4F089557FD9058440F551F59F0FB
:102030005F3F71F04795880F97FB991F61F09F3FB5
:1020400079F087950895121613061406551FF2CFDE
:102050004695F1DF08C0161617061806991FF1CF2E
:1020600086957105610508940895E894BB27662755
:102070007727CB0197F908950E94C70F08F48FEFD7
:1020800008950E9454100C9402100E94F40F38F02E
:102090000E94FB0F20F0952311F00C94EB0F0C9491
:1020A000F10F11240C9436100E94131070F3959FB9
:1020B000C1F3950F50E0551F629FF001729FBB273F
:1020C000F00DB11D639FAA27F00DB11DAA1F649FDB
:1020D0006627B00DA11D661F829F2227B00DA11D8E
:1020E000621F739FB00DA11D621F839FA00D611D14
:1020F000221F749F3327A00D611D231F849F600D35
:10210000211D822F762F6A2F11249F5750409AF05D
:10211000F1F088234AF0EE0FFF1FBB1F661F771FE9
:10212000881F91505040A9F79E3F510580F00C94B4
:10213000EB0F0C9436105F3FE4F3983ED4F3869592
:1021400077956795B795F795E7959F5FC1F7FE2B54
:10215000880F911D9695879597F908950E94C70F4E
:10216000880B990B0895DB018F939F930E94EE10CB
:10217000BF91AF91A29F800D911DA39F900DB29F23
:10218000900D11240895A1E21A2EAA1BBB1BFD017C
:102190000DC0AA1FBB1FEE1FFF1FA217B307E40746
:1021A000F50720F0A21BB30BE40BF50B661F771F9E
:1021B000881F991F1A9469F760957095809590957E
:1021C0009B01AC01BD01CF010895EE0FFF1F00245C
:1021D000001C0BBE0790F691E02D09940E9401119E
:1021E000A59F900DB49F900DA49F800D911D11246B
:1021F0000895B7FF0C94EE100E94EE10821B930B13
:102200000895A29FB001B39FC001A39F700D811DCF
:102210001124911DB29F700D811D1124911D0895EF
:04222000F894FFCF60
:1022240054454D50203A20002044656743202050F7
:1022340052455353203A20002068506120204855CD
:102244004D203A200020250000000000E906B906D0
:102254008D069506A906B806000000009B0BE90C44
:102264000B0B250B170B790B0D0A006E616E0069C1
:0A2274006E66006F7666002E000013
:00000001FF
