S015000041746D656C3136385F555241542E73726563E2
S11300000C943A000C9457000C9457000C9457002D
S11300100C9457000C9457000C9457000C94570000
S11300200C9457000C9457000C9457000C945700F0
S11300300C9457000C9457000C9457000C945700E0
S11300400C946C010C9457000C9457000C945700BA
S11300500C9457000C9457000C9457000C945700C0
S11300600C9457000C9457006364696E6F70737539
S113007078585B0011241FBECFEFD4E0DEBFCDBFA4
S113008012E0A0E0B1E0E4E8F4E102C005900D92D2
S1130090AE33B107D9F722E0AEE3B2E001C01D925E
S11300A0A235B207E1F70E949A010C94400A0C941D
S11300B000000F931F93CF93DF931F92CDB7DEB74A
S11300C040E062E070E080E990E00E94DB0280E0C2
S11300D00E940F030E940B0341E062E070E080E99C
S11300E090E00E94DB0261E0CE0101960E941A03B7
S11300F0198161E0CE0101960E941A0309810E94D0
S11301000B03802F82958F7090E0880F991F9C01BC
S1130110220F331F220F331F820F931F99230CF4D6
S11301200F9695958795959587959595879595952A
S1130130879580934B02812F90E09093490280939E
S113014048020F90DF91CF911F910F910895CF93A3
S1130150DF931F92CDB7DEB740E060E070E080ED42
S113016090E00E94DB0281E00E940F030E940B03D7
S113017041E060E070E080ED90E00E94DB0261E02D
S1130180CE0101960E941A0389818F7780933F02E2
S113019061E0CE0101960E941A0389818F778093D2
S11301A0400261E0CE0101960E941A0389818F7397
S11301B08093410261E0CE0101960E941A03898175
S11301C087708093420261E0CE0101960E941A0377
S11301D089818F738093430261E0CE0101960E946E
S11301E01A0389818F718093440260E0CE010196E5
S11301F00E941A038981809345020E940B030F9089
S1130200DF91CF910895CF93DF93EFE3F2E0808104
S11302108F77808340E060E070E080ED90E00E94A2
S1130220DB0281E00E940F03C0E0D0E0FE01E15C4C
S1130230FD4F80810E940F032196C730D105B1F78D
S11302400E940B03DF91CF9108950F931F93CF93D7
S1130250DF9300D0CDB7DEB7182F062F9E012F5F96
S11302603F4F3F932F932EE031E03F932F930E9413
S11302705804412F50E029813A810F900F900F903C
S11302800F90241735072CF0402F50E042175307E6
S1130290DCF41F920F931F921F9381E191E09F93CF
S11302A08F930E9415042FEF84E39CE0215080403B
S11302B09040E1F700C000000F900F900F900F9056
S11302C00F900F908FEF01C0822F0F900F90DF914E
S11302D0CF911F910F9108951F920F920FB60F9215
S11302E011242F933F934F935F936F937F938F9337
S11302F09F93AF93BF93EF93FF93F8940E94A7004B
S11303008FE19EE40197F1F700C000000E945900BC
S11303107894FF91EF91BF91AF919F918F917F91CD
S11303206F915F914F913F912F910F900FBE0F905E
S11303301F90189580E091E090934D0280934C02B9
S113034090934F0280934E0283E390E00E94350322
S11303501092B90084E28093B80014BC85E085BD96
S113036081E080936E0078940F2EF7E24F2EF1E037
S11303705F2EF02D0F2EFFE3AF2EF2E0BF2EF02DF7
S11303800F2EF6E42F2EF1E03F2EF02DC5E4D2E03F
S11303900F2EF4E48F2EF2E09F2EF02D0F2EF3E4B7
S11303A06F2EF2E07F2EF02D0F2EFFE5CF2EF1E021
S11303B0DF2EF02D0F2EF8E8EF2EF1E0FF2EF02DBA
S11303C00CEB11E00E948D030E94620361E081E066
S11303D00E94AC035F924F920E94150461E083E097
S11303E00E94AC03F5012081E0E4F2E09081E1E4B5
S11303F0F2E080811F922F931F929F931F928F93FD
S11304003F922F920E941504E2E4F2E030812881A9
S1130410F4019081F30180811F923F931F922F93E7
S11304201F929F931F928F93DF92CF920E94150485
S1130430809148029091490220914B021F922F9380
S11304409F938F93FF92EF920E94150483EA91E0A9
S11304500E94290484EB91E00E9429041F930F93C6
S11304600E94150466E081E00E9425012DB73EB785
S1130470245E3F4F0FB6F8943EBF0FBE2DBF8230AF
S1130480C9F120F4813009F09DCF07C0843009F40C
S11304906BC0853009F096CF69C08CEC91E09F93D6
S11304A08F930E94150468E180E00E942501E1E435
S11304B0F2E080838CED91E09F938F930E9415046A
S11304C06BE380E00E942501E0E4F2E080838DEE9E
S11304D091E09F938F930E9415046BE380E00E9448
S11304E02501F50180830F900F900F900F900F90CE
S11304F00F9068CF8EEF91E09F938F930E94150425
S113050067E081E00E942501E2E4F2E0808380E17B
S113051092E09F938F930E9415046FE181E00E9403
S11305202501F30180838FE192E09F938F930E94D2
S113053015046CE081E00E942501F40180838FE2C0
S113054092E09F938F930E94150463E680E00E94DB
S1130550250188832DB73EB7285F3F4F0FB6F89427
S11305603EBF0FBE2DBF2ECF0E9403010E94620327
S113057029CF813051F028F0823059F0833091F442
S11305800CC084EA8093BC000DC084E88093BC0056
S113059009C084EC8093BC0005C084E98093BC004E
S11305A080E00895ECEBF0E080818823ECF7809103
S11305B0B900887F08950F931F93CF93DF9312E3BD
S11305C0807F9927842B6F707727082F062BCBEB1E
S11305D0D0E002C01150A9F080E00E94B902883333
S11305E0C9F3883011F0803171F4088381E00E94EE
S11305F0B902803279F3883369F3883131F08FEFAF
S113060005C08FEF03C08FEF01C080E0DF91CF9171
S11306101F910F91089583E00E94B9020895809379
S1130620BB0081E00E94B902883211F08FEF089577
S113063080E00895CF93DF93EC01662331F082E0EC
S11306400E94B902803559F405C081E00E94B902C4
S1130650883539F48091BB00888380E003C08FEF34
S113066001C08FEFDF91CF9108959093C5008093DF
S1130670C40088E18093C10086E08093C20008959D
S1130680CF93C82F8A3019F48DE00E944003E0EC28
S1130690F0E0908195FFFDCFC093C60080E090E02C
S11306A0CF910895CF93BC01E0ECF0E080818823E2
S11306B0ECF7C091C6008C2F0E9440038C2F90E071
S11306C0CF910895CF93DF93CEE4D2E0688179810E
S11306D08BE190E00E94E903688179818BE590E0E9
S11306E00E94E9036881798188E490E00E94E9032B
S11306F0688179818BE190E00E94E90368817981C6
S11307008BE590E00E94E903688179818AE490E0B6
S11307100E94E903DF91CF910895CF93DF93CEE454
S1130720D2E0688179818BE190E00E94E9036881DD
S113073079818BE590E00E94E9036881798180E307
S113074090E00E94E903688179818DE690E00E943F
S1130750E903DF91CF910895FF920F931F93CF93F5
S1130760DF93182FF62ECEE4D2E0688179818BE1F5
S113077090E00E94E903688179818BE590E00E9412
S1130780E9031F921F930EE011E01F930F930E9441
S11307901504688179818BE390E00E94E9031F923C
S11307A0FF921F930F930E9415046881798188E456
S11307B090E00E94E9038DB79EB708960FB6F894AF
S11307C09EBF0FBE8DBFDF91CF911F910F91FF9000
S11307D008950F931F93CF93DF938C01EB018B81CB
S11307E081FD03C00FEF1FEF1AC082FF0DC02E81E1
S11307F03F818C819D812817390764F4E881F98150
S11308000193F983E88306C0E885F985802F09956B
S1130810892B41F78E819F8101969F838E83C80126
S1130820DF91CF911F910F910895A0E0B0E0EBE12B
S1130830F4E00C94190AFE01359661917191AF01AF
S113084080914E0290914F020E946C04E2E00C945D
S1130850350A0F931F93CF93DF938C01E0914E02DF
S1130860F0914F02838181FF1BC0C0E0D0E005C03E
S11308700995892B11F0CFEFDFEFF80181918F01FA
S113088060914E0270914F02DB011896ED91FC913C
S113089019978111EDCF8AE00995892B09F402C0DB
S11308A0CFEFDFEFCE01DF91CF911F910F9108952C
S11308B0A0E0B0E0EEE5F4E00C94190AFE013596F0
S11308C061917191AF0180914C0290914D020E940F
S11308D0F607E2E00C94350AACE0B0E0E2E7F4E0BD
S11308E00C94090A7C016B018A01FC0117821682AF
S11308F0838181FFC6C188248394912C8C0E9D1E14
S1130900F7019381F60193FD859193FF81916F0126
S1130910882309F4B2C1853239F493FD859193FF9C
S113092081916F01853229F4B70190E00E94E903B7
S1130930E7CF512C312C20E02032A8F48B3261F027
S113094028F4803251F0833271F40BC08D3239F0C7
S1130950803349F4216028C02260246025C02860C7
S113096023C0206121C027FD27C0382F30533A30DF
S113097078F426FF06C0FAE05F9E300D1124532E52
S113098013C08AE0389E300D1124332E20620CC02F
S11309908E3221F426FD71C1206406C08C3611F418
S11309A0206802C0883641F4F60193FD859193FFD7
S11309B081916F018111C0CF982F9554933018F015
S11309C09052933028F40C5F1F4FFFE3F9830DC05E
S11309D0833631F0833771F0833509F05EC023C06C
S11309E0F801808189830E5F1F4F44244394512C66
S11309F0540115C03801F2E06F0E711CF801A0809B
S1130A00B18026FF03C0652D70E002C06FEF7FEF59
S1130A10C5012C870E9442092C0183012C856FE7B4
S1130A20262E222218C03801F2E06F0E711CF80144
S1130A30A080B18026FF03C0652D70E002C06FEF77
S1130A407FEFC5012C870E9437092C012C8550E8C3
S1130A50252E222A830123FC1CC006C0B70180E294
S1130A6090E00E94E9033A94832D90E048165906D9
S1130A70A8F30FC0F50127FC859127FE81915F0142
S1130A80B70190E00E94E90331103A94F1E04F1A63
S1130A9051084114510471F7EDC0843611F08936C0
S1130AA041F5F80127FF07C060817181828193813C
S1130AB00C5F1F4F08C060817181882777FD809586
S1130AC0982F0E5F1F4F4FE6B42EB22297FF09C036
S1130AD090958095709561957F4F8F4F9F4FF0E86B
S1130AE0BF2A2AE030E0A4010E94A809A82EA81871
S1130AF043C0853731F43FEEB32EB2222AE030E012
S1130B0024C099EFB92EB2228F36B9F020F488357B
S1130B1009F0B3C00DC0803721F0883709F0ADC0AB
S1130B2002C020E1B22AB4FE0BC084E0B82A08C097
S1130B3024FF09C0E6E0BE2A06C028E030E005C074
S1130B4020E130E002C020E132E0F801B7FE07C046
S1130B5060817181828193810C5F1F4F06C0608127
S1130B60718180E090E00E5F1F4FA4010E94A809EC
S1130B70A82EA818FFE7BF22B6FE0BC02B2D2E7F90
S1130B80A51450F4B4FE0AC0B2FC08C02B2D2E7E6E
S1130B9005C07A2C2B2D03C07A2C01C0752C24FFA0
S1130BA00DC0FE01EA0DF11D8081803311F4297E10
S1130BB009C022FF06C07394739404C0822F867800
S1130BC009F0739423FD14C020FF0FC05A2C731432
S1130BD060F4530C5718732C08C0B70180E290E0FE
S1130BE02C870E94E90373942C857314B0F304C01A
S1130BF0731410F4371801C0312C24FF12C0B7014C
S1130C0080E390E02C870E94E9032C8522FF1EC01C
S1130C1021FF03C088E590E002C088E790E0B701B7
S1130C200CC0822F867891F021FD02C080E201C0C1
S1130C308BE227FD8DE2B70190E00E94E90306C034
S1130C40B70180E390E00E94E9035A94A514C0F32D
S1130C50AA94F401EA0DF11DB701808190E00E948D
S1130C60E903A110F5CF06C0B70180E290E00E942D
S1130C70E9033A943110F8CF43CEF7012681378146
S1130C8002C02FEF3FEFC9012C96E2E10C94250A34
S1130C9020FD09C0FC0123FD05C022FF02C07383AF
S1130CA06283518340830895CF92DF92EF92FF9243
S1130CB00F931F9344FD10C046FD10C0DB01FC01DF
S1130CC0AA0FBB1FEE1FFF1F1094D1F76A0F7B1FE3
S1130CD08E1F9F1F31E003C033E001C034E0660F74
S1130CE0771F881F991F3150D1F76B017C01C20E09
S1130CF0D11CE11CF11C97018601B601C9011F91A9
S1130D000F91FF90EF90DF90CF9008950F931F9372
S1130D10CF93DF938C01C8010E944D09EC0197FD2C
S1130D2008C00E942409892BB1F7B801CE010E94A2
S1130D308D09CE01DF91CF911F910F9108958F926C
S1130D409F92AF92CF92DF92EF92FF920F931F93F5
S1130D50CF93DF93EC01A62E4A01022F0E944D0986
S1130D60AC0155274B32510521F04D32510551F458
S1130D700068AA9411F480E063C0CE010E944D097A
S1130D8097FDF9CF102F1D7F302F3073E1F480339E
S1130D90D1F4AA9409F440C0CE010E944D0997FDF4
S1130DA03BC0883711F0883549F41264AA94A1F144
S1130DB0CE010E944D0997FF06C02EC006FF02C057
S1130DC0126001C01261C12CD12C7601282F20534E
S1130DD0283080F014FF04C0BE010E948D0919C0A0
S1130DE02A3040F016FFF8CF2F7D322F31513630A4
S1130DF098F72750412FC701B6010E9454066B0192
S1130E007C011260AA9459F0CE010E944D0997FF0B
S1130E10DDCF11FD04C0AFCFC12CD12C760117FF5B
S1130E2008C0F094E094D094C094C11CD11CE11C7F
S1130E30F11C212FB701A601C4010E94480681E0DC
S1130E40DF91CF911F910F91FF90EF90DF90CF90A2
S1130E50AF909F908F9008956F927F929F92AF92E0
S1130E60BF92CF92DF92EF92FF920F931F93CF9393
S1130E70DF93CDB7DEB7A1970FB6F894DEBF0FBEF0
S1130E80CDBF6C017A018901FE01319680E2DF0158
S1130E901D928A95E9F7D60113969C9020E030E0E4
S1130EA0A12CA0E0B12CCF0141E050E0F80193FC6B
S1130EB0759193FE71918F01711103C000E010E0F0
S1130EC080C07E3519F42115310559F1EB2DF0E080
S1130ED0E217F3073CF47D3569F17D3219F4AA2356
S1130EE019F103C0A11101C0A72EE72FE695E695DD
S1130EF0E6953C016E0E711CF301A72FA7703A0111
S1130F0002C0660C771CAA95E2F7D301B081BA2B14
S1130F10B0837A1559F07A1510F47F5FE6CF7150DB
S1130F20E4CFBB24B39403C0A1E001C0A0E02F5FD1
S1130F303F4FBCCFAA2319F08E8180628E83B110FB
S1130F4003C0BB24B3940BC0FE013196CE0181963D
S1130F50208120952193E817F907D1F7F2CFC60134
S1130F6069A30E944D0969A197FD24C0282F2695E5
S1130F7026952695E1E0F0E0EC0FFD1FE20FF11D50
S1130F80208130E0AC014770552702C03595279584
S1130F904A95E2F720FD04C0B6010E948D090AC0FB
S1130FA0E114F10419F0D7018D937D016150B12C46
S1130FB0B1F602C0B11082CFE114F10411F0F701CF
S1130FC01082C801A1960FB6F894DEBF0FBECDBF44
S1130FD0DF91CF911F910F91FF90EF90DF90CF9011
S1130FE0BF90AF909F907F906F9008954F925F92C3
S1130FF07F928F929F92AF92BF92CF92DF92EF92A5
S1131000FF920F931F93CF93DF931F92CDB7DEB759
S11310108C012B017A01FC0117821682A12CF0C0ED
S11310208C2D90E00E942409892B21F0C8010E9494
S11310308606E6C0F5E2CF120AC0F201D3FC359170
S1131040D3FE31912F01353271F455E2C52EC8011A
S11310500E944D0997FDDFC0C81609F4D1C0B8013C
S11310600E948D09DAC03A3241F4D3FC3591D3FEA3
S113107031912F01BB24B39401C0B12C712C10C049
S1131080F2E0BF2A672D70E080E090E040E20E9429
S11310905406762EF201D3FC3591D3FE31912F0103
S11310A0232F20532A3060F3B1FE03C0711003C014
S11310B0B4C077247A94383619F03C3699F40AC0CF
S11310C0F201D3FC3591D3FE31912F01383651F41E
S11310D0F8E0BF2A84E0B82AF201D3FC3591D3FEAC
S11310E031912F01332309F498C0632F70E088E60F
S11310F090E039830E942C093981892B09F48DC031
S1131100B0FC07C0F701C080D18082E0E80EF11C7A
S113111002C0C12CD12C3E3651F4F80146815781CE
S113112060E070E02B2DC6010E94480669C033368A
S113113091F4B1FC02C077247394C8010E944D0954
S113114097FD69C0C114D10419F0F60181936F01B0
S11311507A9499F753C03B3559F49201A601672D4F
S1131160C8010E942C072C01009709F047C041C018
S1131170C80139830E948606398197FD4CC03F36E9
S113118059F128F4343629F1393649F52AC0333770
S113119019F0353721F51DC0C8010E944D094C01D5
S11311A097FD11C00E942409892B29F0B801C401BC
S11311B00E948D0908C0C114D10419F0F60181926E
S11311C06F017A9449F7C114D104C1F0F601108279
S11311D015C0F0E2BF2A05C080E1B82A02C090E43D
S11311E0B92A2B2DA601672DC8010E949F068111E3
S11311F005C0F8018381807371F40FC0B0FEA3941D
S1131200F801D380F201D3FCC590D3FEC1902F0125
S1131210C11006CF02C0AA2019F02A2D30E002C066
S11312202FEF3FEFC9010F90DF91CF911F910F91E5
S1131230FF90EF90DF90CF90BF90AF909F908F90F2
S11312407F905F904F9008959111E0C0803219F023
S113125089508550D0F70895FC010590061621F0B9
S11312600020D9F7C00108953197CF010895FC01FA
S11312700590615070400110D8F7809590958E0FBD
S11312809F1F0895FC016150704001900110D8F730
S1131290809590958E0F9F1F0895CF93DF93EC0157
S11312A03B8130FF34C036FF0AC03F7B3B838E81D5
S11312B09F8101969F838E832A8130E02AC032FF6A
S11312C00FC0E881F9818081992787FD9095009767
S11312D019F430623B831BC03196F983E8830EC056
S11312E0EA85FB85099597FF09C02B81019611F4C6
S11312F080E101C080E2822B8B8309C02E813F8173
S11313002F5F3F4F3F832E839C01332702C02FEF73
S11313103FEFC901DF91CF910895FB01238120FFA5
S113132013C026FD11C08F3F3FEF930769F08283FE
S11313302F7D20642383268137812150310937830F
S113134026839C01332702C02FEF3FEFC901089584
S1131350FA01AA27283051F1203181F1E8946F93E2
S11313606E7F6E5F7F4F8F4F9F4FAF4FB1E03ED088
S1131370B4E03CD0670F781F891F9A1FA11D680F26
S1131380791F8A1F911DA11D6A0F711D811D911D59
S1131390A11D20D009F468943F912AE0269F1124CE
S11313A03019305D3193DEF6CF010895462F477032
S11313B0405D4193B3E00FD0C9F7F6CF462F4F708D
S11313C0405D4A3318F0495D31FD4052419302D0EB
S11313D0A9F7EACFB4E0A695979587957795679591
S11313E0BA95C9F700976105710508959B01AC0191
S11313F00A2E06945795479537952795BA95C9F7B8
S1131400620F731F841F951FA01D089599278827B5
S113141008952F923F924F925F926F927F928F9294
S11314209F92AF92BF92CF92DF92EF92FF920F936F
S11314301F93CF93DF93CDB7DEB7CA1BDB0B0FB679
S1131440F894DEBF0FBECDBF09942A883988488836
S11314505F846E847D848C849B84AA84B984C884CC
S1131460DF80EE80FD800C811B81AA81B981CE0FC3
S1131470D11D0FB6F894DEBF0FBECDBFED010895A8
S1071480F894FFCF0A
S11314840000000300000000400352030000256430
S1131494000A0A496E76616C6964205B25642074D1
S11314A46F2025645D2100415652204D65676131EA
S11314B436385041204D343154363220525443206E
S11314C4536574757000312E2054696D653A202576
S11314D43032643A253032643A253032640A0032B8
S11314E42E20446174653A20253032642D2530322F
S11314F4642D3230253032642C205765656B2044CA
S113150461793A2025640A00332E2054656D706590
S11315147261747572653A20253032642E25303137
S1131524640A00342E205361766520616E6420457C
S113153478697400352E2045786974000A456E7400
S113154465722043686F6963653A20000A0A486F2C
S11315547572205B302D32345D3A20000A4D696E79
S1131564757465205B302D35395D3A20000A536566
S1131574636F6E64205B302D35395D3A20000A0AAE
S11315845765656B446179205B312D375D3A2000E2
S11315940A44617465205B312D33315D3A20000ABD
S11315A44D6F6E7468205B312D31325D3A20000A30
S11115B459656172205B302D39395D3A200093
S9030000FC
