:100000000C9434000C9451000C9451000C94510049
:100010000C9451000C9451000C9451000C9451001C
:100020000C9451000C9451000C9451000C9451000C
:100030000C9451000C9453000C9451000C945100FA
:100040000C9451000C9451000C9451000C945100EC
:100050000C9451000C9451000C9451000C945100DC
:100060000C9451000C94510011241FBECFEFD4E02A
:10007000DEBFCDBF21E0A4E0B1E001C01D92AC30F5
:10008000B207E1F711E0A0E0B1E0EAEAFAE002C06D
:1000900005900D92A430B107D9F70E942A010C9463
:1000A00053050C9400001F920F920FB60F9211246B
:1000B0002F933F934F935F936F937F938F939F9370
:1000C000AF93BF93EF93FF93F89480E592E0909302
:1000D00006018093050180910701882371F08091CA
:1000E0000B018F3F39F080910B0187BD8F5F8093AB
:1000F0000B0115C01092070112C080910B018823DB
:1001000039F080910B0187BD815080930B0107C0AE
:1001100081E0809307018091840080930B0180919E
:100120000401882371F080910A018F3F39F080919A
:100130000A0188BD8F5F80930A011AC010920401E2
:1001400017C080910A01882339F080910A0188BD87
:10015000815080930A010CC081E0809304010E94C9
:10016000240591E08F3F08F490E0980F90930A01E6
:1001700080910801882379F0809109018F3F41F037
:10018000809109018093B4008F5F8093090116C0AC
:100190001092080113C080910901882341F08091D9
:1001A00009018093B40081508093090107C081E068
:1001B0008093080180918500809309017894FF91D4
:1001C000EF91BF91AF919F918F917F916F915F91CF
:1001D0004F913F912F910F900FBE0F901F90189548
:1001E00082959295907F9827807F98279C0140E088
:1001F00050E060E072E18AE790E00E949504822F6F
:10020000932F1092850010928400309387002093E2
:100210008600969587959093890080938800E1E801
:10022000F0E08081826080832FE78AE196E02150B0
:1002300080409040E1F700C0000080818D7F808386
:100240002FE788E391E0215080409040E1F700C023
:10025000000008958FEF8AB91BB88EEF84B915B8E6
:1002600081E080937E0093EA94BD93E095BD16BC37
:1002700017BC18BC20EC2093800020E12093810063
:1002800080936F0021E22093B0009093B100109210
:10029000B2001092B400809307010E94240591E0FF
:1002A0008F3F08F490E0980F90930A0181E08093CB
:1002B00004010E94240591E08F3F08F490E0980F1C
:1002C0009093090181E080930801789413E0D1E0D4
:1002D00000E0C12F6091050170910601645D7E4FC1
:1002E00088E891E00E94F00060910501709106019C
:1002F0006C597F4F88EB91E00E94F00060910501FE
:10030000709106016C507E4F8BE092E00E94F000ED
:1003100060910501709106016E537E4F8BE092E073
:100320000E94F000609105017091060162587B4FB8
:100330008FE093E00E94F00060910501709106014A
:10034000625A7E4F80E793E00E94F00060910501C1
:1003500070910601625A7E4F80E793E00E94F000A0
:1003600060910501709106016A567F4F80E793E026
:100370000E94F000609105017091060162587B4F68
:100380008FE093E00E94F0006091050170910601FA
:100390006E537E4F8AEB92E00E94F000609105015F
:1003A00070910601645D7E4F8AEB92E00E94F0003E
:1003B000609105017091060166507F4F8AEB92E0D3
:1003C0000E94F000609105017091060162587B4F18
:1003D00083E992E00E94F0006091050170910601AE
:1003E000685A7D4F8BE492E00E94F0006091050115
:1003F0007091060161557F4F83E992E00E94F00001
:1004000060910501709106016C597F4F8BE492E079
:100410000E94F0006091050170910601665E7B4FBD
:100420008BE092E00E94F00060910501709106015E
:100430006A5D7D4F8BE092E00E94F00060910501C3
:100440007091060161557F4F8BE092E00E94F000B1
:1004500060910501709106016C597F4F8BE092E02D
:100460000E94F00060910501709106016C597F4F68
:100470008BE092E00E94F00060910501709106010E
:100480006A567F4F8BE092E00E94F0006091050178
:10049000709106016C5E7A4F8BE092E00E94F00052
:1004A0006091050170910601685A7D4F8BE092E0E2
:1004B0000E94F000609105017091060168537F4F22
:1004C0008EEE91E00E94F00068EC70E08BE092E02C
:1004D0000E94F000609105017091060168537F4F02
:1004E0008BE492E00E94F000CC2309F486C0609176
:1004F000050170910601605C794F8BE092E00E94EB
:10050000F000C33009F099C02FE78BE898E0215044
:1005100080409040E1F700C00000609105017091BB
:1005200006016A5D7D4F8BE092E00E94F0006091D1
:1005300005017091060161557F4F8BE092E00E94AA
:10054000F00060910501709106016C597F4F8BE0BE
:1005500092E00E94F00060910501709106016C59D3
:100560007F4F8BE092E00E94F00060910501709156
:1005700006016A567F4F8BE092E00E94F000609186
:100580000501709106016C5E7A4F8BE092E00E944B
:10059000F0006091050170910601605E7C4F8BE078
:1005A00092E00E94F0006091050170910601605791
:1005B0007E4F8EEE91E00E94F000609105017091F7
:1005C0000601645D7E4F8BE092E00E94F000609136
:1005D000050170910601645D7E4F8BE492E00E94FC
:1005E000F00060910501709106016450774F8BE037
:1005F00092E00E94F000C02F6DCE609105017091D5
:100600000601645B7B4F83E992E00E94F0006091F9
:10061000050170910601605E7C4F83E992E00E94C3
:10062000F0006091050170910601605C794F8BE4E8
:1006300092E00E94F000CD2F4DCE2FE78BE898E09E
:10064000215080409040E1F700C00000609105011A
:10065000709106016E537E4F8BE092E00E94F00095
:1006600060910501709106016A567F4F8BE492E01C
:100670000E94F00060910501709106016E5C7F4F51
:100680008BE492E00E94F0006091050170910601F8
:100690006E5C7F4F8BE492E00E94F0006091050158
:1006A000709106016F5F7F4F8BE492E00E94F00033
:1006B000609105017091060168517C4F8BE492E0D6
:1006C0000E94F00060910501709106016E537E4F0B
:1006D00088E891E00E94F0006091050170910601A8
:1006E0006A567F4F83E992E00E94F0006091050115
:1006F000709106016E5C7F4F83E992E00E94F000EA
:1007000060910501709106016E5C7F4F83E992E074
:100710000E94F00060910501709106016F5F7F4FAC
:1007200083E992E00E94F00060910501709106015A
:1007300068517C4F83E992E00E94F00060910501CE
:1007400070910601625A7E4F8BE092E00E94F000A9
:10075000609105017091060166507F4F8BE492E035
:100760000E94F00060910501709106016C597F4F65
:100770008BE492E00E94F000609105017091060107
:10078000655B7F4F8BE492E00E94F0006091050171
:1007900070910601625A7E4F8BE492E00E94F00055
:1007A00060910501709106016A567F4F8BE092E0DF
:1007B0000E94F000609105017091060166507F4F24
:1007C0008BE492E00E94F0006091050170910601B7
:1007D00068517C4F83E992E00E94F000609105012E
:1007E0007091060166507F4F83E992E00E94F0000D
:1007F000609105017091060161557F4F8FE093E094
:100800000E94F00060910501709106016E537E4FC9
:1008100080E793E00E94F00060910501709106016D
:100820006C597F4F80E793E00E94F00060910501D2
:10083000709106016A567F4F83E992E00E94F000B2
:10084000609105017091060168517C4F8FE093E043
:100850000E94F00060910501709106016C597F4F74
:1008600080E793E00E94F00060910501709106011D
:100870006E5C7F4F80E793E00E94F000609105017D
:10088000709106016A567F4F83E992E00E94F00062
:10089000609105017091060168517C4F8FE093E0F3
:1008A0000E94F00060910501709106016C597F4F24
:1008B00080E793E00E94F0006091050170910601CD
:1008C0006E5C7F4F80E793E00E94F000609105012D
:1008D000709106016A567F4F83E992E00E94F00012
:1008E000609105017091060168517C4F8FE093E0A3
:1008F0000E94F00060910501709106016E537E4FD9
:100900008AEB92E00E94F0006AE872E083E992E0EC
:100910000E94F00060910501709106016C5E7A4FB3
:100920008BE492E00E94F000D4CC052E97FB16F4E5
:10093000009407D057FD0DD00E94B10407FC09D0E8
:100940007EF490958095709561957F4F8F4F9F4F66
:10095000089550954095309521953F4F4F4F5F4FEB
:100960000895A1E21A2EAA1BBB1BFD010DC0AA1FF0
:10097000BB1FEE1FFF1FA217B307E407F50720F008
:10098000A21BB30BE40BF50B661F771F881F991F83
:100990001A9469F760957095809590959B01AC01CC
:1009A000BD01CF0108958F929F92AF92BF92CF92D7
:1009B000DF92EF92FF92CF93DF93EC016881798110
:1009C0008A819B81611571058105910521F464E29D
:1009D00079ED8BE597E02DE133EF41E050E00E94A7
:1009E000950449015A019B01AC01A7EAB1E40E94B8
:1009F00034056B017C01ACEEB4EFA50194010E94BB
:100A00004205C60ED71EE81EF91EF7FE06C081E09D
:100A1000C81AD108E10880E8F80AC882D982EA82B7
:100A2000FB82E894D7F8EE24FF24C601DF91CF9132
:100A3000FF90EF90DF90CF90BF90AF909F908F90FE
:100A400008950E94D304089580E091E00E94D304A9
:100A50000895A0E0B0E08093000190930101A0937D
:100A60000201B093030108950E944705A59F900DD0
:100A7000B49F900DA49F800D911D11240895B7FF80
:100A80000C9434050E943405821B930B0895A29F99
:100A9000B001B39FC001A39F01D0B29F700D811D13
:0A0AA0001124911D0895F894FFCF72
:040AAA000100000047
:00000001FF
