:100000000C9434000C9451000C9451000C94510049
:100010000C9451000C9451000C9451000C9451001C
:100020000C9451000C9451000C9451000C9451000C
:100030000C9451000C9451000C9451000C945100FC
:100040000C9451000C9451000C9451000C945100EC
:100050000C9451000C9451000C9451000C945100DC
:100060000C9451000C94510011241FBECFEFD4E02A
:10007000DEBFCDBF11E0A0E0B1E0ECECF2E002C0E9
:1000800005900D92A430B107D9F721E0A4E0B1E0CA
:1000900001C01D92AE30B207E1F70E9417010C9427
:1000A00064010C940000813051F028F0823059F046
:1000B000833091F40CC084EA8093BC000DC084E8C6
:1000C0008093BC0009C084EC8093BC0005C084E927
:1000D0008093BC0080E00895ECEBF0E08081882301
:1000E000ECF78091B900887F08950F931F93CF9309
:1000F000DF9312E3807F9927842B67707727082F7F
:10010000062BCBEBD0E002C01150A9F080E00E949A
:1001100053008833C9F3883011F0803171F40883BB
:1001200081E00E945300803279F3883369F388318B
:1001300031F08FEF05C08FEF03C08FEF01C080E07B
:10014000DF91CF911F910F91089583E00E9453009A
:1001500008958093BB0081E00E945300883211F023
:100160008FEF089580E00895CF93DF93EC0166232D
:1001700031F082E00E945300803559F405C081E0DF
:100180000E945300883539F48091BB00888380E059
:1001900003C08FEF01C08FEFDF91CF910895CF9310
:1001A000DF931F92CDB7DEB740E062E070E080E9F8
:1001B00090E00E94750080E00E94A9000E94A500C6
:1001C00041E062E070E080E990E00E94750061E04B
:1001D000CE0101960E94B400898180930B0161E0F9
:1001E000CE0101960E94B400898182958F70809320
:1001F0000C010E94A5000F90DF91CF9108958A30E5
:1002000068F090E39F5F8A508A30E0F7903319F4EA
:100210009093000106C09093000103C090E3909377
:100220000001805D8093010180E091E0089588E104
:100230008093C10086E08093C20083E38093C40072
:100240001092B90084E28093B8000F2EFBE0EF2EED
:10025000F1E0FF2EF02DC0ECD0E006EC10E00F2E08
:10026000F0E3AF2EF02D0F2EF1E3BF2EF02D0F2E69
:10027000FAE0CF2EF02D0F2EFDE0DF2EF02D0E94A4
:10028000CF00F70180810E94FF00888185FFFDCFAC
:10029000F801A082B082FFE72AE186E0F150204019
:1002A0008040E1F700C00000888185FFFDCFF801A4
:1002B000C082D082FFE72AE186E0F15020408040F2
:0C02C000E1F700C00000DBCFF894FFCF96
:0402CC0030300000CE
:00000001FF
