:100000000C9434000C9451000C9451000C94510049
:100010000C9451000C9451000C9451000C9451001C
:100020000C9451000C9451000C9451000C9451000C
:100030000C9451000C9451000C9451000C945100FC
:100040000C9451000C9451000C9451000C945100EC
:100050000C9451000C9451000C9451000C945100DC
:100060000C9451000C94510011241FBECFEFD4E02A
:10007000DEBFCDBF11E0A0E0B1E0ECE9F1E002C0ED
:1000800005900D92A031B107D9F711E0A0E1B1E0E0
:1000900001C01D92A031B107E1F70E94B0000C949D
:1000A000CC000C940000009761F020E030E04EEEB0
:1000B00052E0FA013197F1F72F5F3F4F28173907C8
:1000C000C1F708958EBD0DB407FEFDCF0895CF93FF
:1000D000482F5B98662371F082958F7020E031E0A5
:1000E000F901E80FF11DC0814F70240F311DF90196
:1000F00050811DC0AAE06A2F0E94C00020E031E0BC
:10010000F901E90FF11D5081842F64E60E94C000BF
:10011000482F892F6A2F0E94C000280F311DF90136
:10012000C081442321F05068423008F0C068852F18
:100130000E9462008C2F0E9462005B9ACF9108950A
:1001400015B88FE384B918B817B81BB888E08AB916
:10015000089584B1886284B981E58CBD1DBC089581
:100160000E94A0000E94A90080E0C82FCF5F61E03C
:100170000E94670088EE93E00E9453008C2FF5CF19
:10018000991B79E004C0991F961708F0961B881FE9
:0C0190007A95C9F780950895F894FFCF88
:10019C00C0F9A4B0999282F880908883C6A1868E0B
:00000001FF
