S01700004763634170706C69636174696F6E322E737265635A
S11300000C943A000C9457000C9457000C9457002D
S11300100C9457000C9457000C9457000C94570000
S11300200C9457000C94F8030C9457000C9457004C
S11300300C9457000C9457000C9457000C945700E0
S11300400C94BE030C9457000C9457000C94570066
S11300500C9457000C9457000C9457000C945700C0
S11300600C9457000C9457006364696E6F70737539
S113007078585B0011241FBECFEFD4E0DEBFCDBFA4
S113008012E0A0E0B1E0E0E7F7E102C005900D92D4
S1130090AE32B107D9F722E0AEE2B2E001C01D9260
S11300A0AE33B207E1F70E9430040C94B60B0C9403
S11300B00000CF93C82F8A3019F48DE00E945900B4
S11300C0E0ECF0E0908195FFFDCFC093C60080E0A6
S11300D090E0CF910895CF93BC01E0ECF0E08081F3
S11300E08823ECF7C091C6008C2F0E9459008C2FF6
S11300F090E0CF9108951092C5008BE08093C400E6
S113010088E18093C10086E08093C2000895CF9374
S1130110DF93CAE3D2E0688179818BE190E00E94A9
S11301205F05688179818BE590E00E945F056881B5
S1130130798188E490E00E945F05688179818BE190
S113014090E00E945F05688179818BE590E00E94D0
S11301505F05688179818AE490E00E945F05DF9100
S1130160CF910895CF93DF93CAE3D2E06881798178
S11301708BE190E00E945F05688179818BE590E0D6
S11301800E945F056881798180E390E00E945F05A9
S1130190688179818DE690E00E945F05DF91CF91BF
S11301A00895FF920F931F93CF93DF93182FF62E8A
S11301B0CAE3D2E0688179818BE190E00E945F0517
S11301C0688179818BE590E00E945F051F921F93FF
S11301D008E111E01F930F930E948B0568817981D8
S11301E08BE390E00E945F051F92FF921F930F9391
S11301F00E948B056881798188E490E00E945F0504
S11302008DB79EB708960FB6F8949EBF0FBE8DBFEC
S1130210DF91CF911F910F91FF900895813051F09C
S113022028F0823059F0833091F40CC084EA809332
S1130230BC000DC084E88093BC0009C084EC8093AA
S1130240BC0005C084E98093BC0080E00895ECEB19
S1130250F0E080818823ECF78091B900887F0895CD
S11302600F931F93CF93DF9312E3807F9927842BFF
S113027067707727082F062BCBEBD0E002C0115014
S1130280A9F080E00E940E018833C9F3883011F090
S1130290803171F4088381E00E940E01803279F389
S11302A0883369F3883131F08FEF05C08FEF03C0D5
S11302B08FEF01C080E0DF91CF911F910F910895DE
S11302C083E00E940E0108958093BB0081E00E94A8
S11302D00E01883211F08FEF089580E00895CF93D6
S11302E0DF93EC01662331F082E00E940E01803539
S11302F059F405C081E00E940E01883539F48091DB
S1130300BB00888380E003C08FEF01C08FEFDF91D3
S1130310CF9108959DEC899F912D112496959695E2
S11303209695292F220F322F330F330F230F821B61
S113033020E1929F800D11240895CF93DF931F92A3
S1130340CDB7DEB740E060E070E080ED90E00E9461
S1130350300180E00E9464010E94600141E060E09D
S113036070E080ED90E00E94300161E0CE010196E2
S11303700E946F0189818F7780932E0261E0CE0104
S113038001960E946F0189818F7780932F0261E02B
S1130390CE0101960E946F0189818F738093300290
S11303A061E0CE0101960E946F018981877080937C
S11303B0310261E0CE0101960E946F0189818F7341
S11303C08093320261E0CE0101960E946F0189811F
S11303D08F718093330260E0CE0101960E946F0119
S11303E08981809334020E9460010F90DF91CF9144
S11303F00895CF93DF931F92CDB7DEB740E062E05C
S113040070E080E990E00E94300180E00E94640185
S11304100E94600141E062E070E080E990E00E94A7
S1130420300161E0CE0101960E946F0189810E9432
S11304308A018093350261E0CE0101960E946F012A
S1130440898182958F70809336020E9460010F909B
S1130450DF91CF9108950F931F93CF93DF93EEE233
S1130460F2E080818F77808340E060E070E080ED8F
S113047090E00E94300180E00E946401CEE2D2E06C
S113048005E312E089910E948A010E946401C01769
S1130490D107C1F70E946001DF91CF911F910F91A5
S11304A008950F931F93CF93DF9300D0CDB7DEB79A
S11304B0182F062F9E012F5F3F4F3F932F9328E164
S11304C031E03F932F930E94CE05412F50E02981C4
S11304D03A810F900F900F900F90241735072CF04E
S11304E0402F50E042175307DCF41F920F931F92E2
S11304F01F938BE191E09F938F930E948B052FEFC5
S11305008FE39BE0215080409040E1F700C0000061
S11305100F900F900F900F900F900F908FEF01C0DE
S1130520822F0F900F90DF91CF911F910F9108951B
S1130530FC01623009F049C05B9880E18EBD0DB4C6
S113054007FEFDCFA781A295AF70B0E0A25FBE4FBA
S11305508C918EBD0DB407FEFDCF5B9A5B9880E253
S11305608EBD0DB407FEFDCFA781AF70B0E0A25FD2
S1130570BE4F8C918EBD0DB407FEFDCF5B9A5B9888
S113058080E88EBD0DB407FEFDCF808590E0880F16
S1130590991F9C01220F331F220F331F820F931FB9
S11305A099230CF40F96FC01F595E795F595E795DD
S11305B0F595E795F595E795E25FFE4F80818EBD51
S11305C00DB407FEFDCF5B9A089561116AC05B9874
S11305D080E88EBD0DB407FEFDCFA381AF70B0E0FF
S11305E0A25FBE4F8C918EBD0DB407FEFDCF5B9A0A
S11305F05B9880E48EBD0DB407FEFDCFA381A29568
S1130600AF70B0E0A25FBE4F8C918EBD0DB407FEFB
S1130610FDCF5B9A5B9880E18EBD0DB407FEFDCFE4
S1130620A481AF70B0E0A25FBE4F8C918EBD0DB4BB
S113063007FEFDCF5B9A5B9888E08EBD0DB407FE84
S1130640FDCFA481A295AF70B0E0A25FBE4F8C91A4
S11306508EBD0DB407FEFDCF5B9A5B9882E08EBD24
S11306600DB407FEFDCFA581AF70B0E0A25FBE4F11
S11306708C918EBD0DB407FEFDCF5B9A5B9881E033
S11306808EBD0DB407FEFDCFE581E295EF70F0E07D
S1130690E25FFE4F80818EBD0DB407FEFDCF5B9AF5
S11306A00895613009F069C05B9880E88EBD0DB48F
S11306B007FEFDCFA081AF70B0E0A25FBE4F8C916A
S11306C08EBD0DB407FEFDCF5B9A5B9880E48EBDB2
S11306D00DB407FEFDCFA081A295AF70B0E0A25F7C
S11306E0BE4F8C918EBD0DB407FEFDCF5B9A5B9817
S11306F080E18EBD0DB407FEFDCFA181AF70B0E0E7
S1130700A25FBE4F8C918EBD0DB407FEFDCF5B9AE8
S11307105B9888E08EBD0DB407FEFDCFA181A29544
S1130720AF70B0E0A25FBE4F8C918EBD0DB407FEDA
S1130730FDCF5B9A5B9882E08EBD0DB407FEFDCFC2
S1130740A281AF70B0E0A25FBE4F8C918EBD0DB49C
S113075007FEFDCF5B9A5B9881E08EBD0DB407FE6A
S1130760FDCFE281E295EF70F0E0E25FFE4F808121
S11307708EBD0DB407FEFDCF5B9A08951F920F92B4
S11307800FB60F9211242F933F934F935F936F9360
S11307907F938F939F93AF93BF93EF93FF9333997B
S11307A012C089E993E00197F1F700C0339905C0BD
S11307B0809137028F5F80933702809137028330B4
S11307C010F0109237020E949D010E94F901FF91DE
S11307D0EF91BF91AF919F918F917F916F915F91B5
S11307E04F913F912F910F900FBE0F901F9018952E
S11307F01F920F920FB60F9211242F933F934F9392
S11308005F936F937F938F939F93AF93BF93EF9374
S1130810FF93609137028EE292E00E949802FF916A
S1130820EF91BF91AF919F918F917F916F915F9164
S11308304F913F912F910F900FBE0F901F901895DD
S11308408FEF88B988E087B984E08BB98CE08AB9E6
S1130850089584B18C6284B981E58CBD1DBC089572
S113086080E091E0909339028093380290933B02A8
S113087080933A020E9420040E9429040E947B0073
S11308801092B90080E28093B80014BC1092B000BA
S113089095E095BD92E09093B10086BD1092B200B0
S11308A081E080936E0080937000789410923702F8
S11308B0C12CDD24D3940F2EF1E34F2EF1E05F2EF3
S11308C0F02D0F2EFEE2AF2EF2E0BF2EF02D0F2EF4
S11308D0F0E52F2EF1E03F2EF02DC4E3D2E00F2EF1
S11308E0F3E38F2EF2E09F2EF02D0F2EF2E36F2E06
S11308F0F2E07F2EF02D0F2EF9E6EF2EF1E0FF2E21
S1130900F02D0BEA11E04A990BC08FEF93E20197A7
S1130910F1F700C000004A9903C0F894CD2C02C03E
S1130920CC2089F30E94B2000E9487006D2D8D2D8A
S11309300E94D1005F924F920E948B056D2D83E03F
S11309400E94D100F50180811F928F93EFE2F2E0C3
S113095080811F928F93E0E3F2E080811F928F9356
S11309603F922F920E948B05E1E3F2E080811F9277
S11309708F9388811F928F93F40180811F928F93AC
S1130980F30180811F928F93FF92EF920E948B0557
S113099082E991E00E949F0583EA91E00E949F050D
S11309A01F930F930E948B0565E08D2D0E945102C9
S11309B02DB73EB72A5E3F4F0FB6F8943EBF0FBE29
S11309C02DBF8230C9F120F4813009F09CCF07C0DB
S11309D0833009F46BC0843009F095CF69C08BEB88
S11309E091E09F938F930E948B0568E180E00E94C1
S11309F05102E0E3F2E080838BEC91E09F938F93CC
S1130A000E948B056BE380E00E945102EFE2F2E06A
S1130A1080838CED91E09F938F930E948B056BE311
S1130A2080E00E945102F50180830F900F900F9097
S1130A300F900F900F9067CF2DEE31E03F932F93DF
S1130A400E948B0567E08D2D0E945102E1E3F2E0E4
S1130A5080838FEF91E09F938F930E948B056FE1CA
S1130A608D2D0E945102F30180838EE092E09F93CA
S1130A708F930E948B056CE08D2D0E945102F4012E
S1130A8080838EE192E09F938F930E948B0563E6AF
S1130A9080E00E94510288832DB73EB7285F3F4F04
S1130AA00FB6F8943EBF0FBE2DBF2DCF0E942B0270
S1130AB00E94870084E986BD7894C12C24CF0F93CB
S1130AC01F93CF93DF938C01EB018B8181FD03C0D6
S1130AD00FEF1FEF1AC082FF0DC02E813F818C8162
S1130AE09D812817390764F4E881F9810193F9831A
S1130AF0E88306C0E885F985802F0995892B41F79D
S1130B008E819F8101969F838E83C801DF91CF914F
S1130B101F910F910895A0E0B0E0E1E9F5E00C9495
S1130B208F0BFE01359661917191AF0180913A026C
S1130B3090913B020E94E205E2E00C94AB0B0F9310
S1130B401F93CF93DF938C01E0913A02F0913B0223
S1130B50838181FF1BC0C0E0D0E005C00995892BCB
S1130B6011F0CFEFDFEFF80181918F0160913A022C
S1130B7070913B02DB011896ED91FC91199781115C
S1130B80EDCF8AE00995892B09F402C0CFEFDFEF9E
S1130B90CE01DF91CF911F910F910895A0E0B0E0B5
S1130BA0E4EDF5E00C948F0BFE01359661917191A3
S1130BB0AF0180913802909139020E946C09E2E001
S1130BC00C94AB0BACE0B0E0E8EEF5E00C947F0BDA
S1130BD07C016B018A01FC0117821682838181FFEB
S1130BE0C6C188248394912C8C0E9D1EF701938199
S1130BF0F60193FD859193FF81916F01882309F498
S1130C00B2C1853239F493FD859193FF81916F01CF
S1130C10853229F4B70190E00E945F05E7CF512C9B
S1130C20312C20E02032A8F48B3261F028F4803299
S1130C3051F0833271F40BC08D3239F0803349F4B2
S1130C40216028C02260246025C0286023C0206160
S1130C5021C027FD27C0382F30533A3078F426FFBF
S1130C6006C0FAE05F9E300D1124532E13C08AE0B3
S1130C70389E300D1124332E20620CC08E3221F4A4
S1130C8026FD71C1206406C08C3611F4206802C0B0
S1130C90883641F4F60193FD859193FF81916F01AC
S1130CA08111C0CF982F9554933018F090529330FF
S1130CB028F40C5F1F4FFFE3F9830DC0833631F036
S1130CC0833771F0833509F05EC023C0F801808159
S1130CD089830E5F1F4F44244394512C540115C043
S1130CE03801F2E06F0E711CF801A080B18026FF7C
S1130CF003C0652D70E002C06FEF7FEFC5012C8744
S1130D000E94B80A2C0183012C856FE7262E22222B
S1130D1018C03801F2E06F0E711CF801A080B18098
S1130D2026FF03C0652D70E002C06FEF7FEFC501A1
S1130D302C870E94AD0A2C012C8550E8252E222AEE
S1130D40830123FC1CC006C0B70180E290E00E942E
S1130D505F053A94832D90E048165906A8F30FC016
S1130D60F50127FC859127FE81915F01B70190E091
S1130D700E945F0531103A94F1E04F1A5108411472
S1130D80510471F7EDC0843611F0893641F5F8014C
S1130D9027FF07C060817181828193810C5F1F4F9F
S1130DA008C060817181882777FD8095982F0E5F38
S1130DB01F4F4FE6B42EB22297FF09C0909580953D
S1130DC0709561957F4F8F4F9F4FF0E8BF2A2AE0BF
S1130DD030E0A4010E941E0BA82EA81843C085373A
S1130DE031F43FEEB32EB2222AE030E024C099EF72
S1130DF0B92EB2228F36B9F020F4883509F0B3C089
S1130E000DC0803721F0883709F0ADC002C020E161
S1130E10B22AB4FE0BC084E0B82A08C024FF09C07B
S1130E20E6E0BE2A06C028E030E005C020E130E05C
S1130E3002C020E132E0F801B7FE07C06081718191
S1130E40828193810C5F1F4F06C06081718180E0B5
S1130E5090E00E5F1F4FA4010E941E0BA82EA8183D
S1130E60FFE7BF22B6FE0BC02B2D2E7FA51450F436
S1130E70B4FE0AC0B2FC08C02B2D2E7E05C07A2C0D
S1130E802B2D03C07A2C01C0752C24FF0DC0FE014C
S1130E90EA0DF11D8081803311F4297E09C022FFFF
S1130EA006C07394739404C0822F867809F07394F7
S1130EB023FD14C020FF0FC05A2C731460F4530C8C
S1130EC05718732C08C0B70180E290E02C870E9469
S1130ED05F0573942C857314B0F304C0731410F479
S1130EE0371801C0312C24FF12C0B70180E390E011
S1130EF02C870E945F052C8522FF1EC021FF03C0A2
S1130F0088E590E002C088E790E0B7010CC0822F2A
S1130F10867891F021FD02C080E201C08BE227FDBA
S1130F208DE2B70190E00E945F0506C0B70180E33F
S1130F3090E00E945F055A94A514C0F3AA94F401AA
S1130F40EA0DF11DB701808190E00E945F05A110B8
S1130F50F5CF06C0B70180E290E00E945F053A94A5
S1130F603110F8CF43CEF7012681378102C02FEF2D
S1130F703FEFC9012C96E2E10C949B0B20FD09C0C4
S1130F80FC0123FD05C022FF02C0738362835183E9
S1130F9040830895CF92DF92EF92FF920F931F93B5
S1130FA044FD10C046FD10C0DB01FC01AA0FBB1FAD
S1130FB0EE1FFF1F1094D1F76A0F7B1F8E1F9F1F18
S1130FC031E003C033E001C034E0660F771F881FAF
S1130FD0991F3150D1F76B017C01C20ED11CE11C69
S1130FE0F11C97018601B601C9011F910F91FF9071
S1130FF0EF90DF90CF9008950F931F93CF93DF93DB
S11310008C01C8010E94C30AEC0197FD08C00E942C
S11310109A0A892BB1F7B801CE010E94030BCE01C5
S1131020DF91CF911F910F9108958F929F92AF926C
S1131030CF92DF92EF92FF920F931F93CF93DF93A0
S1131040EC01A62E4A01022F0E94C30AAC015527C7
S11310504B32510521F04D32510551F40068AA94E8
S113106011F480E063C0CE010E94C30A97FDF9CF5A
S1131070102F1D7F302F3073E1F48033D1F4AA9404
S113108009F440C0CE010E94C30A97FD3BC08837D3
S113109011F0883549F41264AA94A1F1CE010E949A
S11310A0C30A97FF06C02EC006FF02C0126001C02B
S11310B01261C12CD12C7601282F2053283080F0C6
S11310C014FF04C0BE010E94030B19C02A3040F073
S11310D016FFF8CF2F7D322F3151363098F7275035
S11310E0412FC701B6010E94CA076B017C0112603F
S11310F0AA9459F0CE010E94C30A97FFDDCF11FDD7
S113110004C0AFCFC12CD12C760117FF08C0F094D6
S1131110E094D094C094C11CD11CE11CF11C212F7B
S1131120B701A601C4010E94BE0781E0DF91CF91FF
S11311301F910F91FF90EF90DF90CF90AF909F9011
S11311408F9008956F927F929F92AF92BF92CF92A9
S1131150DF92EF92FF920F931F93CF93DF93CDB75C
S1131160DEB7A1970FB6F894DEBF0FBECDBF6C01FA
S11311707A018901FE01319680E2DF011D928A9590
S1131180E9F7D60113969C9020E030E0A12CA0E072
S1131190B12CCF0141E050E0F80193FC759193FE2E
S11311A071918F01711103C000E010E080C07E35A1
S11311B019F42115310559F1EB2DF0E0E217F3078D
S11311C03CF47D3569F17D3219F4AA2319F103C089
S11311D0A11101C0A72EE72FE695E695E6953C01FF
S11311E06E0E711CF301A72FA7703A0102C0660CA2
S11311F0771CAA95E2F7D301B081BA2BB0837A1594
S113120059F07A1510F47F5FE6CF7150E4CFBB2418
S1131210B39403C0A1E001C0A0E02F5F3F4FBCCF57
S1131220AA2319F08E8180628E83B11003C0BB247F
S1131230B3940BC0FE013196CE0181962081209596
S11312402193E817F907D1F7F2CFC60169A30E94E9
S1131250C30A69A197FD24C0282F269526952695B3
S1131260E1E0F0E0EC0FFD1FE20FF11D208130E022
S1131270AC014770552702C0359527954A95E2F78A
S113128020FD04C0B6010E94030B0AC0E114F1045E
S113129019F0D7018D937D016150B12CB1F602C0D4
S11312A0B11082CFE114F10411F0F7011082C801EA
S11312B0A1960FB6F894DEBF0FBECDBFDF91CF91DC
S11312C01F910F91FF90EF90DF90CF90BF90AF9060
S11312D09F907F906F9008954F925F927F928F922C
S11312E09F92AF92BF92CF92DF92EF92FF920F93B1
S11312F01F93CF93DF931F92CDB7DEB78C012B01E1
S11313007A01FC0117821682A12CF0C08C2D90E08A
S11313100E949A0A892B21F0C8010E94FC07E6C0AA
S1131320F5E2CF120AC0F201D3FC3591D3FE31911C
S11313302F01353271F455E2C52EC8010E94C30A4B
S113134097FDDFC0C81609F4D1C0B8010E94030B91
S1131350DAC03A3241F4D3FC3591D3FE31912F01F6
S1131360BB24B39401C0B12C712C10C0F2E0BF2A8D
S1131370672D70E080E090E040E20E94CA07762E7C
S1131380F201D3FC3591D3FE31912F01232F205349
S11313902A3060F3B1FE03C0711003C0B4C07724D7
S11313A07A94383619F03C3699F40AC0F201D3FC29
S11313B03591D3FE31912F01383651F4F8E0BF2A2C
S11313C084E0B82AF201D3FC3591D3FE31912F0188
S11313D0332309F498C0632F70E088E690E03983E2
S11313E00E94A20A3981892B09F48DC0B0FC07C080
S11313F0F701C080D18082E0E80EF11C02C0C12C4C
S1131400D12C3E3651F4F8014681578160E070E0FA
S11314102B2DC6010E94BE0769C0333691F4B1FC7E
S113142002C077247394C8010E94C30A97FD69C05F
S1131430C114D10419F0F60181936F017A9499F7DC
S113144053C03B3559F49201A601672DC8010E948F
S1131450A2082C01009709F047C041C0C801398394
S11314600E94FC07398197FD4CC03F3659F128F49E
S1131470343629F1393649F52AC0333719F035376E
S113148021F51DC0C8010E94C30A4C0197FD11C07B
S11314900E949A0A892B29F0B801C4010E94030B07
S11314A008C0C114D10419F0F60181926F017A9435
S11314B049F7C114D104C1F0F601108215C0F0E25D
S11314C0BF2A05C080E1B82A02C090E4B92A2B2DB6
S11314D0A601672DC8010E941508811105C0F801F5
S11314E08381807371F40FC0B0FEA394F801D3809C
S11314F0F201D3FCC590D3FEC1902F01C11006CFD9
S113150002C0AA2019F02A2D30E002C02FEF3FEFCD
S1131510C9010F90DF91CF911F910F91FF90EF9030
S1131520DF90CF90BF90AF909F908F907F905F900F
S11315304F9008959111E0C0803219F08950855080
S1131540D0F70895FC010590061621F00020D9F784
S1131550C00108953197CF010895FC0105906150B1
S113156070400110D8F7809590958E0F9F1F0895B5
S1131570FC016150704001900110D8F7809590955E
S11315808E0F9F1F0895CF93DF93EC013B8130FFB3
S113159034C036FF0AC03F7B3B838E819F81019616
S11315A09F838E832A8130E02AC032FF0FC0E881F6
S11315B0F9818081992787FD9095009719F430620D
S11315C03B831BC03196F983E8830EC0EA85FB8513
S11315D0099597FF09C02B81019611F480E101C0A0
S11315E080E2822B8B8309C02E813F812F5F3F4F86
S11315F03F832E839C01332702C02FEF3FEFC901A5
S1131600DF91CF910895FB01238120FF13C026FDB4
S113161011C08F3F3FEF930769F082832F7D2064D1
S113162023832681378121503109378326839C0106
S1131630332702C02FEF3FEFC9010895FA01AA270B
S1131640283051F1203181F1E8946F936E7F6E5F01
S11316507F4F8F4F9F4FAF4FB1E03ED0B4E03CD0AF
S1131660670F781F891F9A1FA11D680F791F8A1F92
S1131670911DA11D6A0F711D811D911DA11D20D0F9
S113168009F468943F912AE0269F11243019305DB3
S11316903193DEF6CF010895462F4770405D4193A4
S11316A0B3E00FD0C9F7F6CF462F4F70405D4A33F1
S11316B018F0495D31FD4052419302D0A9F7EACFB9
S11316C0B4E0A6959795879577956795BA95C9F7E8
S11316D000976105710508959B01AC010A2E0694DB
S11316E05795479537952795BA95C9F7620F731F94
S11316F0841F951FA01D08959927882708952F9268
S11317003F924F925F926F927F928F929F92AF928D
S1131710BF92CF92DF92EF92FF920F931F93CF93DA
S1131720DF93CDB7DEB7CA1BDB0B0FB6F894DEBF71
S11317300FBECDBF09942A88398848885F846E8497
S11317407D848C849B84AA84B984C884DF80EE80E1
S1131750FD800C811B81AA81B981CE0FD11D0FB6EA
S1131760F894DEBF0FBECDBFED010895F894FFCF0E
S1131770000000030000000059006B0000003F0659
S11317805B4F666D7D077F6F2564000A0A496E769C
S1131790616C6964205B256420746F2025645D217D
S11317A000415652204D6567613136385041204D15
S11317B034315430302052544320536574757000D2
S11317C0312E2054696D653A20253032643A253033
S11317D032643A253032640A00322E204461746542
S11317E03A20253032642D253032642D32302530B4
S11317F032642C205765656B204461793A20256456
S11318000A00332E205361766520616E642045788A
S1131810697400342E2045786974000A456E746535
S1131820722043686F6963653A20000A0A486F753D
S113183072205B302D32345D3A20000A4D696E759A
S11318407465205B302D35395D3A20000A53656399
S11318506F6E64205B302D35395D3A20000A0A57DB
S113186065656B446179205B312D375D3A20000A50
S113187044617465205B312D33315D3A20000A4D9B
S11318806F6E7468205B312D31325D3A20000A5945
S1111890656172205B302D39395D3A2000000D
S9030000FC
