:100000000C945D000C9485000C9485000C94850084
:100010000C9485000C9485000C9485000C9485004C
:100020000C9485000C9485000C9485000C9485003C
:100030000C9485000C9485000C9485000C9485002C
:100040000C9450030C9485000C9485000C9485004E
:100050000C9485000C9485000C9485000C9485000C
:100060000C9423020C94850000000008000201009B
:100070000003040700000000000000000102040863
:100080001020408001020408102001020408102002
:10009000040404040404040402020202020203032E
:1000A0000303030300000000250028002B000000CC
:1000B0000000240027002A00810111241FBECFEF79
:1000C000D4E0DEBFCDBF11E0A0E0B1E0E6ECF9E0A6
:1000D00002C005900D92A031B107D9F721E0A0E14F
:1000E000B1E001C01D92A93DB207E1F710E0CAEBF3
:1000F000D0E004C02297FE010E94DD04C83BD10776
:10010000C9F70E94CB040C94E1040C94000061E058
:1001100086E00E945B0480E191E00E94550165E366
:1001200070E080E191E00E946901E0911001F0919E
:1001300011010190F081E02D60EF80E191E00995DF
:1001400080E191E00E947E0168EC70E080E090E048
:100150000C94BD0361E086E00E94940468EE73E0B5
:1001600080E090E00E94BD0360E086E00E9494047D
:100170006CE271E080E090E00C94BD03809140015E
:1001800090E020914101821B910908952091410145
:1001900080914001281750F4E22FF0E0EE5BFE4F13
:1001A000808190E02F5F2093410108958FEF9FEFB2
:1001B0000895E091410180914001E81730F4F0E0AA
:1001C000EE5BFE4F808190E008958FEF9FEF0895E2
:1001D0000895CF92DF92EF92FF920F931F93CF93E8
:1001E000DF937C01CB018A0120911C01222389F03D
:1001F000EB016B01C40ED51ECC15DD0569F06991CC
:10020000D701ED91FC910190F081E02DC701099596
:10021000F3CF642F0E94FA01C801DF91CF911F91A3
:100220000F91FF90EF90DF90CF900895CF93DF93E1
:100230001F92CDB7DEB7698320911C012223D1F034
:1002400020911D01203240F021E030E0FC01338399
:10025000228380E090E015C080911E01E82FF0E03D
:10026000E15EFE4F998190838F5F80931E018093A2
:100270001D0105C061E0CE0101960E94FA0181E0F6
:1002800090E00F90DF91CF910895FC0113821282CC
:1002900048EE53E060E070E04483558366837783E3
:1002A00084E091E09183808308951092410110923F
:1002B000400110921E0110921D010C94850181E0F5
:1002C00080931C0160933F0110921E0110921D014A
:1002D00008950C945F010F93062F21E040911D01BA
:1002E0006FE171E080913F010E94A30110921E0115
:1002F00010921D0110921C010F91089561E00C9461
:100300006B0180E191E00C9445011092CF0181E0F6
:100310008093CD011092CC0161E082E10E949404AF
:1003200061E083E10E949404E9EBF0E080818E7F3C
:10033000808380818D7F808380E28093B80085E414
:100340008093BC0008950F93413208F04AC0909109
:10035000CF019111FCCF92E09093CF010093CD019A
:100360009FEF909362011092A7014093A601FB01B9
:1003700068EA71E0DB019A2F961B941718F49191AB
:100380009D93F9CF1092CE019091CE01880F892BC9
:100390008093CE018091CC01813061F41092CC0128
:1003A0008091CE018093BB008091BC0083FDF8CF8B
:1003B00085EC01C085EE8093BC00222321F0809162
:1003C000CF018230E1F3809162018F3F61F0809133
:1003D0006201803251F080916201803341F483E008
:1003E00007C081E005C080E003C082E001C084E076
:1003F0000F910895613298F42091CF01243089F44F
:1004000060938401FC0186E891E0DC012A2F281B1F
:10041000261718F421912D93F9CF80E0089581E0FB
:10042000089582E0089585ED8093BC008091BC0022
:1004300084FDFCCF1092CF01089585EC8093BC0021
:100440001092CF0108951F920F920FB60F921124B0
:100450002F933F934F935F936F937F938F939F93CC
:10046000AF93BF93EF93FF938091B900887F80365D
:1004700009F49EC078F5883209F45DC090F48031AB
:1004800009F456C038F4882309F4F5C0883009F41B
:100490004FC0F5C0883109F44EC0803209F45FC006
:1004A000EEC0803409F46AC058F4803309F457C0B0
:1004B000883309F0E4C0809362010E941D02DFC00E
:1004C000803509F44FC0883509F45DC0883409F0DF
:1004D000D6C0D3C0883909F4C4C0A8F4883709F459
:1004E00067C038F4883609F463C0803709F460C007
:1004F000C6C0883809F4B5C0803909F45FC08038B7
:1005000009F0BDC05BC0803B09F483C038F4803A79
:1005100009F466C0883A09F47CC0B1C0803C09F493
:10052000A4C0883C09F4A1C0883B09F487C0A7C0D7
:100530008091CE0110C09091A7018091A6019817DB
:1005400070F5E091A70181E08E0F8093A701F0E0A4
:10055000E855FE4F80818093BB0085EC83C080937B
:1005600062018BC0E091A70181E08E0F8093A7010B
:100570008091BB00F0E0E855FE4F80839091A70189
:100580008091A6016BC0E091A70181E08E0F80935E
:10059000A7018091BB00F0E0E855FE4F8083809179
:1005A000CD0181116AC081E08093CC0184EA5EC0F4
:1005B00083E08093CF0110926301CFCF80916301DC
:1005C000803208F04EC0E091630181E08E0F80938D
:1005D00063018091BB00F0E0EC59FE4F8083BDCFFA
:1005E0000E941D0280916301803230F4E09163012A
:1005F000F0E0EC59FE4F10826091630170E0E091F1
:10060000C801F091C90184E691E009951092630157
:1006100036C084E08093CF0110928501109284014E
:10062000E091CA01F091CB0109958091840181117B
:1006300005C081E08093840110928601E0918501DC
:1006400081E08E0F80938501F0E0EA57FE4F8081B4
:100650008093BB009091850180918401981708F4E4
:100660007CCF85E88093BC000AC085EC8093BC00F9
:100670001092CF0104C0109262010E941302FF91F8
:10068000EF91BF91AF919F918F917F916F915F910A
:100690004F913F912F910F900FBE0F901F90189583
:1006A0001F920F920FB60F9211242F933F938F93A7
:1006B0009F93AF93BF938091D1019091D201A0916C
:1006C000D301B091D4013091D00126E0230F2D3712
:1006D00020F40296A11DB11D05C029E8230F039641
:1006E000A11DB11D2093D0018093D1019093D2011F
:1006F000A093D301B093D4018091D5019091D601FC
:10070000A091D701B091D8010196A11DB11D809390
:10071000D5019093D601A093D701B093D801BF9192
:10072000AF919F918F913F912F910F900FBE0F909E
:100730001F9018953FB7F8948091D5019091D601FC
:10074000A091D701B091D80126B5A89B05C02F3F35
:1007500019F00196A11DB11D3FBF6627782F892F83
:100760009A2F620F711D811D911D43E0660F771F47
:10077000881F991F4A95D1F708958F929F92AF9243
:10078000BF92CF92DF92EF92FF926B017C010E94A9
:100790009A034B015C01C114D104E104F104F1F0AE
:1007A0000E94DA040E949A03681979098A099B0950
:1007B000683E73408105910570F321E0C21AD108AB
:1007C000E108F10888EE880E83E0981EA11CB11C98
:1007D000C114D104E104F10429F7DDCFFF90EF90BB
:1007E000DF90CF90BF90AF909F908F9008957894B6
:1007F00084B5826084BD84B5816084BD85B5826026
:1008000085BD85B5816085BDEEE6F0E080818160C3
:100810008083E1E8F0E010828081826080838081C3
:1008200081608083E0E8F0E0808181608083E1EB9B
:10083000F0E0808184608083E0EBF0E08081816083
:100840008083EAE7F0E08081846080838081826039
:10085000808380818E7F80838081806880831092F6
:10086000C1000895833081F028F4813099F08230FE
:10087000A1F008958730A9F08830B9F08430D1F420
:10088000809180008F7D03C0809180008F7780935E
:100890008000089584B58F7702C084B58F7D84BDB4
:1008A00008958091B0008F7703C08091B0008F7D54
:1008B0008093B0000895CF93DF9390E0FC01E4585B
:1008C000FF4F2491FC01E057FF4F8491882349F1A9
:1008D00090E0880F991FFC01E255FF4FA591B4915C
:1008E0008C559F4FFC01C591D4919FB7611108C0F1
:1008F000F8948C91209582238C93888182230AC05E
:10090000623051F4F8948C91322F309583238C937C
:100910008881822B888304C0F8948C91822B8C93DD
:100920009FBFDF91CF9108950F931F93CF93DF93D4
:100930001F92CDB7DEB7282F30E0F901E859FF4FFD
:100940008491F901E458FF4F1491F901E057FF4FEA
:1009500004910023C9F0882321F069830E943204A6
:100960006981E02FF0E0EE0FFF1FEC55FF4FA591DE
:10097000B4919FB7F8948C91611103C010958123B5
:1009800001C0812B8C939FBF0F90DF91CF911F915E
:100990000F91089508950E94F7030E94CA040E94CF
:1009A0008700C0E0D0E00E94AA002097E1F30E94F7
:1009B0000000F9CF0895EE0FFF1F0590F491E02D90
:0609C0000994F894FFCF3A
:1009C600000000001601E900BE00C600D900E800DC
:00000001FF
