:1000000012C02CC02BC02AC029C028C027C026C0BF
:1000100025C024C023C022C021C020C01FC01EC0D4
:100020001DC01CC01BC011241FBECFE5D4E0DEBF25
:10003000CDBF10E0A0E6B0E0ECEEF0E002C005902D
:100040000D92A036B107D9F710E0A0E6B0E001C0EC
:100050001D92A036B107E1F729D046C0D1CF009755
:1000600061F020E030E042EC51E0FA013197F1F725
:100070002F5F3F4F28173907C1F70895982F9F73B7
:1000800098BB882314F4AB9A01C0AB9886FF02C0DA
:10009000AA9A0895AA9808958FEF87BB18BA9CE092
:1000A00094BB93EF95BB11BA82BB0895F5DFC1E015
:1000B000EE24FF246894E3F800E8DD24D39406C01E
:1000C0008C2FDCDF88EC90E0CADFCC0FCC23C1F7AB
:1000D000E701102F812FD2DF88EC90E0C0DF16956A
:0C00E0002197C1F7CD2DF2CFF894FFCF8F
:00000001FF
