:100000000C94DB000C948E080C9467080C94400848
:100010000C9419080C9403010C9403010C94F2073E
:100020000C9403010C9403010C94110B0C94910B90
:100030000C9403010C9403010C9403010C94030130
:100040000C9403010C9403010C9403010C94030120
:100050000C9403010C9403010C9403010C94A80765
:100060000C9403010C9403010C9403010C94030100
:100070000C9403010C9403010C9403010C940301F0
:100080000C9403010C9403010C9403010C940301E0
:100090000C94B5080C9403010C9403010C94030117
:1000A0000C9403010C9403010C9403013A063D06E1
:1000B0002C06300634065E065E065E0641064506E0
:1000C00049064F0653065E0659060000000024004C
:1000D00027002A002D003000000000002500280025
:1000E0002B002E0031000404040404030405020262
:1000F00002020403020202020606060606060404C1
:100100000202020404040802011040804010204052
:1001100080408008020401804020100201108010FD
:10012000204040200000000200090F0000030401ED
:10013000000C0000000000000000000000000000B3
:10014000000000080B000202020100090400000187
:10015000020200000524001001052401010104240D
:10016000020605240600010705810310004009046A
:100170000100020A00000007050202400000070516
:1001800083024000000403090412010002EF02018F
:1001900040412341800001010203014172647569FD
:1001A0006E6F204C4C430041726475696E6F20592C
:1001B000756E0000891311241FBECFEFDAE0DEBF99
:1001C000CDBF24E0A0EAB2E001C01D92A535B20780
:1001D000E1F712E0A0E0B1E0E2E3F4E302C0059051
:1001E0000D92A03AB107D9F710E0CBEDD0E004C0F2
:1001F0002197FE010E945315CA3DD107C9F70E94FD
:10020000CF0D0C94171A0C940000CF93DF93C1EB21
:10021000D3E060E088810E940F0620E041E06A811F
:100220008C810E94730620E041E06A818C810E94EB
:10023000730661E08881DF91CF910C940F060097DF
:1002400069F0FC0101900020E9F73197AF01481BEC
:10025000590BBC0185E593E00C94220780E090E007
:100260000895CF93DF930E941F01EC018CE992E087
:100270000E941F018C0F9D1FDF91CF910895682F61
:1002800085EA93E00C948E0530915403313208F0E6
:100290004BC0809130038111FCCF9091530322E039
:1002A0002093300321E020932F032FEF20932E0380
:1002B00010922D0330932C03E3E3F3E0ACE0B3E0C2
:1002C00020E0321721F041914D932F5FFACF109229
:1002D0000B0320910B03990F922B90930B0390919A
:1002E0000A03913061F410920A0390910B039093EA
:1002F000BB009091BC0093FDF8CF95EC01C095EE4A
:100300009093BC00909130039230E1F390912E03D2
:100310009F3F79F080912E03803241F080912E032F
:10032000803331F084E005C081E003C082E001C089
:1003300083E0109232031092540310923103089517
:10034000909130039111FCCF91E090933003909302
:100350002F032FEF20932E0310922D03260F2093AF
:100360002C0390930B0390910B03880F892B8093A0
:100370000B0380910A03813061F410920A0380918B
:100380000B038093BB008091BC0083FDF8CF85EC0C
:1003900001C085EE8093BC00809130038130E1F391
:1003A00080912D03861710F460912D03ACE0B3E02B
:1003B000EAEEF2E080E0861721F09D9191938F5F45
:1003C000FACF08950F931F93CF9381E08093310369
:1003D00088E680935303109232031092540360E036
:1003E00085EA93E00E948E050E944401C82F811186
:1003F00079C068E088E60E94A0011092E90280932B
:10040000E802883009F06EC00DEE13E085EA93E053
:100410000E944505F80181938F01F3E0053F1F0716
:10042000A9F78091ED03982F9695969596959E70D5
:10043000292F220F220F920F8F70890F8093E503CF
:100440008091EE03982F9695969596959E70292FFC
:10045000220F220F920F8F70890F8093E6038091F5
:10046000EF03982F9695969596959670292F220FC3
:10047000220F920F8F70890F8093E7038091F00312
:10048000982F92959F708F702AE0929F800D112473
:100490008093E8038091F103982F92959F708F705D
:1004A000EAE09E9F800D11248093E9038091F2037E
:1004B000982F92959F708F70FAE09F9F800D112466
:1004C0008093EA038091F303982F92959F708F7029
:1004D0002AE0929F800D11248093EB038091F40316
:1004E0008093EC038C2FCF911F910F910895CF93A0
:1004F000C82F81E08093310388E6809353031092E4
:100500003203109254036C2F85EA93E00E948E050B
:10051000EC2FF0E0EB51FC4F608585EA93E00E9400
:100520008E05CF910C9444012091E702211103C064
:100530008FEF9FEF08955FB7F89422E02093E900D2
:100540002091F20030E01216130614F421E030E09E
:10055000422FFC0184E6415038F028988093E6024F
:100560009091F1009193F7CF2115310521F0809101
:10057000F200882319F05FBFC90108958BE68093CC
:10058000E800F9CF83E08093E9008091F2008823AE
:1005900019F08AE38093E8000895CF92DF92EF92FA
:1005A000FF920F931F93CF93DF932FB7F894C090D0
:1005B000E202D090E302E090E402F090E5022FBF67
:1005C0002091B9033091BA038901330F220B330B09
:1005D000C01AD10AE20AF30AC60ED71EE81EF91E97
:1005E0002FB7F8948091E2029091E302A091E40287
:1005F000B091E5022FBFC816D906EA06FB06C8F17E
:100600000DED13E0C0E4D1E02091B9033091BA03BD
:10061000CE01805491408217930714F760E08091D7
:10062000B1030E940F068091B7039091B80328810F
:10063000892B09F0209540E06091B3038091B503C8
:100640000E947306F80121918F0140E06091B3038D
:100650008091B5030E94730661E08091B1030E940E
:100660000F0661E070E080E090E00E94E8062196CD
:10067000CBCFDF91CF911F910F91FF90EF90DF9043
:10068000CF900C9405018F929F92AF92BF92DF9210
:10069000EF92FF920F931F93CF93DF93CDB7DEB707
:1006A000F62E0DB71EB7FC0101900020E9F7319737
:1006B0009F01281B390B4091BD035091BE034A0195
:1006C00061E0861A9108EDB7FEB7E41BF50B0FB693
:1006D000F894FEBF0FBEEDBFADB7BEB71196FCE4F8
:1006E000FF1205C02150310960E070E025C0BA0159
:1006F000621B730BE2E5EE2EFE1002C094010AC0ED
:1007000077FF02C06F5F7F4F75956795260F371F84
:10071000215031097D01E0E2DE2E5701AA1ABB0A01
:10072000A616B7064CF4F701D1927F01F6CF77FFFA
:1007300007C06F5F7F4F019626173707C4F70BC0BE
:1007400086169706B4F3FC01D0807D01E60EF71EF5
:10075000F701D082EECF2F5F3F4FFD01E20FF31F75
:1007600080E2BD019F012A1B3B0B2417350714F4BF
:100770008193F7CF8DB79EB7841B950B0FB6F89476
:100780009EBF0FBE8DBF0196DC012FEF3DEFFD0137
:10079000E81BF90BE417F5075CF5FB01F190BF01CD
:1007A000F0EDFF0DFA3030F4EF2DFF0CFF0BEA5F98
:1007B000FE4F09C0FFE9FF0DFA3140F4EF2DFF0CA9
:1007C000FF0BE554FF4FE081EC9310C0FFEBFF0DF2
:1007D000FA3130F4EF2DFF0CFF0BE552FF4FF3CF52
:1007E000FDE2FF1202C03C9301C02C931196CFCFC3
:1007F0006091B7037091B803A091CD03B091CE037F
:10080000A352BC4FFC019F01281B390B241735074D
:1008100044F420816115710509F420952D933196DA
:10082000F2CF0FB6F8941EBF0FBE0DBFDF91CF9170
:100830001F910F91FF90EF90DF90BF90AF909F902E
:100840008F9008952091BB033091BC0312161306BC
:100850001CF597FD21C02091BD033091BE03821786
:100860009307D4F42091CD033091CE03FC01E20F25
:10087000F31F8091B7039091B803EF54FC4F6623A8
:1008800019F0892B31F402C0892B19F084A58160FD
:1008900002C084A58E7F84A708952FB7F89483E0C3
:1008A0008093E9009091E800892F807295FF04C041
:1008B0009091F20080E4891B2FBF08958091F90385
:1008C00081110DC082E08093F50384E08093F603EC
:1008D0001092F8031092F70381E08093F90385EFFB
:1008E00093E008950F931F93CF93DF93EC018881DA
:1008F0009981009729F02A813B812617370788F4D0
:100900008B016F5F7F4F0E947A16009761F0998389
:1009100088831B830A832C813D81232B11F4FC01E6
:10092000108281E001C080E0DF91CF911F910F9193
:100930000895CF93DF93EC0188819981009711F09E
:100940000E94F115198218821D821C821B821A8254
:10095000DF91CF910895CF93DF931F92CDB7DEB78C
:100960006983DC01ED91FC910280F381E02D41E08F
:1009700050E0BE016F5F7F4F09950F90DF91CF91DF
:100980000895FC018485958597FD0BC09FB7F89469
:1009900082E08093E9008091F2009FBF90E0019691
:1009A00008959FB7F89482E08093E9008091F20067
:1009B0009FBF90E008953FB7F894809145049091CF
:1009C0004604A0914704B091480426B5A89B05C0F1
:1009D0002F3F19F00196A11DB11D3FBFBA2FA92FBE
:1009E000982F8827820F911DA11DB11DBC01CD013B
:1009F00042E0660F771F881F991F4A95D1F7089527
:100A0000089585ED8093BC008091BC0084FDFCCFEF
:100A100010923003089540912104262F30E0240FD6
:100A2000311D21323105DCF4209130032430C9F42A
:100A3000FC0180E090E0861758F430912104219168
:100A4000DC01AF5FBB4FA30FB11D2C930196F3CF19
:100A500080912104680F6093210480E0089581E073
:100A6000089582E00895089508950895E091E902B7
:100A70008091E802E81730F4F0E0E651FD4F808104
:100A800090E008958FEF9FEF08959091E902809193
:100A9000E802981750F4E92FF0E0E651FD4F20816D
:100AA00030E09F5F9093E90202C02FEF3FEFC90152
:100AB00008958091E80290E02091E902821B91095B
:100AC0000895CF92DF92EF92FF920F931F93CF93EF
:100AD000DF937C01CB018A0120913103222389F02D
:100AE000EB016B01C40ED51ECC15DD0569F06991D3
:100AF000D701ED91FC910190F081E02DC70109959E
:100B0000F3CF642F0E940B05C801DF91CF911F9195
:100B10000F91FF90EF90DF90CF900895CF93DF93E8
:100B20001F92CDB7DEB76983209131032223D1F024
:100B300020915403203240F021E030E0FC01338367
:100B4000228380E090E015C080913203E82FF0E02E
:100B5000ED5CFC4F998190838F5F8093320380938B
:100B6000540305C061E0CE0101960E940B0581E0AF
:100B700090E00F90DF91CF910895089580E090E08C
:100B8000089581E08093A40208950E944D0490E0AE
:100B900008950C94C2020F931F93CF93DF931F927B
:100BA000CDB7DEB78C01FC018485958597FF0EC01B
:100BB000CE0101960E949402019719F4898190E078
:100BC00002C08FEF9FEFF80195878487F801848535
:100BD00095850F90DF91CF911F910F910895CF933D
:100BE000DF931F92CDB7DEB7FC018485958597FD15
:100BF00005C02FEF3FEF358724870BC0CE0101964C
:100C00000E949402019719F4898190E002C08FEF4D
:100C10009FEF0F90DF91CF9108950E944017362FDC
:100C200090E0FC01EC5DFE4F4491FC01EB5FFE4F58
:100C30002491FC01EA51FF4F8491882309F452C0AA
:100C40004423E1F150E0FA013197EF30F105B0F5BE
:100C5000EA5AFF4F0C945315909180009F7707C07C
:100C6000909180009F7D03C090918000977F90932A
:100C7000800024C094B59F7702C094B59F7D94BD39
:100C80001DC0909190009F7707C0909190009F7D2C
:100C900003C090919000977F909390000FC0909127
:100CA000C0009F7703C09091C0009F7D9093C000CB
:100CB00005C09091C200977F9093C200E82FF0E0AA
:100CC000EE0FFF1FE852FF4FA591B4919FB7F89424
:100CD000311104C08C912095282302C0EC912E2B59
:100CE0002C939FBF0895BF92CF92DF92EF92FF9215
:100CF0000F931F93CF93DF93C82ED62EB42EC7E049
:100D0000D0E0022F10E087E0E82EF12CB11005C0F2
:100D1000C7018C1B9D0BB80102C0B8018C2F02C00B
:100D2000759567958A95E2F761708C2D0E940F0684
:100D300061E08D2D0E940F0660E08D2D0E940F0650
:100D4000219720F7DF91CF911F910F91FF90EF90A6
:100D5000DF90CF90BF900895CF93DF9390E0FC0198
:100D6000EB5FFE4F2491FC01EA51FF4F84918823F1
:100D700061F190E0880F991FFC01E653FF4FC59188
:100D8000D491FC01E852FF4FA591B491611109C0C3
:100D90009FB7F8948881209582238883EC912E2335
:100DA0000BC0623061F49FB7F8948881322F309580
:100DB00083238883EC912E2B2C939FBF06C08FB783
:100DC000F894E8812E2B28838FBFDF91CF9108956F
:100DD0008F929F92AF92BF92CF92DF92EF92FF924B
:100DE0006B017C010E94DB044B015C01C114D10446
:100DF000E104F104F1F00E94DB04DC01CB0188196D
:100E00009909AA09BB09883E9340A105B10570F371
:100E100021E0C21AD108E108F10888EE880E83E0CB
:100E2000981EA11CB11CC114D104E104F10419F7EE
:100E3000DDCFFF90EF90DF90CF90BF90AF909F906D
:100E40008F9008958F929F92AF92BF92CF92DF9230
:100E5000EF92FF920F931F93CF93DF936C017B016F
:100E60008A0180911501882309F45CC08091E70212
:100E7000882309F457C080914A0480FF05C08091FF
:100E8000E00082608093E000E801B12C8AEFA82E98
:100E900093E0892E2AE3922E209711F4BB20D9F1FA
:100EA0000E944D0481110AC0AA94AA20D9F161E0E0
:100EB00070E080E090E00E94E806EECF282F30E05E
:100EC000C217D3070CF48C2F9FB7F8948092E900D7
:100ED0002091E80025FF1DC0282F30E0C21BD30B56
:100EE000F701815020F041914093F100FACFE20EDA
:100EF000F31EBB2019F09092E8000AC08091E80030
:100F000085FD07C09092E800BB24B394209709F0B8
:100F1000B12C9FBFC1CF5D9884E680934B0410161F
:100F2000110644F081E090E0F6019383828380E033
:100F300090E001C0C801DF91CF911F910F91FF9008
:100F4000EF90DF90CF90BF90AF909F908F900895DB
:100F50001F920F920FB60F9211242F933F938F93EE
:100F60009F93AF93BF938091E2029091E302A0918F
:100F7000E402B091E5023091440423E0230F2D37C1
:100F800020F40196A11DB11D05C026E8230F02968D
:100F9000A11DB11D209344048093E2029093E302CB
:100FA000A093E402B093E502809145049091460439
:100FB000A0914704B09148040196A11DB11D8093F2
:100FC000450490934604A0934704B0934804BF910E
:100FD000AF919F918F913F912F910F900FBE0F90E6
:100FE0001F9018951F920F920FB60F9211242F93F6
:100FF0003F934F935F936F937F938F939F93AF93A1
:10100000BF93EF93FF93E0910801F09109010995D7
:10101000FF91EF91BF91AF919F918F917F916F91D0
:101020005F914F913F912F910F900FBE0F901F90A6
:1010300018951F920F920FB60F9211242F933F9382
:101040004F935F936F937F938F939F93AF93BF93D0
:10105000EF93FF93E0910601F09107010995FF914D
:10106000EF91BF91AF919F918F917F916F915F9120
:101070004F913F912F910F900FBE0F901F90189599
:101080001F920F920FB60F9211242F933F934F93FD
:101090005F936F937F938F939F93AF93BF93EF93E0
:1010A000FF93E0910401F09105010995FF91EF9103
:1010B000BF91AF919F918F917F916F915F914F9170
:1010C0003F912F910F900FBE0F901F9018951F9278
:1010D0000F920FB60F9211242F933F934F935F936C
:1010E0006F937F938F939F93AF93BF93EF93FF93F0
:1010F000E0910201F09103010995FF91EF91BF91F9
:10110000AF919F918F917F916F915F914F913F919F
:101110002F910F900FBE0F901F9018951F920F9256
:101120000FB60F9211242F933F934F935F936F93BA
:101130007F938F939F93AF93BF93EF93FF93E09130
:101140000001F09101010995FF91EF91BF91AF91DD
:101150009F918F917F916F915F914F913F912F91CF
:101160000F900FBE0F901F9018951F920F920FB601
:101170000F9211242F933F934F935F936F937F931D
:101180008F939F93AF93BF93EF93FF938091B90099
:10119000887F803609F49CC068F5883209F45BC00A
:1011A00090F4803109F454C038F4882309F4F6C06F
:1011B000883009F44DC0F6C0883109F44CC0803243
:1011C00009F45DC0EFC0803409F468C048F480338E
:1011D00009F455C0883309F0E5C080932E03D8C0C8
:1011E000803509F44FC0883509F45DC0883409F0B2
:1011F000D9C0D6C0883909F4C7C0A8F4883709F423
:1012000067C038F4883609F463C0803709F460C0D9
:10121000C9C0883809F4B8C0803909F45FC0803883
:1012200009F0C0C05BC0803B09F486C038F4803A46
:1012300009F466C0883A09F47FC0B4C0803C09F460
:10124000A7C0883C09F4A4C0883B09F48AC0AAC09E
:1012500080910B0310C090912D0380912C0398175F
:1012600070F5E0912D0381E08E0F80932D03F0E067
:10127000E45FFC4F80818093BB0085EC86C0809347
:101280002E038EC0E0912D0381E08E0F80932D03FD
:101290008091BB00F0E0E45FFC4F808390912D03D0
:1012A00080912C036EC0E0912D0381E08E0F80931E
:1012B0002D038091BB00F0E0E45FFC4F80838091C0
:1012C0002F0381116DC081E080930A0384EA61C01D
:1012D00083E08093300310924304CFCF8091430486
:1012E000803208F051C0E091430481E08E0F80937A
:1012F00043048091BB00F0E0ED5DFB4F8083BDCFE8
:1013000085EC8093BC0010923003809143048032BE
:1013100030F4E0914304F0E0ED5DFB4F108260910A
:10132000430470E0E091A002F091A10283E294E016
:1013300009951092430436C084E0809330031092E4
:10134000220410922104E091A202F091A3020995D7
:1013500080912104811105C081E0809321041092C5
:101360000104E091220481E08E0F80932204F0E0DA
:10137000EF5FFB4F80818093BB00909122048091AE
:101380002104981708F479CF85E88093BC000AC03F
:1013900085EC8093BC001092300304C010922E03A1
:1013A0000E940105FF91EF91BF91AF919F918F91A5
:1013B0007F916F915F914F913F912F910F900FBE51
:1013C0000F901F90189540914E0450914F0420911A
:1013D0004C0430914D0442175307B4F49091E80047
:1013E0009570E1F39091E80092FD19C08093F100AF
:1013F00080914E0490914F0401968F739927892B09
:1014000019F48EEF8093E80080914E0490914F0480
:10141000019690934F0480934E0481E0089580E0FC
:101420000895DF92EF92FF920F931F93CF93DF9374
:10143000D82EF92EE42E062F10E0C8010196880F51
:101440000E94E30983E00E94E309CD2DDF2D0C0FFC
:101450001D1FC017D10789F0E7FE03C0FE0184916C
:1014600001C088810E94E309F82E80E00E94E30910
:101470008F2121968111EDCF01C081E0DF91CF91C5
:101480001F910F91FF90EF90DF900895DF92EF9200
:10149000FF920F931F93CF93DF93D82E8A017B0186
:1014A000E40EF51EEB01CE15DF0571F0D7FE03C08B
:1014B000FE01849101C088810E94E3092196811177
:1014C000F2CF8FEF9FEF01C0C801DF91CF911F9145
:1014D0000F91FF90EF90DF900895615030F02091D0
:1014E000F100FC0120830196F8CF289884E68093D0
:1014F000E6020895CF92DF92EF92FF920F931F932F
:10150000CF93DF936C017A018B01C0E0D0E0CE1560
:10151000DF0581F0D8016D918D01D601ED91FC912F
:101520000190F081E02DC6010995892B11F02196DB
:10153000EECF7E01C701DF91CF911F910F91FF90F8
:10154000EF90DF90CF9008950F931F93CF93DF9389
:101550001F92CDB7DEB782E0898342E450E063E4B6
:1015600071E080E80E94460A0E945E04DC01129647
:101570000D911C9113970115110589F0D801ED917A
:10158000FC910280F381E02DBE016F5F7F4FC801A7
:10159000099597FD04C0F80100851185ECCF89817C
:1015A0000F90DF91CF911F910F910895EF92FF92CD
:1015B0000F931F93CF93DF93EC01198218821B8244
:1015C0001A821D821C826115710521F18B01FB01BC
:1015D00001900020E9F731977F01E61AF70AB70179
:1015E0000E947204811109C0CE01DF91CF911F9139
:1015F0000F91FF90EF900C949904FD82EC82B8015A
:1016000088819981DF91CF911F910F91FF90EF9089
:101610000C944E17DF91CF911F910F91FF90EF9097
:1016200008951F920F920FB60F9211242F933F939C
:101630004F935F936F937F938F939F93AF93BF93DA
:10164000CF93EF93FF93C091E1008091E100837FFE
:101650008093E100C3FF0FC01092E90081E0809306
:10166000EB001092EC0082E38093ED001092E70211
:1016700088E08093F000C2FF18C00E94C2028091EF
:101680004B04882339F080914B04815080934B04A4
:10169000882389F18091E602882339F08091E6025F
:1016A00081508093E602882341F1C4FF10C08091ED
:1016B000E2008E7E81608093E2008091E1008F7E67
:1016C0008093E10080914A048E7E806111C0C0FF4A
:1016D00016C08091E2008E7E80618093E20080914E
:1016E000E1008E7E8093E10080914A048E7E8160CD
:1016F00080934A0404C05D9ACDCF289AD6CFFF913B
:10170000EF91CF91BF91AF919F918F917F916F9109
:101710005F914F913F912F910F900FBE0F901F90AF
:1017200018951F920F920FB60F921124CF92DF924D
:10173000EF92FF920F931F932F933F934F935F93DB
:101740006F937F938F939F93AF93BF93EF93FF9389
:10175000CF93DF93CDB7DEB76C97DEBFCDBF1092CE
:10176000E9008091E80083FFFBC168E0CE01459667
:101770000E946D0A82EF8093E8008D8987FF05C083
:101780009091E80090FFFCCF03C09EEF9093E8009B
:10179000982F907609F0C6C09E894F89588D2F8961
:1017A000F88C91110CC0803829F480914904809301
:1017B000F10002C01092F1001092F10045C1913089
:1017C00051F4811141C14130510509F03DC1809171
:1017D00049048D7F0BC0933061F4811135C14130D4
:1017E000510509F031C18091490482608093490418
:1017F0002BC1953049F48091E80080FFFCCF822F07
:1018000080688093E30020C1963009F05EC00B8DA4
:101810001C8D22E01092E90010924F0410924E04A9
:10182000F21232C010924D0410924C040E94A40A8D
:1018300099E0BE016F5F7F4FDB01E92F1D92EA95B2
:10184000E9F79983FA8291E09E8390EA98879AEF6C
:10185000998720914E0430914F04275F3F4F3C837E
:101860002B838D831092E90010924F0410924E0446
:1018700010934D0400934C0449E050E080E00E9436
:10188000460A0E94A40AE0C010934D0400934C0441
:101890000E945E04DC0112960D911C9113970115B4
:1018A000110509F4BBC0D801ED91FC910480F581CC
:1018B000E02DBE016B5E7F4FC8010995009709F0CE
:1018C000C7C0F80100851185EACF973009F445C1FA
:1018D000983021F481E08093F100B6C0993009F08E
:1018E000B3C0837009F039C1EDE6F1E081E031E089
:1018F00096E32081211109C08EE78093EA001092BF
:10190000EA008F898093E7029FC08093E9003093BB
:10191000EB0021912093EC009093ED008F5F8730D6
:1019200041F7EACF8B8D9C8D1092E90010924F0405
:1019300010924E0490934D0480934C04898D811134
:1019400053C08E899D89913A49F4813209F005C1CD
:1019500047E050E06EE071E080E0BBC0913209F0FA
:10196000FCC0833269F48F89988DA0E0B0E0809349
:101970000A0190930B01A0930C01B0930D0164C078
:10198000803269F48091E80082FFFCCF67E08EE04E
:1019900091E00E946D0A8BEF8093E80055C082327F
:1019A00009F052C08F8980931501EEEFFFE7859112
:1019B00094918B3F9C4D19F0E0E0F8E002C0EEEF0F
:1019C000FAE080910E0190910F01A0911001B09169
:1019D0001101803B9440A105B10509F09EC08091A2
:1019E000150180FF79C099C00E945E04FC0102814C
:1019F00013810115110509F4B0C0D801ED91FC91D6
:101A00000190F081E02DBE016B5E7F4FC80109950A
:101A100081111AC0F80100851185EBCFF1E0FF16A6
:101A200009F44EC0F3E0FF1298C08F89882309F4AF
:101A30004AC0823089F440E86BE087EA91E00E9476
:101A4000110A882309F489C08EEF8093E80088C0CA
:101A500018161906CCF381C0813029F440E86BE0F8
:101A60008BE991E0ECCF833009F077C00E945E04EF
:101A7000DC011296ED90FC9013978E010F5F1F4FC3
:101A80006801E114F10479F0D701ED91FC91068031
:101A9000F781E02DB801C7010995080F111DF70165
:101AA000E084F184EECFD8011C92F6010190002071
:101AB000E9F73197BF016C197D0940E0C601BFCF3E
:101AC00069E871E002C065E871E0FB01449150E013
:101AD00080E80E94460AB8CFEE3F2AE0F20751F0B4
:101AE000808191818737A7E79A0721F09093FF0AB9
:101AF0008093FE0A87E797E7918380838091600057
:101B0000809350049BE088E10FB6F894A8958093E9
:101B100060000FBE9093600097CF808191818737DE
:101B2000974709F091CFA8958091600088618093D4
:101B300060008091500480936000EE3FBAE0FB07A4
:101B400039F08091FE0A9091FF0A918380837CCFC7
:101B50001092FF0A1092FE0A77CF81E28093EB0089
:101B60006C960FB6F894DEBF0FBECDBFDF91CF915C
:101B7000FF91EF91BF91AF919F918F917F916F9165
:101B80005F914F913F912F911F910F91FF90EF9097
:101B9000DF90CF900F900FBE0F901F901895CF93AE
:101BA000DF93CDB7DEB7AC970FB6F894DEBF0FBEAC
:101BB000CDBF789484B5826084BD84B5816084BDD6
:101BC00085B5826085BD85B5816085BD80916E00DB
:101BD000816080936E00109281008091810082600C
:101BE0008093810080918100816080938100809149
:101BF000800081608093800080919100826080935A
:101C0000910080919100816080939100809190007B
:101C10008160809390008091C10084608093C100B6
:101C20008091C10082608093C1008091C100816079
:101C30008093C1008091C30081608093C300809134
:101C4000C00082608093C0008091C2008160809358
:101C5000C20080917A00846080937A0080917A003B
:101C6000826080937A0080917A00816080937A000C
:101C700080917A00806880937A001092E702109237
:101C8000490410924A048091D70081608093D70064
:101C900080EA8093D80089B5806189BD89B582606A
:101CA00089BD09B400FEFDCF61E070E080E090E006
:101CB0000E94E8068091D8008F7C80618093D800D4
:101CC0008091E000807F8093E0008091E1008E7E33
:101CD0008093E1008DE08093E200559A209A62E0C3
:101CE00082E00E94AC0681EC95E090930301809322
:101CF000020180916900837F886080936900E99A7E
:101D00001092A4028FEF9FEF909362038093610380
:101D10001092E9021092E8021092320310925403DA
:101D20001092300301E000932F0310920A0361E048
:101D300082E00E940F0661E083E00E940F0680911E
:101D4000B9008E7F8093B9008091B9008D7F809318
:101D5000B90088E48093B80085E48093BC0083E3F5
:101D600095E09093A3028093A20284E395E0909380
:101D7000A1028093A0020093310389E4809353036E
:101D8000109232031092540381E090E00E943F01D0
:101D900080E690E00E943F0180EA90E00E943F01CF
:101DA0000E94440162E370E080E090E00E94E80657
:101DB00073E7C72E71E0D72E4EEC442E42E0542E2E
:101DC00054EF652E53E0752E62E8862E61E0962E64
:101DD0000E94E20181116FC08091E5031F928F93F1
:101DE0008091E6031F928F938091E7031F928F9358
:101DF000DF92CF925F924F920E9464172DB73EB749
:101E0000265F3F4F0FB6F8943EBF0FBE2DBF8091A7
:101E1000BB039091BC03181619062CF46CE48EECED
:101E200092E00E94430361E080E090E00E9422047F
:101E300061E081E090E00E94220461E082E090E0B5
:101E40000E94220461E083E090E00E94220461E0AD
:101E500084E090E00E94220461E085E090E00E942E
:101E6000220464EF71E080E090E00E94CD0260E027
:101E700080E090E00E94220460E081E090E00E9417
:101E8000220460E082E090E00E94220460E083E0AF
:101E900090E00E94220460E084E090E00E9422042E
:101EA00060E085E090E00E94220464EF71E080E051
:101EB00090E00E94CD028091CD028F5F8093CD0291
:101EC00085E593E00E94C104181619060CF09FC224
:101ED0000E94E201811138C08091EC031F928F9320
:101EE0008091E8031F928F938091E5031F928F9357
:101EF0008091E6031F928F938091E7031F928F9347
:101F00008091E9031F928F938091EA031F928F9330
:101F10008091EB0390E08053984F9F938F939F9213
:101F20008F928AEA92E09F938F930E9464178AEAC5
:101F300092E00E9431018DB79EB744960FB6F89497
:101F40009EBF0FBE8DBF23C0482F50E060E070E001
:101F500019A2FE01B196DB01CA018F709927AA2749
:101F6000BB2734E076956795579547953A95D1F715
:101F700031978A3014F4805D01C0895C80834115FB
:101F800051056105710539F7CF010E941F018EE9E6
:101F900092E00E94310187EB91E00E94310181ECD7
:101FA00091E00E9431018AEC91E00E9431018AEDBA
:101FB00091E00E94310187EE91E00E94310183EFB0
:101FC00091E00E9431018EE992E00E94310184E0AB
:101FD00092E00E94310188E192E00E94310185E5A2
:101FE00093E00E94EF0599278435910509F456C0C6
:101FF00084F48634910559F12CF48334910509F465
:10200000BFC1FDC180359105D9F083359105A1F09F
:10201000F6C180379105A1F044F48336910509F4A7
:10202000AFC18636910599F0EAC18337910521F059
:102030008437910599F1E3C18091ED038F7703C057
:102040008091ED0380688093ED0380E0D6C181E04C
:102050008093310388E680935303109232031092E9
:10206000540361E085EA93E00E948E050E944401DA
:102070008111C5C161E088E60E94A0011092E902C9
:102080008093E802813009F0BAC185EA93E00E94AA
:1020900045058F778093EE0381E0AFC18BE192E03D
:1020A0000E94310189E492E00E94310185E593E0CC
:1020B0000E94C1044697D4F385E593E00E94EF05A2
:1020C00085E593E00E94EF0585E593E00E94EF052A
:1020D000F82E85E593E00E94EF059F2D990F90560D
:1020E000292F220F220F920F8053092F080F85E509
:1020F00093E00E94EF0585E593E00E94EF05B82E7E
:1021000085E593E00E94EF059B2D990F9056B92E1F
:10211000BB0CBB0C9B0D8053B92EB80E85E593E02C
:102120000E94EF0585E593E00E94EF05A82E85E566
:1021300093E00E94EF059A2D990F9056A92EAA0CB4
:10214000AA0C9A0D8053A92EA80E85E593E00E9453
:10215000EF0585E593E00E94EF05F82E85E593E015
:102160000E94EF059F2D990F9056292F220F220FC5
:10217000920F8053980F99A785E593E00E94EF0591
:1021800085E593E00E94EF05F82E85E593E00E9437
:10219000EF059F2D990F9056292F220F220F920F96
:1021A0008053980F9AA785E593E00E94EF0585E597
:1021B00093E00E94EF05282E85E593E00E94EF054D
:1021C000922D990F9056292E220C220C920D80539D
:1021D000292E280E85E593E00E94EF0585E593E022
:1021E0000E94EF057C0185E593E00E94EF05FF2446
:1021F00097E5E916F104C9F19CF4FDE4EF16F1044A
:10220000C1F12CF436E4E316F10489F137C093E50B
:10221000E916F104E1F0E4E5EE16F104F9F02EC060
:10222000F3E7EF16F10499F04CF436E6E316F10407
:10223000F1F08DE6E816F104E1F020C094E7E9162C
:10224000F10461F0E7E7EE16F10479F017C08F7D35
:10225000853589F0813491F417E010C08F7D853584
:1022600061F0883459F415E009C014E007C016E0A5
:1022700005C012E003C011E001C013E00E94C202D9
:10228000822D8C3308F08BE36AE00E944715F0E161
:102290008F9F900D11248091ED038078982B90935F
:1022A000ED038AA58C3308F08BE36AE00E944715A2
:1022B00020E1829F900D11249093EE0389A588312F
:1022C00008F087E16AE00E94471530E1839F900D96
:1022D00011249093EF03812F183008F087E080934A
:1022E000F003AA2029F08A2D803218F08FE101C076
:1022F00081E06AE00E944715E0E18E9F900D112475
:102300009093F103BB2029F08B2D8D3018F08CE0D9
:1023100001C081E06AE00E944715F0E18F9F900DB7
:1023200011249093F203802F043608F083E66AE0CC
:102330000E94471520E1829F900D11249093F30392
:1023400081E08093310388E6809353031092320337
:102350001092540360E085EA93E00E948E052DEE12
:10236000E22E23E0F22EF70161917F0185EA93E0EE
:102370000E948E056E147F04B1F70E9444013FC095
:1023800081E692E00E94310185E593E00E94C1045C
:102390000297D4F385E593E00E94EF0500ED080F66
:1023A0000A3070F09FEB980F963010F409EC05C0DE
:1023B0009FE9980F963018F409EA080F01C000E071
:1023C00085E593E00E94EF0590ED980F9A3070F04C
:1023D0009FEB980F963010F499EC05C09FE9980F89
:1023E000963018F499EA980F01C090E0F0E10F9F41
:1023F000900D11249093F40387E00E9477026AE025
:1024000070E080E090E00E94E8060E94C2028091A5
:10241000A402882309F4F1C064E670E080E090E053
:102420000E94CD021092A4028091E9031F928F9323
:102430008091EA031F928F938091EB0390E0805389
:10244000984F9F938F9388E792E09F938F938AEAA8
:1024500092E09F938F930E9464176AEA72E0CE0124
:1024600082960E94D60A68E872E0CE0101960E9428
:10247000D60A8EA19FA1AAA0BBA02DB73EB7265F0A
:102480003F4F0FB6F8943EBF0FBE2DBFA114B1044D
:1024900009F43AC10097B9F0ED80FE80E80EF91E0C
:1024A000B701CE0101960E947204882309F42CC161
:1024B00029813A818D819E81B501820F931F0E94EF
:1024C0004E17FE82ED82E980FA80E114F10449F0B2
:1024D000AD80BE80B501CE0182960E94720481114A
:1024E00005C0CE0182960E94990407C0BFA2AEA289
:1024F000B7018AA19BA10E944E1789819A810E94EF
:10250000F115AEA1BFA1109709F473C08091BB0370
:102510009091BC03181619060CF04CC0EDB6FEB62F
:102520006AA17BA17CA76BA79B0140E050E0CA0198
:102530000196A417B50751F06115710539F0F9013D
:10254000B1909F01BB2011F0AC01F1CF2DB73EB788
:10255000281B390B0FB6F8943EBF0FBE2DBF8DB7A9
:102560009EB701965C0120E030E024173507B1F0FA
:102570002A173B0738F46115710521F0EBA5FCA57E
:10258000208001C0212CF50121925F012F5F3F4F78
:10259000EBA5FCA53196FCA7EBA7E7CFFC01E20F6A
:1025A000F31F10826CE40E9443030FB6F894FEBE42
:1025B0000FBEEDBE6AE872E080E090E00E94CD02BE
:1025C0004EA15FA14115510509F49BCF8AA19BA1A2
:1025D000415051095FA34EA3BC016F5F7F4F0E9422
:1025E0005517EAA1FBA18EA19FA1E80FF91F108248
:1025F00088CF8AA19BA10E94F1158091CD028E31D6
:1026000009F07AC081E08093310389E48093530319
:10261000109232031092540380E090E00E943F0138
:102620000E94440162E089E40E94A0011092E90244
:102630008093E802823051F485EA93E00E944505D8
:10264000382E85EA93E00E94450588A7E32CF12CFB
:10265000FE2CEE24F8A5EF0EF11C94E0F594E7941F
:102660009A95E1F7B7016F707727072E000C880B5A
:10267000990B0E94E11320E030E040E25FE30E940A
:102680001C140E9411157F936F93B701FF0C880BE8
:10269000990B0E94E11320E030E040E85DE30E94E6
:1026A0001C140E9411157F936F9381E992E09F9310
:1026B0008F9385EA92E09F938F930E9464172DB7C2
:1026C0003EB7285F3F4F0FB6F8943EBF0FBE2DBFF9
:1026D0008091BB039091BC03181619062CF463E497
:1026E00085EA92E00E94430368E873E180E090E0AD
:1026F0000E94CD021092CD0280E090E0892B09F477
:1027000067CB0E94000058CBCE0101960E9499042D
:10271000DACECF93DF93E5E5F3E01382128288EE01
:1027200093E0A0E0B0E084839583A683B7832CE494
:1027300031E0318320832FEF3FEF35872487E5EAAF
:10274000F3E01382128284839583A683B7838EE598
:1027500091E091838083C1EBD3E086E090E09983A0
:10276000888387E090E09B838A8385E090E09D8367
:102770008C8361E086E00E94AC0661E08A810E9461
:10278000AC0661E08C810E94AC060E94050188E0E5
:10279000EDEDF3E0DF011D928A95E9F71F821E82BD
:1027A00088E090E09987888721E030E03B872A879E
:1027B0009D878C871D8E1C8EDF91CF910895E894A4
:1027C00009C097FB3EF490958095709561957F4F79
:1027D0008F4F9F4F9923A9F0F92F96E9BB27939527
:1027E000F695879577956795B795F111F8CFFAF437
:1027F000BB0F11F460FF1BC06F5F7F4F8F4F9F4F68
:1028000016C0882311F096E911C0772321F09EE8C5
:10281000872F762F05C0662371F096E8862F70E02B
:1028200060E02AF09A95660F771F881FDAF7880F05
:102830009695879597F908950E942F140C94A014EB
:102840000E94921438F00E94991420F0952311F000
:102850000C9489140C948F1411240C94D4140E9499
:10286000B11470F3959FC1F3950F50E0551F629F0F
:10287000F001729FBB27F00DB11D639FAA27F00DD9
:10288000B11DAA1F649F6627B00DA11D661F829F00
:102890002227B00DA11D621F739FB00DA11D621FE5
:1028A000839FA00D611D221F749F3327A00D611D02
:1028B000231F849F600D211D822F762F6A2F1124E4
:1028C0009F5750409AF0F1F088234AF0EE0FFF1F17
:1028D000BB1F661F771F881F91505040A9F79E3F6E
:1028E000510580F00C9489140C94D4145F3FE4F3E8
:1028F000983ED4F3869577956795B795F795E795C4
:102900009F5FC1F7FE2B880F911D9695879597F9CC
:10291000089597F99F6780E870E060E008959FEF61
:1029200080EC089500240A94161617061806090666
:10293000089500240A941216130614060506089535
:10294000092E0394000C11F4882352F0BB0F40F4BD
:10295000BF2B11F460FF04C06F5F7F4F8F4F9F4FFD
:10296000089557FD9058440F551F59F05F3F71F07F
:102970004795880F97FB991F61F09F3F79F08795E6
:102980000895121613061406551FF2CF4695F1DF6F
:1029900008C0161617061806991FF1CF86957105FF
:1029A000610508940895E894BB2766277727CB0133
:1029B00097F908952F923F924F925F926F927F9274
:1029C0008F929F92AF92BF92CF92DF92EF92FF923F
:1029D0000F931F93CF93DF93CDB7DEB7CA1BDB0BEB
:1029E0000FB6F894DEBF0FBECDBF09942A88398890
:1029F00048885F846E847D848C849B84AA84B98497
:102A0000C884DF80EE80FD800C811B81AA81B981A2
:102A1000CE0FD11D0FB6F894DEBF0FBECDBFED01B6
:102A200008950E9418156894B1110C94D414089557
:102A30000E94B91488F09F5798F0B92F9927B75181
:102A4000B0F0E1F0660F771F881F991F1AF0BA9552
:102A5000C9F714C0B13091F00E94D314B1E00895C9
:102A60000C94D314672F782F8827B85F39F0B93FBB
:102A7000CCF3869577956795B395D9F73EF4909505
:102A80008095709561957F4F8F4F9F4F0895991B4B
:102A900079E004C0991F961708F0961B881F7A9555
:102AA000C9F780950895EE0FFF1F0590F491E02D72
:102AB00009940F931F93CF93DF938230910510F405
:102AC00082E090E0E0915304F091540420E030E083
:102AD000A0E0B0E0309719F140815181028113816B
:102AE00048175907C8F08417950769F4109731F013
:102AF00012960C93129713961C9327C000935304BD
:102B00001093540422C02115310519F042175307C0
:102B100018F49A01BD01EF01DF01F801DBCF2115A7
:102B20003105F9F0281B390B2430310580F48A81F6
:102B30009B816115710521F0FB019383828304C0A1
:102B40009093540480935304FE01329644C0FE01D6
:102B5000E20FF31F81939193225031093983288327
:102B60003AC02091510430915204232B41F420911A
:102B7000180130911901309352042093510420918F
:102B80001601309117012115310541F42DB73EB7DB
:102B900040911A0150911B01241B350BE091510407
:102BA000F0915204E217F307A0F42E1B3F0B2817F5
:102BB000390778F0AC014E5F5F4F2417350748F0B6
:102BC0004E0F5F1F50935204409351048193919391
:102BD00002C0E0E0F0E0CF01DF91CF911F910F91B3
:102BE0000895CF93DF93009709F481C0FC013297D9
:102BF00013821282A0915304B0915404109781F46F
:102C000020813181820F931F209151043091520411
:102C10002817390751F5F0935204E093510467C027
:102C2000ED0120E030E0CE17DF0740F44A815B8100
:102C30009E0141155105F1F0EA01F5CFD383C2831E
:102C400040815181840F951FC817D90759F4888195
:102C50009981840F951F0296918380838A819B813D
:102C6000938382832115310529F4F0935404E09372
:102C700053043DC0E901FB83EA8349915991C40F94
:102C8000D51FEC17FD0761F480819181840F951F9A
:102C90000296E90199838883828193819B838A8349
:102CA000E0E0F0E012968D919C911397009719F057
:102CB000FD01DC01F7CF8D919C9111979D012E5F55
:102CC0003F4F820F931F20915104309152042817D7
:102CD000390769F4309729F4109254041092530480
:102CE00002C013821282B0935204A0935104DF9168
:102CF000CF910895A0E0B0E0E0E8F6E10C94DE1496
:102D0000EC01009721F4CB010E945915B4C0FC01DD
:102D1000E60FF71F9C0122503109E217F30708F470
:102D2000A8C0D9010D911C91119706171707B0F093
:102D30000530110508F49BC0C80104978617970752
:102D400008F495C002501109061B170B019311934B
:102D50006D937C93CF010E94F11589C05B01A01A8D
:102D6000B10A4C01800E911EA0915304B0915404FD
:102D7000612C712CE12CF12C109709F446C08D9137
:102D80009C911197A815B905B1F56C0142E0C40EEC
:102D9000D11CCA14DB0478F14C018A189B08640129
:102DA00042E0C40ED11C1296BC9012971396AC91BF
:102DB000B5E0CB16D10440F0B282A3839182808229
:102DC000D9016D937C9309C00E5F1F4F800F911F37
:102DD000F90191838083EB2DFA2FE114F10431F096
:102DE000D7011396FC93EE93129741C0F0935404CD
:102DF000E09353043CC06816790608F43C017D0159
:102E000012960D90BC91A02DB7CF80915104909156
:102E1000520488169906E1F466167706C8F4809184
:102E2000160190911701009741F48DB79EB740911C
:102E30001A0150911B01841B950BE817F907C8F480
:102E4000F0935204E0935104F901718360830FC041
:102E5000CB010E9459157C01009759F0A801BE01D1
:102E60000E944517CE010E94F115C70104C0CE0192
:102E700002C080E090E0CDB7DEB7EEE00C94FA142B
:102E800081E090E0F8940C94171AFB01DC0102C079
:102E900001900D9241505040D8F70895FB01DC019C
:102EA00001900D920020E1F70895FB01DC014150F3
:102EB000504048F001900D920020C9F701C01D92CA
:102EC00041505040E0F70895AEE0B0E0EAE6F7E1A7
:102ED0000C94E8140D891E8986E08C831A8309837B
:102EE0008FEF9FE79E838D83AE01475E5F4F6F89B3
:102EF000788DCE0101960E948617EF81F885E00F4C
:102F0000F11F10822E96E4E00C940415ABE0B0E0C3
:102F1000ECE8F7E10C94DA146C017B018A01FC0106
:102F200017821682838181FFCCC1CE0101963C01BC
:102F3000F6019381F70193FD859193FF81917F01C4
:102F4000882309F4BAC1853239F493FD859193FF42
:102F500081917F01853229F4B60190E00E947D19AC
:102F6000E7CF912C212C312CFFE1F315D8F08B32D7
:102F700079F038F4803279F08332A1F4232D206186
:102F80001DC08D3261F0803369F4232D216016C09D
:102F9000832D8260382EE32DE4603E2E2AC0F32D6F
:102FA000F8601DC037FC2DC020ED280F2A3040F0FE
:102FB0008E32B9F436FC81C1232D2064322E19C023
:102FC00036FE06C08AE0989E200D1124922E11C074
:102FD000EAE02E9E200D1124222EF32DF0623F2ECA
:102FE00008C08C3621F4832D8068382E02C08836C4
:102FF00041F4F70193FD859193FF81917F01811148
:10300000B3CF982F9F7D9554933028F40C5F1F4FBA
:103010009FE399830DC0833631F0833771F0833598
:1030200009F059C021C0F801808189830E5F1F4FCC
:1030300088248394912C530113C02801F2E04F0E91
:10304000511CF801A080B18036FE03C0692D70E0EC
:1030500002C06FEF7FEFC5010E9472194C0182011F
:10306000F32DFF773F2E16C0280122E0420E511C9F
:10307000F801A080B18036FE03C0692D70E002C067
:103080006FEF7FEFC5010E9467194C01F32DF068C7
:103090003F2E820133FC1BC0822D90E088169906DA
:1030A000B0F4B60180E290E00E947D192A94F4CF3A
:1030B000F50137FC859137FE81915F01B60190E003
:1030C0000E947D1921102A9421E0821A910881140E
:1030D000910471F7E8C0843611F0893641F5F801A2
:1030E00037FE07C060817181828193810C5F1F4F21
:1030F00008C060817181072E000C880B990B0E5F50
:103100001F4FF32DFF763F2E97FF09C090958095B6
:10311000709561957F4F8F4F9F4FF0683F2E2AE04B
:1031200030E0A3010E94B919882E861845C0853762
:1031300031F4232D2F7EB22E2AE030E025C0932DCE
:10314000997FB92E8F36C1F018F4883579F0B5C063
:10315000803719F0883721F0B0C0E92FE061BE2E2A
:10316000B4FE0DC0FB2DF460BF2E09C034FE0AC0B2
:10317000292F2660B22E06C028E030E005C020E1ED
:1031800030E002C020E132E0F801B7FE07C0608104
:103190007181828193810C5F1F4F06C060817181B4
:1031A00080E090E00E5F1F4FA3010E94B919882EA6
:1031B0008618FB2DFF773F2E36FE0DC0232D2E7F68
:1031C000A22E891458F434FE0BC032FC09C0832DA2
:1031D0008E7EA82E05C0B82CA32C03C0B82C01C02D
:1031E000B92CA4FE0FC0FE01E80DF11D80818033D3
:1031F00021F49A2D997EA92E09C0A2FE06C0B3948F
:10320000B39404C08A2D867809F0B394A3FC11C04E
:10321000A0FE06C0B21488F4280C922C9B180EC095
:10322000B21460F4B60180E290E00E947D19B3947C
:10323000F7CFB21418F42B1802C0982C212CA4FE3E
:1032400010C0B60180E390E00E947D19A2FE17C075
:10325000A1FC03C088E790E002C088E590E0B601D9
:103260000CC08A2D867859F0A1FE02C08BE201C005
:1032700080E2A7FC8DE2B60190E00E947D198914DE
:1032800038F4B60180E390E00E947D199A94F7CF5C
:103290008A94F301E80DF11D8081B60190E00E944F
:1032A0007D198110F5CF222009F442CEB60180E2CB
:1032B00090E00E947D192A94F6CFF60186819781CD
:1032C00002C08FEF9FEF2B96E2E10C94F614FC0105
:1032D0000590615070400110D8F7809590958E0F41
:1032E0009F1F0895FC016150704001900110D8F7B4
:1032F000809590958E0F9F1F08950F931F93CF93E6
:10330000DF93FB01238121FD03C08FEF9FEF2CC0D2
:1033100022FF16C046815781248135814217530709
:1033200044F4A081B1819D012F5F3F4F3183208301
:103330008C93268137812F5F3F4F3783268314C0BC
:103340008B01EC01FB010084F185E02D0995892BAF
:10335000E1F6D80116968D919C91179701961796D4
:103360009C938E931697CE01DF91CF911F910F9171
:103370000895FA01AA27283051F1203181F1E8940B
:103380006F936E7F6E5F7F4F8F4F9F4FAF4FB1E058
:103390003ED0B4E03CD0670F781F891F9A1FA11D53
:1033A000680F791F8A1F911DA11D6A0F711D811D54
:1033B000911DA11D20D009F468943F912AE0269F19
:1033C00011243019305D3193DEF6CF010895462F78
:1033D0004770405D4193B3E00FD0C9F7F6CF462F59
:1033E0004F70405D4A3318F0495D31FD40524193C2
:1033F00002D0A9F7EACFB4E0A6959795879577957F
:103400006795BA95C9F700976105710508959B0105
:10341000AC010A2E06945795479537952795BA958E
:10342000C9F7620F731F841F951FA01D0895F8949C
:02343000FFCFCC
:1034320000050005000500050005FFFFFFFF00E194
:1034420000000000000000005504800011C16385E7
:1034520061714391F38751E313D5C531197349E182
:10346200C78381938925039F250D9949411F01191E
:10347200804020100804020100000000AB04220773
:10348200C505C905C104EF05CB05000000008E0586
:103492006105BE05350559054505360500C1808122
:1034A200000000253032752025303275202530325B
:1034B20075002534752D253032752D253032752055
:1034C200253032753A253032753A2530327520284A
:1034D200444F573A2025752C2043414C3A203078EE
:1034E20025303278292E0053205B535D746172744B
:1034F20000502073746F5B505D004620636C656101
:1035020072205B465D61756C740054207365742093
:103512005B545D696D65004320736574205B435D98
:10352200616C0044205B445D6973706C6179207446
:10353200696D650043686F6F73652061206D656E0C
:1035420075206974656D3A002D2D00456E746572A3
:103552002074696D6520666F726D61742028646FD6
:10356200772069732053756E2C204D6F6E2C202EA0
:103572002E2E20536174293A00797979792D6D6D57
:103582002D64642068683A6D6D3A737320646F77B6
:1035920000456E2056616C20496E48657828736B31
:1035A2006970203078293A00202534752D25303273
:1035B200752D25303275200020202020202020204B
:1035C2000025303275202530317543000D0A000088
:00000001FF
